:100000000C94F7000C9428010C9428010C942801FE
:100010000C9428010C9428010C9428010C942801BC
:100020000C9428010C9428010C9428010C942801AC
:100030000C9428010C9428010C9428010C9428019C
:100040000C9428010C9495060C9428010C9428011A
:100050000C9428010C9428010C9428010C94290A72
:100060000C9428010C941E0E0C940E0F0C94280175
:100070000C9428010C9428010C9428010C9428015C
:100080000C94C3060C9428010C9428010C942801AC
:100090000C94520E0C944D0F0C9428010C942801D2
:1000A0000C9428010C9428010C94F1060C9428015E
:1000B0000C9428010C9428010C9428010C941F071F
:1000C0000C9428010C9428010C9428010C94860EA1
:1000D0000C948C0F0C9428010C94BA0E0C94CB0F3A
:1000E0000C9428010000090A02080B0C0D070603F6
:1000F00004010000000000000000000000000000FB
:1001000000000000000000000000000000000000EF
:1001100011100F00000000000000000000000000AF
:100120000000000000000000000001021020200874
:100130000810204010204080020102010804020142
:1001400001020408102040808040201008040201B1
:10015000800402018040201008040201080402010A
:100160000102040810204080010204081020408091
:1001700005050505070508080808020202020A0A23
:100180000808040404040101010101010101030341
:10019000030303030303040707070C0C0C0C0C0CEC
:1001A0000C0C0202020206060606060606060B0BE9
:1001B0000B0B0B0B0B0B00002200250028002B0063
:1001C0002E003100340002010000050108010B017E
:1001D00000002100240027002A002D0030003300F9
:1001E00001010000040107010A0195048B1011248C
:1001F0001FBECFEFD1E2DEBFCDBF00E00CBF13E0EA
:10020000A0E0B2E0E8E1F5E200E00BBF02C0079039
:100210000D92A231B107D9F716E0A2E1B3E001C017
:100220001D92AC37B107E1F711E0CEEED1E000E06E
:1002300006C022970109FE010BBF0E947A12CA3E36
:10024000D10780E00807A9F70E9408120C948A12CF
:100250000C94000040E855E260E070E08AE394E02E
:100260000E940A1061E072E08AE394E00E946F0C41
:1002700064E070E089E293E00E941C0865E070E0B1
:1002800086E293E00E941C0866E070E083E293E05F
:100290000E941C0867E070E080E293E00E941C0866
:1002A00027E130E046E150E062E070E08AE193E06F
:1002B0000E94B40829E130E048E150E063E070E0DA
:1002C00084E193E00E94B4088CE293E00E94E5048C
:1002D0008CE293E00C94F8044FEF5FEF65ED70E073
:1002E0008CE293E00E94FF0468EE73E080E090E00F
:1002F0000E94AF0A40E050E060E070E08CE293E0E2
:100300000C942C0541E050E065ED70E08CE293E048
:100310000E94FF0468EE73E080E090E00E94AF0A64
:1003200040E050E060E070E08CE293E00C942C053B
:100330004CE251E06CE271E08CE293E00E942C050B
:1003400064EC79E080E090E00E94AF0A0E946C01CA
:100350004AE65FEF6AE67FEF8CE293E00E942C05AD
:1003600060E777E180E090E00E94AF0A40E050E073
:1003700060E070E08CE293E00E942C0546E950E0DA
:1003800066E970E08CE293E00E942C0564EF71E076
:1003900080E090E00E94AF0A40E050E060E070E052
:1003A0008CE293E00E942C050C948201CF93DF93A2
:1003B000EC018D968B35910588F46AE570E06C1B35
:1003C0007D0B89E293E00E945508BE01615A7F4F80
:1003D00086E293E0DF91CF910C945508DF91CF91A5
:1003E0000895AF92BF92CF92DF92EF92FF920F9358
:1003F0001F9382E00E942409BC01882777FD809525
:10040000982F1F921F921F9223E72F9323EAA22E69
:10041000BB24BA94CB2CDB2C19EBE12E12E0F12E8D
:1004200000E010E020E030E0A9010E94C1110F902F
:100430000F900F900F90CB011F910F91FF90EF90B5
:10044000DF90CF90BF90AF9008950F931F93CF93FD
:10045000DF938C010E94F101E801C81BD90BCE018A
:1004600004960997A0F462E272E08AE394E00E94A5
:100470006F0C6DE372E08AE394E00E94500C4AE056
:1004800050E0BE018AE394E00E944F0D11C068EC79
:1004900070E084E193E0D7FF03C00E94F40808C035
:1004A0000E94D50805C00E94F101E801C81BD90BC4
:1004B00025962B97C0F784E193E0DF91CF911F91B0
:1004C0000F910C941309AF92BF92CF92DF92EF92EB
:1004D000FF920F931F9381E00E942409BC0188279B
:1004E00077FD8095982F1F921F921F922CE62F93D5
:1004F0004EE9A42EBB24BA94CB2CDB2C19EBE12EB5
:1005000012E0F12E00E010E020E030E0A9010E94AE
:10051000C1110F900F900F900F90CB011F910F9171
:10052000FF90EF90DF90CF90BF90AF9008950F9322
:100530001F93CF93DF938C010E946302E801C81BD5
:10054000D90BCE0104960997A0F463E472E08AE324
:1005500094E00E946F0C6DE372E08AE394E00E94E5
:10056000500C4AE050E0BE018AE394E00E944F0D37
:1005700012C06FEF70E08AE193E01C161D061CF4B8
:100580000E94D50808C00E94F40805C00E946302BA
:10059000E801C81BD90B25962B97C0F78AE193E099
:1005A000DF91CF911F910F910C941309AF92BF92DD
:1005B000CF92DF92EF92FF920F931F93CF93DF932F
:1005C000EC017B016A0159018D968B35910580F014
:1005D00067E672E08AE394E0DF91CF911F910F917B
:1005E000FF90EF90DF90CF90BF90AF900C946F0C86
:1005F000CB018E599F4F8F3C910550F7CA01835A0A
:100600009F4F813D910520F72536310508F7053BC1
:100610001105F0F66AE570E06C1B7D0B89E293E052
:100620000E945508BE01615A7F4F86E293E00E9406
:100630005508B80180E293E00E945508B50183E2B5
:1006400093E00E9455080E946302E701C81BD90B82
:10065000CE0104960997A0F463E472E08AE394E083
:100660000E946F0C6DE372E08AE394E00E94500CEC
:100670004AE050E0BE018AE394E00E944F0D0CC0B6
:100680006FEF70E08AE193E01C161D061CF40E94D7
:10069000D50802C00E94F4080E94F1018601081BDF
:1006A000190BC80104960997A0F462E272E08AE38C
:1006B00094E00E946F0C6DE372E08AE394E00E9484
:1006C000500C4AE050E0B8018AE394E00E944F0DDC
:1006D0000BC068EC70E084E193E017FF03C00E9458
:1006E000F40802C00E94D5080B5F1F4F0B301105A4
:1006F00018F425962B9798F00E94F1018601081BAB
:10070000190B0E946302E701C81BD90B8AE193E031
:100710000E94130984E193E00E941309E5CFDF9161
:10072000CF911F910F91FF90EF90DF90CF90BF90EE
:10073000AF90089564E670E083E293E00C9455086E
:10074000CF93DF931F921F92CDB7DEB786EA9FEF5C
:100750000E94970280E090E00E9425028AE090E0EB
:100760000E94D60164EB70E080E293E00E9455089D
:100770000E949A036DE672E08AE394E00E946F0C97
:100780004AE65FEF6AE67FEF8CE293E00E942C0579
:1007900060EA7FE080E090E00E94AF0A46E950E026
:1007A00066E970E08CE293E00E942C056CED75E048
:1007B00080E090E00E94AF0A0E946C014AE65FEF81
:1007C0006AE67FEF8CE293E00E942C0565E872E018
:1007D0008AE394E00E946F0C68EE73E080E090E0A2
:1007E0000E94AF0A40E050E060E070E08CE293E0ED
:1007F0000E942C056DE872E08AE394E00E946F0C81
:1008000062EA72E08AE394E00E946F0C4CE251E0ED
:100810006CE271E08CE293E00E942C056DC01981BE
:1008200000E08A819801282BC901909313038093DB
:100830001203843F914008F05FC066EA72E08AE3E9
:1008400094E00E94500C60911203709113034AE0EF
:1008500050E08AE394E00E94EC0C40E050E060E05D
:1008600070E08CE293E00E942C050E9482018DE2F0
:1008700090E00E94250288ED9FEF0E94970248ECCD
:1008800050E068EC70E08CE293E00E942C0560EA96
:100890007FE080E090E00E94AF0A40E050E060E03E
:1008A00070E08CE293E00E942C0568E873E180E040
:1008B00090E00E94AF0A64EB72E08AE394E00E9449
:1008C0006F0C0E94980168EB7BE080E090E00E9452
:1008D000AF0A66EC72E08AE394E00E946F0C04EBCE
:1008E00010E022E330E046EA5FEF60E070E080E095
:1008F00090E00E94D6020CC022E0AE014F5F5F4F35
:100900006DE18CE293E00E949E05811188CF95CF26
:1009100065ED72E08AE394E00E946F0C68EE73E08C
:1009200080E090E00E94AF0AF3CF4AE050E068E137
:1009300074E08CE293E00E94C30489E293E00E9499
:100940004D0786E293E00E944D0783E293E00E9408
:100950004D0780E293E00E944D078AE193E00E94F8
:10096000B30884E193E00C94B308DC01ED91FC91B1
:100970000190F081E02D1994DC01ED91FC91019042
:10098000F081E02D1994DC0115967C936E931497F9
:100990004C30510570F4FA01EE0FFF1FE40FF51F04
:1009A000E352FD4F208131814281642FA90170E023
:1009B00004C040E051EE60E070E04D935D936D93B4
:1009C0007C93139716961C920895CF93DF93EC01B6
:1009D000488159816A817B818C819D810E940A10A6
:1009E00060E870E08C819D81DF91CF910C94BC0414
:1009F00064E870E0FC01848195810C94BC04EF9262
:100A0000FF920F931F93CF93DF93EC017B018A0139
:100A100069E870E08C819D810E94BC046F2D70E0BC
:100A20008C819D810E94B504B70177278C819D81BF
:100A30000E94BC04612F70E08C819D810E94B504EE
:100A4000B80177278C819D81DF91CF911F910F9104
:100A5000FF90EF900C94BC04EF92FF920F931F93C2
:100A6000CF93DF93EC018B017A0161E970E08C8117
:100A70009D810E94BC046F2D70E08C819D810E943D
:100A8000B504B70177278C819D810E94BC04612F3A
:100A900070E08C819D810E94B504B80177278C811C
:100AA0009D81DF91CF911F910F91FF90EF900C945A
:100AB000BC04BF92CF92DF92EF92FF920F931F93ED
:100AC000CF93DF93EC018B01B42E29C00E94730AEF
:100AD0006B017C0188ECC80ED11CE11CF11C07C025
:100AE0000E94730AC616D706E806F906E0F08C8164
:100AF0009D81DC01ED91FC910480F581E02D19953B
:100B0000892B71F3BA948C819D81DC01ED91FC916C
:100B10000680F781E02D1995F80181938F01B110BE
:100B2000D5CF81E001C080E0DF91CF911F910F917F
:100B3000FF90EF90DF90CF90BF900895CF92DF921B
:100B4000FF920F931F93CF93DF931F92CDB7DEB722
:100B50006C01F62E8A016EE870E0DC0114968D912E
:100B60009C91159729830E94BC04F601848195818C
:100B7000DC01ED91FC910190F081E02D6F2D199534
:100B80002981422FB801C6010F90DF91CF911F91AB
:100B90000F91FF90DF90CF900C945905EF92FF9248
:100BA0000F931F93CF93DF938B017A01EC01DC014C
:100BB000A95CBC4F8C9187FF05C0DB0111961C928C
:100BC0001E9222C02CE02C9FC0012D9F900D11245D
:100BD0002C91AC01420F511D27FD5A9520913603EF
:100BE00030E04217530784F42C91FC01E20FF11D11
:100BF00027FDFA959F01EE0FFF1FE20FF31FE55C43
:100C0000FC4F208126FD45C0FE01E95CFC4F808140
:100C10008F5F80832CE02C9FC0012D9F900D1124AD
:100C20002081AC01420F511D27FD5A9520913603BA
:100C300030E0421753070CF03EC020812C300CF4FA
:100C400042C039C02081820F911D27FD9A95FC0179
:100C5000EE0FFF1FE80FF91FE55CFC4F808161E09C
:100C60008F73DF91CF911F910F91FF90EF900C94B4
:100C7000DB0B80E49CE904C0F8018081918104963B
:100C8000D70111969C938E93C95CDC4F8FEF8883BC
:100C900045C02C91820F911D27FD9A95FC01EE0F06
:100CA000FF1FE80FF91FE55CFC4F808160E08F7348
:100CB0000E94DB0BA9CFF8018081918104968034DA
:100CC0009C49B8F2D9CFD8012D913C914081BC010B
:100CD000640F711D47FD7A95AB01DB01AA0FBB1FA5
:100CE000A40FB51FA55CBC4F11964D915C91129756
:100CF000240F351FD70111963C932E932081AC0110
:100D0000420F511D27FD5A95DA01AA0FBB1FA40FF0
:100D1000B51FA55CBC4F2C9126FD94CFDF91CF91E0
:100D20001F910F91FF90EF9008951F920F920FB6B1
:100D30000F9211240BB60F922F933F934F935F9313
:100D40006F937F938F939F93AF93BF93EF93FF9393
:100D500048E850E064E870E081E090E00E94CE0551
:100D6000FF91EF91BF91AF919F918F917F916F9183
:100D70005F914F913F912F910F900BBE0F900FBE3F
:100D80000F901F9018951F920F920FB60F9211247B
:100D90000BB60F922F933F934F935F936F937F9375
:100DA0008F939F93AF93BF93EF93FF9348E950E0E6
:100DB00064E970E082E090E00E94CE05FF91EF913F
:100DC000BF91AF919F918F917F916F915F914F9163
:100DD0003F912F910F900BBE0F900FBE0F901F9061
:100DE00018951F920F920FB60F9211240BB60F9207
:100DF0002F933F934F935F936F937F938F939F9323
:100E0000AF93BF93EF93FF9348EA50E064EA70E03A
:100E100083E090E00E94CE05FF91EF91BF91AF91EA
:100E20009F918F917F916F915F914F913F912F9102
:100E30000F900BBE0F900FBE0F901F9018951F9232
:100E40000F920FB60F9211240BB60F922F933F9370
:100E50004F935F936F937F938F939F93AF93BF93C2
:100E6000EF93FF9348E251E064E271E080E090E0AC
:100E70000E94CE05FF91EF91BF91AF919F918F910D
:100E80007F916F915F914F913F912F910F900BBE8A
:100E90000F900FBE0F901F901895209136032033AE
:100EA000A0F4FC012083822F8F5F80933603822F72
:100EB00090E0FC01EE0FFF1FE80FF91FE55CFC4F0F
:100EC00088EB9BE09283818308952FEFFC012083C0
:100ED0000895DF92EF92FF920F931F93CF93DF93CA
:100EE000EC01D62E7A0189018881803308F094C004
:100EF00061E08D2D0E94A30B8881A82FB0E0FD0139
:100F0000EE0FFF1FEA0FFB1FE55CFC4F2D2D2F732B
:100F10009081907C922B908360E272E06E197F0941
:100F200077FF02C06D5F7F4F7595679575956795E3
:100F3000698340E659E0401B510B57FF02C04D5FEB
:100F40005F4F55954795559547954A836CE00E94AC
:100F500025129CE0899FB001112420E030E0A90116
:100F6000460F571FFA01EE0FFF1FE40FF51FE55C58
:100F7000FC4F908196FD44C02F5F3F4F2C303105D0
:100F800071F74CC01092800082E080938100109233
:100F9000850010928400B19A80916F0082608093E6
:100FA0006F002EC08230910569F41092900082E0AB
:100FB00080939100109295001092940088BB8093CA
:100FC00071001EC08330910569F41092A00082E088
:100FD0008093A1001092A5001092A40089BB809379
:100FE00072000EC0892B61F41092200182E0809380
:100FF000210110922501109224018ABB8093730075
:10100000888190E0FC01EE0FFF1FE80FF91FE55CFF
:10101000FC4F808180648083888106C090E08130AD
:10102000910509F0BFCFAECFDF91CF911F910F9106
:10103000FF90EF90DF90089520E639E040E252E023
:101040000C946907FC018081803370F5918128E858
:1010500030E0291B310997FD3395220F331F220FF2
:10106000331F621773077CF0928128E532E0291B59
:10107000310997FD3395220F331F220F331F62175B
:1010800073070CF49B014FB7F89490E0FC01EE0F4E
:10109000FF1FE80FF91FE55CFC4F22503109220FBA
:1010A000331F328321834FBF0895AF92BF92CF92F7
:1010B000DF92EF92FF920F931F93CF93DF93EC0198
:1010C000603282E078070CF041C077FD04C0653BD8
:1010D000710524F405C060E070E002C064EB70E0CC
:1010E000298188E890E0821B910927FD9395880F5C
:1010F000991F880F991F5C01CC24B7FCC094DC2C8D
:10110000882777FD8095982F2A8148E552E0421B79
:10111000510927FD5395440F551F440F551F8A0150
:10112000222717FD2095322F3F932F931F930F9364
:1011300014EBE12EF12C00E010E020E030E0A901FA
:101140000E94C1110F900F900F900F90CE01DF9170
:10115000CF911F910F91FF90EF90DF90CF90BF90B4
:10116000AF900C9422080895CF93DF931F921F92A3
:10117000CDB7DEB7FC01862F608371834283538332
:101180002483358361E02A8349830E94A30B61E0B5
:101190004981842F0E94A30B61E02A81822F0F9046
:1011A0000F90DF91CF910C94A30B0F931F93CF93CC
:1011B000DF93EC018B016F3F710509F080F461E072
:1011C0008A810E94DB0B60E08C810E94DB0BB801FE
:1011D0008881DF91CF911F910F910C944D09DF9180
:1011E000CF911F910F9108950F931F93CF93DF938A
:1011F000EC018B016F3F710509F080F460E08A819A
:101200000E94DB0B61E08C810E94DB0BB8018881BE
:10121000DF91CF911F910F910C944D09DF91CF91E8
:101220001F910F910895CF93DF93EC0161E08A81C4
:101230000E94DB0B61E08C810E94DB0B61E0888106
:10124000DF91CF910C94DB0B863308F0865320910D
:101250007B00982F9870277F922B90937B0087704C
:101260002091000240E4249F90011124822B80935E
:101270007C0080917A00806480937A0080917A006B
:1012800086FDFCCF2091780030917900932F80E08B
:10129000AC01422B9A01C90108951F93CF93DF93AC
:1012A000182FEB0161E00E94A30B209711F460E07E
:1012B00004C0CF3FD10539F461E0812FDF91CF9198
:1012C0001F910C94DB0BE12FF0E0EC51FF4FE49108
:1012D000E93009F460C098F4E430C9F138F4E23040
:1012E00039F158F5E13009F0ABC01DC0E73009F421
:1012F00040C008F046C0E63009F0A2C032C0ED3070
:1013000009F476C030F4EB3009F459C008F066C037
:101310004CC0E03109F480C0E13109F487C0EF30FE
:1013200009F08EC06FC084B5806884BDC7BD8DC014
:1013300084B5806284BDC8BD88C08091800080680B
:1013400080938000D0938900C09388007EC08091F4
:101350008000806280938000D0938B00C0938A00CD
:1013600074C08091B00080688093B000C093B300D7
:101370006CC08091B00080628093B000C093B400D4
:1013800064C080919000806880939000D093990011
:10139000C09398005AC08091900080628093900022
:1013A000D0939B00C0939A0050C0809190008860B9
:1013B00080939000D0939D00C0939C0046C0809184
:1013C000A00080688093A0008091A0008F7B809314
:1013D000A000D093A900C093A80037C08091A000BE
:1013E00080628093A000D093AB00C093AA002DC070
:1013F0008091A00088608093A000D093AD00C0933E
:10140000AC0023C080912001806880932001D0939C
:101410002901C093280119C0809120018062809326
:101420002001D0932B01C0932A010FC0809120018D
:10143000886080932001D0932D01C0932C0105C0BA
:10144000C038D1050CF038CF32CFDF91CF911F914A
:1014500008951F920F920FB60F9211242F933F936E
:101460008F939F93AF93BF938091CB039091CC03C5
:10147000A091CD03B091CE033091D303232F2D5FE4
:101480002D3720F40196A11DB11D05C0232F2A5729
:101490000296A11DB11D2093D3038093CB0390939B
:1014A000CC03A093CD03B093CE038091CF03909152
:1014B000D003A091D103B091D2030196A11DB11D1B
:1014C0008093CF039093D003A093D103B093D20322
:1014D000BF91AF919F918F913F912F910F900FBE30
:1014E0000F901F9018950F931F938FB7F89400914A
:1014F000CB031091CC032091CD033091CE038FBF4D
:10150000B801C9011F910F9108950F931F939FB7C1
:10151000F8940091CF031091D0032091D103309122
:10152000D20386B5A89B06C08F3F21F00F5F1F4FE7
:101530002F4F3F4F9FBF322F212F102F0027080F13
:10154000111D211D311D42E0000F111F221F331FED
:101550004A95D1F7B801C9011F910F910895CF9213
:10156000DF92EF92FF92CF93DF936B017C010E9499
:10157000850AEB010EC00E94850A6C1B7D0B683E3C
:10158000734038F081E0C81AD108E108F108C85169
:10159000DC4FC114D104E104F10469F7DF91CF916C
:1015A000FF90EF90DF90CF900895789484B582609B
:1015B00084BD84B5816084BD85B5826085BD85B5F7
:1015C000816085BDEEE6F0E0808181608083E1E8A6
:1015D000F0E01082808182608083808181608083DE
:1015E000E0E8F0E0808181608083E1EBF0E08081E1
:1015F00084608083E0EBF0E0808181608083E1E9BA
:10160000F0E0808182608083808181608083E0E976
:10161000F0E0808181608083E1EAF0E08081826097
:101620008083808181608083E0EAF0E08081816056
:101630008083E1E2F1E0808182608083808181604B
:101640008083E0E2F1E0808181608083EAE7F0E07E
:1016500080818460808380818260808380818160DA
:1016600080838081806880831092C10008958930D2
:1016700009F443C088F4843029F138F4823059F1F8
:10168000E8F4813009F05EC023C0873061F188F54D
:10169000863009F057C023C08D3009F440C020F4D3
:1016A0008B30A9F1C0F52DC0803109F442C08131E1
:1016B00009F443C08F3009F045C037C080918000E5
:1016C0008F7703C0809180008F7D80938000089584
:1016D00084B58F7702C084B58F7D84BD08958091D5
:1016E000B0008F7703C08091B0008F7D8093B000F1
:1016F0000895809190008F7707C0809190008F7D32
:1017000003C080919000877F80939000089580911E
:10171000A0008F7707C08091A0008F7D03C08091CB
:10172000A000877F8093A0000895809120018F778B
:1017300007C0809120018F7D03C080912001877FA9
:10174000809320010895CF93DF9390E0FC01E65D44
:10175000FE4F4491FC01E059FE4F8491882341F1F2
:1017600090E0880F991FFC01E053FE4F25913491C2
:10177000D9018A549E4FFC0185919491C82FD92F8D
:101780009FB7F8948C91611106C0409584238C9387
:101790008881842308C0623041F4242F209582235D
:1017A0008C938881842B888302C0842B8C939FBF69
:1017B000DF91CF9108950F931F93CF93DF931F92E3
:1017C000CDB7DEB7282F30E0F901EC51FF4F8491FF
:1017D000F901E65DFE4F1491F901E059FE4F0491C5
:1017E0000023D1F0882321F069830E94370B69819F
:1017F000E02FF0E0EE0FFF1FEA54FE4F8591949129
:10180000DC019FB7F8948C91611103C0109581237E
:1018100001C0812B8C939FBF0F90DF91CF911F91BF
:101820000F910895CF92DF92EF92FF920F931F9343
:10183000CF93DF936C01EB017A01E60EF71E00E017
:1018400010E00BC06991D601ED91FC910190F081FF
:10185000E02DC6011995080F191FCE15DF0591F768
:10186000C801DF91CF911F910F91FF90EF90DF9012
:10187000CF9008956115710581F0DB010D90002076
:10188000E9F7AD0141505109461B570BDC01ED91C1
:10189000FC910280F381E02D199480E090E008959E
:1018A0000C943A0CDC01ED91FC910190F081E02D5B
:1018B00019940F931F93CF93DF93EC016DE00E9477
:1018C000520C8C016AE0CE010E94520C9C01200F48
:1018D000311FC901DF91CF911F910F9108950F938F
:1018E0001F93CF93DF93EC010E943A0C8C01CE0141
:1018F0000E94590C9801280F391FC901DF91CF911F
:101900001F910F9108954F925F926F927F929F92D5
:10191000AF92BF92CF92DF92EF92FF920F931F93FD
:10192000CF93DF93CDB7DEB7A1970FB6F894DEBFA4
:101930000FBECDBF5C016A017B01922E19A281E02E
:10194000821710F08AE0982E8E010F5D1F4F492CF0
:10195000512C612C712CC701B601A30192010E9488
:1019600031128C2D929E80191124015011098A3058
:1019700014F4805D01C0895CF801808369017A01FB
:10198000C114D104E104F10431F7B801C5010E948A
:101990003A0CA1960FB6F894DEBF0FBECDBFDF9113
:1019A000CF911F910F91FF90EF90DF90CF90BF905C
:1019B000AF909F907F906F905F904F90089521150A
:1019C000310541F4DC01ED91FC910190F081E02DB5
:1019D000642F19940C94830C0F931F93CF93DF9370
:1019E000EC019A01AB0160E070E00E94DF0C8C0119
:1019F000CE010E94590C9801280F391FC901DF91AF
:101A0000CF911F910F910895CF92DF92EF92FF92A5
:101A10000F931F93CF93DF93EC016A017B01211594
:101A2000310579F4E881F9810190F081E02D642F8E
:101A3000DF91CF911F910F91FF90EF90DF90CF90AA
:101A400019942A30310519F477FD0EC02AE0B70148
:101A5000A601CE01DF91CF911F910F91FF90EF90E2
:101A6000DF90CF900C94830C6DE20E94520C8C019D
:101A700044275527BA014C195D096E097F092AE0F0
:101A8000CE010E94830C080F191FC801DF91CF916E
:101A90001F910F91FF90EF90DF90CF9008950F93DB
:101AA0001F93CF93DF93EC019A01AB01662757FD9B
:101AB0006095762F0E94040D8C01CE010E94590C76
:101AC0009801280F391FC901DF91CF911F910F9104
:101AD0000895FC0184859585FC01E05CFF4F208121
:101AE0003181FC01EE5BFF4F80819181281B390B16
:101AF0002F733327C9010895FC0184859585FC0166
:101B0000E05CFF4F40815181FC01EE5BFF4F208183
:101B100031814217530741F00190F081E02DE80F29
:101B2000F91F208130E002C02FEF3FEFC901089577
:101B3000FC0184859585FC01E05CFF4F408151816B
:101B4000FC01EE5BFF4F208131814217530781F08A
:101B5000A081B181A80FB91F8C91208131812F5FA5
:101B60003F4F2F73332731832083282F30E002C06B
:101B70002FEF3FEFC9010895FC0181A1882329F0CF
:101B8000A489B5898C9186FFFBCF11A20895CF93CC
:101B9000DF93FC0126853785D901A05CBF4F8D916D
:101BA0009C91119701968F739927E901CE5BDF4FC6
:101BB0004881598184179507D9F30D90BC91A02DC8
:101BC000A20FB31F6C93A685B785A05CBF4F11967B
:101BD0009C938E93A689B7892C9181E090E0078C25
:101BE00002C0880F991F0A94E2F7282B2C9381E0FA
:101BF00081A30488F589E02D80818064808381E061
:101C000090E0DF91CF910895FB01E05CFF4F2081D0
:101C100031812F5F3F4F2F733327DB01AE5BBF4F07
:101C20004D915C912417350739F0A081B181A60F41
:101C3000B71F8C9331832083089508951F920F92CC
:101C40000FB60F9211240BB60F922F933F934F9321
:101C50005F936F937F938F939F93AF93BF93EF9314
:101C6000FF938091C00082FD07C08091C60068E3A9
:101C700076E00E94040E02C08091C600FF91EF91B1
:101C8000BF91AF919F918F917F916F915F914F9194
:101C90003F912F910F900BBE0F900FBE0F901F9092
:101CA000189508951F920F920FB60F9211240BB63C
:101CB0000F922F933F934F935F936F937F938F93E5
:101CC0009F93AF93BF93EF93FF938091C80082FDE2
:101CD00007C08091CE0060EB75E00E94040E02C048
:101CE0008091CE00FF91EF91BF91AF919F918F9125
:101CF0007F916F915F914F913F912F910F900BBE0C
:101D00000F900FBE0F901F90189508951F920F927D
:101D10000FB60F9211240BB60F922F933F934F9350
:101D20005F936F937F938F939F93AF93BF93EF9343
:101D3000FF938091D00082FD07C08091D60068E2B9
:101D400075E00E94040E02C08091D600FF91EF91D1
:101D5000BF91AF919F918F917F916F915F914F91C3
:101D60003F912F910F900BBE0F900FBE0F901F90C1
:101D7000189508951F920F920FB60F9211240BB66B
:101D80000F922F933F934F935F936F937F938F9314
:101D90009F93AF93BF93EF93FF938091300182FDA8
:101DA00007C08091360160EA74E00E94040E02C010
:101DB00080913601FF91EF91BF91AF919F918F91EB
:101DC0007F916F915F914F913F912F910F900BBE3B
:101DD0000F900FBE0F901F9018958AE394E00E9419
:101DE000690D892B11F00E941D0E88E194E00E947C
:101DF000690D892B11F00E94510E86EF93E00E942D
:101E0000690D892B11F00E94850E84ED93E00E94EC
:101E1000690D892B11F00C94B90E08951F920F9241
:101E20000FB60F9211240BB60F922F933F938F93FF
:101E30009F93EF93FF932091340630913506809164
:101E40003606909137062817390731F48091C10082
:101E50008F7D8093C10014C0E0913606F091370663
:101E6000EC50FA4F2081809136069091370601960A
:101E70008F73992790933706809336062093C60078
:101E8000FF91EF919F918F913F912F910F900BBEFA
:101E90000F900FBE0F901F9018951F920F920FB6C4
:101EA0000F9211240BB60F922F933F938F939F9312
:101EB000EF93FF932091AC053091AD058091AE0575
:101EC0009091AF052817390731F48091C9008F7DB3
:101ED0008093C90014C0E091AE05F091AF05E459BC
:101EE000FA4F20818091AE059091AF0501968F73D6
:101EF00099279093AF058093AE052093CE00FF9174
:101F0000EF919F918F913F912F910F900BBE0F906A
:101F10000FBE0F901F9018951F920F920FB60F9241
:101F200011240BB60F922F933F938F939F93EF93B0
:101F3000FF932091240530912505809126059091ED
:101F400027052817390731F48091D1008F7D8093C0
:101F5000D10014C0E0912605F0912705EC51FB4F0C
:101F60002081809126059091270501968F739927EE
:101F700090932705809326052093D600FF91EF913B
:101F80009F918F913F912F910F900BBE0F900FBE9D
:101F90000F901F9018951F920F920FB60F92112459
:101FA0000BB60F922F933F938F939F93EF93FF93D3
:101FB00020919C0430919D0480919E0490919F04F7
:101FC0002817390731F4809131018F7D80933101D9
:101FD00014C0E0919E04F0919F04E45AFB4F2081CD
:101FE00080919E0490919F0401968F7399279093FE
:101FF0009F0480939E0420933601FF91EF919F915F
:102000008F913F912F910F900BBE0F900FBE0F90AD
:102010001F901895CF92DF92EF92FF92CF93DF93AC
:10202000EC016A017B01411581EE580761057105DC
:10203000F9F0EC89FD8981E090E008A002C0880FEA
:10204000991F0A94E2F7808360E079E08DE390E0E5
:10205000A70196010E94311221503109410951090D
:102060005695479537952795211580E1380798F0C3
:10207000EC89FD89108260E874E88EE190E0A701A8
:1020800096010E943112215031094109510956959A
:10209000479537952795E889F9893083EA89FB893F
:1020A000208319A2EE89FF89408181E090E09C01A4
:1020B0000C8C02C0220F331F0A94E2F7422B40839C
:1020C000EE89FF8940819C010D8C02C0220F331FD5
:1020D0000A94E2F7422B4083EE89FF8940819C01FC
:1020E0000E8C02C0220F331F0A94E2F7422B40836A
:1020F000EE89FF8920810F8C02C0880F991F0A94F6
:10210000E2F7809582238083DF91CF91FF90EF905B
:10211000DF90CF900895CF9310923D0410923C042D
:1021200088EE93E0A0E0B0E080933E0490933F04FB
:10213000A0934004B093410425E033E030933B0486
:1021400020933A0448E356E05093470440934604F2
:1021500044EF55E0509349044093480445EC50E067
:1021600050934B0440934A0444EC50E050934D0488
:1021700040934C0440EC50E050934F0440934E0485
:1021800041EC50E0509351044093500442EC50E035
:10219000509353044093520446EC50E0509355043E
:1021A00040935404C4E0C0935604F3E0F093570402
:1021B000E7E0E093580475E07093590461E06093A0
:1021C0005A0410921B0410921A0480931C049093DA
:1021D0001D04A0931E04B0931F0430931904209390
:1021E000180440EB55E050932504409324044CE63A
:1021F00055E050932704409326044DEC50E0509353
:102200002904409328044CEC50E050932B04409355
:102210002A0448EC50E050932D0440932C0449ECE0
:1022200050E050932F0440932E044AEC50E050931A
:102230003104409330044EEC50E05093330440930B
:102240003204C0933404F0933504E0933604709361
:102250003704609338041092F9031092F8038093C6
:10226000FA039093FB03A093FC03B093FD03309318
:10227000F7032093F60348E255E05093030440939C
:10228000020444EE54E0509305044093040445EDE9
:1022900050E0509307044093060444ED50E05093FF
:1022A00009044093080440ED50E050930B04409320
:1022B0000A0441ED50E050930D0440930C0442EDAC
:1022C00050E050930F0440930E0446ED50E05093BD
:1022D000110440931004C0931204F0931304E0938C
:1022E000140470931504609316041092D70310928F
:1022F000D6038093D8039093D903A093DA03B093C5
:10230000DB033093D5032093D40380EA94E09093C9
:10231000E1038093E0038CE594E09093E3038093E2
:10232000E20385E391E09093E5038093E40384E383
:1023300091E09093E7038093E60380E391E090932C
:10234000E9038093E80381E391E09093EB038093AA
:10235000EA0382E391E09093ED038093EC0386E33C
:1023600091E09093EF038093EE03C093F003F0931A
:10237000F103E093F2037093F3036093F403CF91BE
:1023800008954F925F926F927F92AF92BF92CF92D9
:10239000DF92EF92FF920F931F93CF93DF93CDB70E
:1023A000DEB729013A01621B730B840B950B2A8956
:1023B0003B894C895D892A193B094C095D092A8BA7
:1023C0003B8B4C8B5D8B9B01AC016A897B898C8933
:1023D0009D890E941512E418F50806091709A8013D
:1023E00097010E9453122A0D3B1D4C1D5D1DB90122
:1023F000CA01DF91CF911F910F91FF90EF90DF9075
:10240000CF90BF90AF907F906F905F904F90089566
:102410000E94D50A0E942A01CDEEDEE00E94A003B0
:102420002097E1F30E94ED0EF9CFDB018F939F938C
:102430000E946F12BF91AF91A29F800D911DA39F2B
:10244000900DB29F900D11240895991B79E004C05E
:10245000991F961708F0961B881F7A95C9F78095E3
:102460000895A1E21A2EAA1BBB1BFD010DC0AA1FD5
:10247000BB1FEE1FFF1FA217B307E407F50720F0ED
:10248000A21BB30BE40BF50B661F771F881F991F68
:102490001A9469F760957095809590959B01AC01B1
:1024A000BD01CF010895052E97FB16F4009407D0C7
:1024B00057FD0DD00E94311207FC09D07EF4909593
:1024C0008095709561957F4F8F4F9F4F08955095E0
:1024D0004095309521953F4F4F4F5F4F08950E9493
:1024E0007E12A59F900DB49F900DA49F800D911D0D
:1024F000112408950790F691E02D1994A29FB00140
:10250000B39FC001A39F01D0B29F700D811D112404
:08251000911D0895F894FFCF1E
:102518000153657269616C20636F6D6D756E6963D7
:102528006174696F6E2065737461626C6973686544
:10253800640047726162206973206E6F7420676F50
:10254800696E6720746F207475726E2E0044696618
:10255800663A005365636F6E646172792041726DEB
:10256800206973206E6F7420676F696E6720746FBF
:10257800207475726E2E00427265616B00616C6921
:10258800676E696E672061742067616D657461624A
:102598006C652E2E00616C69676E656400776169F1
:1025A80074696E6720666F72206C696768742E2E76
:1025B8002E00476F2100436C696666205369676E79
:1025C800616C3A00526F626F7420436F6D696E6779
:1025D800204261636B00526F626F74206D6F766585
:1025E80020616C6C006C6F6F70696E67002C010065
:1025F800580200B00400600900C0120080250040A5
:102608003800004B0080700000960000E10000C216
:102618000100000000C70D120C690D980D7C0DBC5F
:022628000D00A3
:00000001FF
