:100000000C94F5000C9416010C9416010C94160136
:100010000C9416010C9416010C9416010C94160104
:100020000C9416010C9416010C9416010C941601F4
:100030000C9416010C9416010C9416010C941601E4
:100040000C9416010C9416010C9416010C941601D4
:100050000C9416010C9416010C9416010C942602B3
:100060000C9416010C9416010C9416010C941601B4
:100070000C9416010C9416010C9416010C941601A4
:100080000C9416010C9416010C9416010C94160194
:100090000C9416010C9416010C9416010C94160184
:1000A0000C9416010C9416010C9416010C94160174
:1000B0000C9416010C9416010C9416010C94160164
:1000C0000C9416010C9416010C9416010C94160154
:1000D0000C9416010C9416010C9416010C94160144
:1000E0000C9416010000090A02080B0C0D07060308
:1000F00004010000000000000000000000000000FB
:1001000000000000000000000000000000000000EF
:1001100011100F00000000000000000000000000AF
:100120000000000000000000000001021020200874
:100130000810204010204080020102010804020142
:1001400001020408102040808040201008040201B1
:10015000800402018040201008040201080402010A
:100160000102040810204080010204081020408091
:1001700005050505070508080808020202020A0A23
:100180000808040404040101010101010101030341
:10019000030303030303040707070C0C0C0C0C0CEC
:1001A0000C0C0202020206060606060606060B0BE9
:1001B0000B0B0B0B0B0B00002200250028002B0063
:1001C0002E003100340002010000050108010B017E
:1001D00000002100240027002A002D0030003300F9
:1001E00001010000040107010A0111241FBECFEF25
:1001F000D1E2DEBFCDBF00E00CBF12E0A0E0B2E074
:10020000E8E1F8E000E00BBF02C007900D92A030DB
:10021000B107D9F712E0A0E0B2E001C01D92A93009
:10022000B107E1F70E94FD030C940A040C9400004E
:1002300061E082E00E948E0361E086E10E948E030D
:1002400061E087E10C948E0361E086E10E94C603C1
:1002500060E087E10E94C6036FEF70E082E00E94D9
:100260004A0168EE73E080E090E00E949A0260E04C
:1002700086E10E94C60361E087E10E94C6036FEF3A
:1002800070E082E00E944A0168EE73E080E090E056
:100290000C949A021F93CF93DF93182FEB0161E028
:1002A0000E948E03209711F460E004C0CF3FD10577
:1002B00039F461E0812FDF91CF911F910C94C60337
:1002C000E12FF0E0EC51FF4FE491E93009F460C018
:1002D00098F4E430C9F138F4E23039F158F5E130FE
:1002E00009F0ABC01DC0E73009F440C008F046C0BB
:1002F000E63009F0A2C032C0ED3009F476C030F427
:10030000EB3009F459C008F066C04CC0E03109F484
:1003100080C0E13109F487C0EF3009F08EC06FC0B2
:1003200084B5806884BDC7BD8DC084B5806284BD3E
:10033000C8BD88C080918000806880938000D09381
:100340008900C09388007EC0809180008062809385
:100350008000D0938B00C0938A0074C08091B0005D
:1003600080688093B000C093B3006CC08091B000EF
:1003700080628093B000C093B40064C0809190000C
:10038000806880939000D0939900C09398005AC0E1
:1003900080919000806280939000D0939B00C093E6
:1003A0009A0050C080919000886080939000D09314
:1003B0009D00C0939C0046C08091A00080688093FF
:1003C000A0008091A0008F7B8093A000D093A90013
:1003D000C093A80037C08091A00080628093A000E5
:1003E000D093AB00C093AA002DC08091A00088607C
:1003F0008093A000D093AD00C093AC0023C0809147
:100400002001806880932001D0932901C0932801A6
:1004100019C080912001806280932001D0932B012C
:10042000C0932A010FC08091200188608093200131
:10043000D0932D01C0932C0105C0C038D1050CF01C
:1004400038CF32CFDF91CF911F9108951F920F9235
:100450000FB60F9211242F933F938F939F93AF93D7
:10046000BF938091000290910102A0910202B0918D
:10047000030230910802232F2D5F2D3720F40196BF
:10048000A11DB11D05C0232F2A570296A11DB11D24
:10049000209308028093000290930102A09302022D
:1004A000B09303028091040290910502A09106028C
:1004B000B09107020196A11DB11D80930402909393
:1004C0000502A0930602B0930702BF91AF919F91DE
:1004D0008F913F912F910F900FBE0F901F90189505
:1004E0000F931F939FB7F894009104021091050297
:1004F000209106023091070286B5A89B06C08F3F67
:1005000021F00F5F1F4F2F4F3F4F9FBF322F212FE3
:10051000102F0027080F111D211D311D42E0000F73
:10052000111F221F331F4A95D1F7B801C9011F912E
:100530000F910895CF92DF92EF92FF92CF93DF93C6
:100540006B017C010E947002EB010EC00E947002E0
:100550006C1B7D0B683E734038F081E0C81AD108EF
:10056000E108F108C851DC4FC114D104E104F104E1
:1005700069F7DF91CF91FF90EF90DF90CF900895D2
:10058000789484B5826084BD84B5816084BD85B56E
:10059000826085BD85B5816085BDEEE6F0E0808135
:1005A00081608083E1E8F0E0108280818260808356
:1005B000808181608083E0E8F0E0808181608083D9
:1005C000E1EBF0E0808184608083E0EBF0E080810B
:1005D00081608083E1E9F0E08081826080838081B6
:1005E00081608083E0E9F0E0808181608083E1EADE
:1005F000F0E0808182608083808181608083E0EA96
:10060000F0E0808181608083E1E2F1E080818260BE
:100610008083808181608083E0E2F1E0808181607D
:100620008083EAE7F0E0808184608083808182605B
:100630008083808181608083808180688083109244
:10064000C1000895893009F443C088F4843029F149
:1006500038F4823059F1E8F4813009F05EC023C0EB
:10066000873061F188F5863009F057C023C08D309E
:1006700009F440C020F48B30A9F1C0F52DC08031C1
:1006800009F442C0813109F443C08F3009F045C0FC
:1006900037C0809180008F7703C0809180008F7D6C
:1006A00080938000089584B58F7702C084B58F7DD4
:1006B00084BD08958091B0008F7703C08091B00011
:1006C0008F7D8093B0000895809190008F7707C050
:1006D000809190008F7D03C080919000877F8093F0
:1006E000900008958091A0008F7707C08091A000AE
:1006F0008F7D03C08091A000877F8093A000089524
:10070000809120018F7707C0809120018F7D03C0E9
:1007100080912001877F809320010895CF93DF93FC
:1007200090E0FC01E65DFE4F4491FC01E059FE4F74
:100730008491882341F190E0880F991FFC01E053D8
:10074000FE4F25913491D9018A549E4FFC01859129
:100750009491C82FD92F9FB7F8948C91611106C03E
:10076000409584238C938881842308C0623041F4AF
:10077000242F209582238C938881842B888302C028
:10078000842B8C939FBFDF91CF9108950F931F937C
:10079000CF93DF931F92CDB7DEB7282F30E0F9015A
:1007A000EC51FF4F8491F901E65DFE4F1491F90180
:1007B000E059FE4F04910023D1F0882321F0698392
:1007C0000E9422036981E02FF0E0EE0FFF1FEA5440
:1007D000FE4F85919491DC019FB7F8948C91611143
:1007E00003C01095812301C0812B8C939FBF0F9074
:1007F000DF91CF911F910F9108950E94C0020E9436
:100800001801C0E0D0E00E9424012097E1F30E948B
:080810000000F9CFF894FFCFBE
:00000001FF
