:100000000C94F7000C9428010C9428010C942801FE
:100010000C9428010C9428010C9428010C942801BC
:100020000C9428010C9428010C9428010C942801AC
:100030000C9428010C9428010C9428010C9428019C
:100040000C9428010C94D3040C9428010C942801DE
:100050000C9428010C9428010C9428010C943C0762
:100060000C9428010C94390B0C94290C0C94280145
:100070000C9428010C9428010C9428010C9428015C
:100080000C9401050C9428010C9428010C9428016F
:100090000C946D0B0C94680C0C9428010C942801A2
:1000A0000C9428010C9428010C942F050C94280121
:1000B0000C9428010C9428010C9428010C945D05E3
:1000C0000C9428010C9428010C9428010C94A10B89
:1000D0000C94A70C0C9428010C94D50B0C94E60CF2
:1000E0000C9428010000090A02080B0C0D070603F6
:1000F00004010000000000000000000000000000FB
:1001000000000000000000000000000000000000EF
:1001100011100F00000000000000000000000000AF
:100120000000000000000000000001021020200874
:100130000810204010204080020102010804020142
:1001400001020408102040808040201008040201B1
:10015000800402018040201008040201080402010A
:100160000102040810204080010204081020408091
:1001700005050505070508080808020202020A0A23
:100180000808040404040101010101010101030341
:10019000030303030303040707070C0C0C0C0C0CEC
:1001A0000C0C0202020206060606060606060B0BE9
:1001B0000B0B0B0B0B0B00002200250028002B0063
:1001C0002E003100340002010000050108010B017E
:1001D00000002100240027002A002D0030003300F9
:1001E00001010000040107010A013403A60D1124D6
:1001F0001FBECFEFD1E2DEBFCDBF00E00CBF14E0E9
:10020000A0E0B2E0EEE4FFE100E00BBF02C0079027
:100210000D92A436B107D9F717E0A4E6B4E001C007
:100220001D92AE3CB107E1F711E0CEEED1E000E067
:1002300006C022970109FE010BBF0E94950FCA3E1E
:10024000D10780E00807A9F70E94230F0C94A50F9F
:100250000C94000040E855E260E070E08CE895E026
:100260000E94250D61E072E08CE895E00E94820911
:1002700027E130E046E150E062E070E08CE694E097
:100280000E94F20629E130E048E150E063E070E0CE
:1002900086E694E00E94F20664E070E08BE794E06A
:1002A0000E945A0660E570E08BE794E00E94930696
:1002B00065E070E088E794E00E945A066FE570E020
:1002C00088E794E00E94930666E070E085E794E09A
:1002D0000E945A0667E370E085E794E00E94930667
:1002E00067E070E082E794E00E945A066EE170E0F9
:1002F00082E794E00E94930667E372E08CE895E061
:100300000E9482098EE794E00E947D038EE794E0CC
:100310000C949003AF92BF92CF92DF92EF92FF9234
:100320000F931F9388E30E941307BC01882777FD72
:100330008095982F1F921F921F9223E72F9323EAF5
:10034000A22EBB24BA94CB2CDB2C1CEAE12E12E0AB
:10035000F12E00E010E020E030E0A9010E94DC0E68
:100360000F900F900F900F90CB011F910F91FF9066
:10037000EF90DF90CF90BF90AF900895AF92BF9273
:10038000CF92DF92EF92FF920F931F9387E30E9429
:100390001307BC01882777FD8095982F1F921F9225
:1003A0001F922CE62F934EE9A42EBB24BA94CB2C9B
:1003B000DB2C1CEAE12E12E0F12E00E010E020E040
:1003C00030E0A9010E94DC0E0F900F900F900F906B
:1003D000CB011F910F91FF90EF90DF90CF90BF90D6
:1003E000AF9008958F929F92AF92BF92CF92DF927B
:1003F000EF92FF920F931F93CF93DF93CDB7DEB7AA
:10040000E4970FB6F894DEBF0FBECDBF0E948A01FD
:100410006C010E94BE018C0188E30E9413075C01FD
:1004200087E30E9413077C0186E30E9413074C01B7
:1004300062E772E08CE895E00E9482096FE972E061
:100440008CE895E00E9463094AE050E0B4018CE832
:1004500095E00E946A0A6DEA72E08CE895E00E94DD
:1004600063094AE050E0B5018CE895E00E94620A19
:1004700067EB72E08CE895E00E9463094AE050E087
:10048000B6018CE895E00E946A0A6FEB72E08CE896
:1004900095E00E9463094AE050E0B7018CE895E0DE
:1004A0000E94620A67EB72E08CE895E00E946309A3
:1004B0004AE050E0B8018CE895E00E946A0A24E323
:1004C000AE014F5F5F4F66E08EE794E00E94DC0371
:1004D000882309F4A8C068EC72E08CE895E00E94DB
:1004E000820965EF72E08CE895E00E9463096981FA
:1004F000629561704AE050E070E08CE895E00E94FF
:100500006A0A6BE073E08CE895E00E9463096981F8
:1005100063FB662760F94AE050E070E08CE895E004
:100520000E946A0A6FE173E08CE895E00E9463091B
:10053000698162FB662760F94AE050E070E08CE870
:1005400095E00E946A0A64E373E08CE895E00E94FB
:1005500063096981669561704AE050E070E08CE85B
:1005600095E00E946A0A62E473E08CE895E00E94DC
:100570006309698161704AE050E070E08CE895E0C1
:100580000E946A0A61E573E08CE895E00E946309C5
:100590007D8D60E08E8D682B70936504609364049C
:1005A0004AE050E08CE895E00E94FF0967E773E0BD
:1005B0008CE895E00E9463097F8D60E088A1682B3C
:1005C00070936504609364044AE050E08CE895E021
:1005D0000E94FF0963EA73E08CE895E00E946309DA
:1005E00079A160E08AA1682B70936504609364042C
:1005F0004AE050E08CE895E00E94FF0960ED73E06E
:100600008CE895E00E9463097BA160E08CA1682BD7
:1006100070936504609364044AE050E08CE895E0D0
:100620000E94FF0906C067EF73E08CE895E00E9426
:100630008209E4960FB6F894DEBF0FBECDBFDF91FE
:10064000CF911F910F91FF90EF90DF90CF90BF90CF
:10065000AF909F908F9008950E94F20168EE73E032
:1006600080E090E00C94C2074AE050E06AE675E052
:100670008EE794E00E945B038BE794E00E948B0579
:1006800088E794E00E948B0585E794E00E948B0543
:1006900082E794E00E948B058CE694E00E94F106CC
:1006A00086E694E00C94F106DC01ED91FC9101905A
:1006B000F081E02D1994DC0115967C936E931497CC
:1006C0004C30510570F4FA01EE0FFF1FE40FF51FD7
:1006D000E05DFB4F208131814281642FA90170E0F0
:1006E00004C040E051EE60E070E04D935D936D9387
:1006F0007C93139716961C920895CF93DF93EC0189
:10070000488159816A817B818C819D810E94250D60
:1007100060E870E08C819D81DF91CF910C9454034F
:1007200064E870E0FC01848195810C945403BF92CD
:10073000CF92DF92EF92FF920F931F93CF93DF93AD
:10074000EC018B01B42E29C00E9486076B017C014D
:1007500088ECC80ED11CE11CF11C07C00E94860762
:10076000C616D706E806F906E0F08C819D81DC010B
:10077000ED91FC910480F581E02D1995892B71F3A1
:10078000BA948C819D81DC01ED91FC910680F7810A
:10079000E02D1995F80181938F01B110D5CF81E03B
:1007A00001C080E0DF91CF911F910F91FF90EF90FA
:1007B000DF90CF90BF900895CF92DF92FF920F937A
:1007C0001F93CF93DF931F92CDB7DEB76C01F62E48
:1007D0008A016EE870E0DC0114968D919C9115976A
:1007E00029830E945403F60184819581DC01ED91F7
:1007F000FC910190F081E02D6F2D19952981422FF8
:10080000B801C6010F90DF91CF911F910F91FF901A
:10081000DF90CF900C949703EF92FF920F931F936A
:10082000CF93DF938B017A01EC01DC01A757BB4F1B
:100830008C9187FF05C0DB0111961C921E9222C08D
:100840002CE02C9FC0012D9F900D11242C91AC0108
:10085000420F511D27FD5A952091880430E0421720
:10086000530784F42C91FC01E20FF11D27FDFA954A
:100870009F01EE0FFF1FE20FF31FE357FB4F208195
:1008800026FD45C0FE01E757FB4F80818F5F8083C7
:100890002CE02C9FC0012D9F900D11242081AC01D4
:1008A000420F511D27FD5A952091880430E04217D0
:1008B00053070CF03EC020812C300CF442C039C0EC
:1008C0002081820F911D27FD9A95FC01EE0FFF1FDD
:1008D000E80FF91FE357FB4F808161E08F73DF91D1
:1008E000CF911F910F91FF90EF900C94EE0880E450
:1008F0009CE904C0F801808191810496D70111968A
:100900009C938E93C757DB4F8FEF888345C02C9104
:10091000820F911D27FD9A95FC01EE0FFF1FE80F36
:10092000F91FE357FB4F808160E08F730E94EE0850
:10093000A9CFF80180819181049680349C49B8F256
:10094000D9CFD8012D913C914081BC01640F711D1C
:1009500047FD7A95AB01DB01AA0FBB1FA40FB51FA2
:10096000A357BB4F11964D915C911297240F351FE1
:10097000D70111963C932E932081AC01420F511D5B
:1009800027FD5A95DA01AA0FBB1FA40FB51FA35765
:10099000BB4F2C9126FD94CFDF91CF911F910F91EA
:1009A000FF90EF9008951F920F920FB60F921124AF
:1009B0000BB60F922F933F934F935F936F937F9359
:1009C0008F939F93AF93BF93EF93FF9348E850E0CB
:1009D00064E870E081E090E00E940C04FF91EF91E8
:1009E000BF91AF919F918F917F916F915F914F9147
:1009F0003F912F910F900BBE0F900FBE0F901F9045
:100A000018951F920F920FB60F9211240BB60F92EA
:100A10002F933F934F935F936F937F938F939F9306
:100A2000AF93BF93EF93FF9348E950E064E970E020
:100A300082E090E00E940C04FF91EF91BF91AF9192
:100A40009F918F917F916F915F914F913F912F91E6
:100A50000F900BBE0F900FBE0F901F9018951F9216
:100A60000F920FB60F9211240BB60F922F933F9354
:100A70004F935F936F937F938F939F93AF93BF93A6
:100A8000EF93FF9348EA50E064EA70E083E090E07F
:100A90000E940C04FF91EF91BF91AF919F918F91B4
:100AA0007F916F915F914F913F912F910F900BBE6E
:100AB0000F900FBE0F901F9018951F920F920FB6B8
:100AC0000F9211240BB60F922F933F934F935F9386
:100AD0006F937F938F939F93AF93BF93EF93FF9306
:100AE00048E251E064E271E080E090E00E940C0492
:100AF000FF91EF91BF91AF919F918F917F916F91F6
:100B00005F914F913F912F910F900BBE0F900FBEB1
:100B10000F901F901895209188042033A0F4FC01B9
:100B20002083822F8F5F80938804822F90E0FC01C6
:100B3000EE0FFF1FE80FF91FE357FB4F88EB9BE019
:100B40009283818308952FEFFC0120830895DF9223
:100B5000EF92FF920F931F93CF93DF93EC01D62E6A
:100B60007A0189018881803308F094C061E08D2D7D
:100B70000E94B6088881A82FB0E0FD01EE0FFF1F8C
:100B8000EA0FFB1FE357FB4F2D2D2F739081907CB5
:100B9000922B908360E272E06E197F0977FF02C0AA
:100BA0006D5F7F4F7595679575956795698340E68D
:100BB00059E0401B510B57FF02C04D5F5F4F5595E9
:100BC0004795559547954A836CE00E94400F9CE0FD
:100BD000899FB001112420E030E0A901460F571F82
:100BE000FA01EE0FFF1FE40FF51FE357FB4F908153
:100BF00096FD44C02F5F3F4F2C30310571F74CC03C
:100C00001092800082E08093810010928500109203
:100C10008400B19A80916F00826080936F002EC033
:100C20008230910569F41092900082E080939100E7
:100C3000109295001092940088BB809371001EC0A2
:100C40008330910569F41092A00082E08093A100A6
:100C50001092A5001092A40089BB809372000EC070
:100C6000892B61F41092200182E08093210110927F
:100C70002501109224018ABB80937300888190E043
:100C8000FC01EE0FFF1FE80FF91FE357FB4F8081B8
:100C900080648083888106C090E08130910509F0EE
:100CA000BFCFAECFDF91CF911F910F91FF90EF900B
:100CB000DF90089520E639E040E252E00C94A70569
:100CC000FC018081803370F5918128E830E0291B98
:100CD000310997FD3395220F331F220F331F6217FF
:100CE00073077CF0928128E532E0291B310997FDDA
:100CF0003395220F331F220F331F621773070CF433
:100D00009B014FB7F89490E0FC01EE0FFF1FE80F36
:100D1000F91FE357FB4F22503109220F331F328353
:100D200021834FBF0895AF92BF92CF92DF92EF928F
:100D3000FF920F931F93CF93DF93EC01603282E019
:100D400078070CF041C077FD04C0653B710524F4C1
:100D500005C060E070E002C064EB70E0298188E8C3
:100D600090E0821B910927FD9395880F991F880FAA
:100D7000991F5C01CC24B7FCC094DC2C882777FD3C
:100D80008095982F2A8148E552E0421B510927FDA2
:100D90005395440F551F440F551F8A01222717FDF5
:100DA0002095322F3F932F931F930F9314EBE12E37
:100DB000F12C00E010E020E030E0A9010E94DC0E00
:100DC0000F900F900F900F90CE01DF91CF911F9158
:100DD0000F91FF90EF90DF90CF90BF90AF900C9469
:100DE00060060895CF93DF931F921F92CDB7DEB7B1
:100DF000FC01862F60837183428353832483358370
:100E000061E02A8349830E94B60861E04981842F0A
:100E10000E94B60861E02A81822F0F900F90DF9127
:100E2000CF910C94B608863308F0865320917B004E
:100E3000982F9870277F922B90937B00877020913A
:100E4000000240E4249F90011124822B80937C00B7
:100E500080917A00806480937A0080917A0086FD88
:100E6000FCCF2091780030917900932F80E0AC0185
:100E7000422B9A01C90108951F920F920FB60F924B
:100E800011242F933F938F939F93AF93BF938091A0
:100E90001D0590911E05A0911F05B0912005309170
:100EA0002505232F2D5F2D3720F40196A11DB11D9F
:100EB00005C0232F2A570296A11DB11D2093250599
:100EC00080931D0590931E05A0931F05B0932005E8
:100ED0008091210590912205A0912305B0912405D0
:100EE0000196A11DB11D8093210590932205A09329
:100EF0002305B0932405BF91AF919F918F913F91AE
:100F00002F910F900FBE0F901F9018950F931F9366
:100F10008FB7F89400911D0510911E0520911F05B3
:100F2000309120058FBFB801C9011F910F9108951D
:100F30000F931F939FB7F8940091210510912205FC
:100F4000209123053091240586B5A89B06C08F3FCC
:100F500021F00F5F1F4F2F4F3F4F9FBF322F212F89
:100F6000102F0027080F111D211D311D42E0000F19
:100F7000111F221F331F4A95D1F7B801C9011F91D4
:100F80000F910895CF92DF92EF92FF92CF93DF936C
:100F90006B017C010E949807EB010EC00E9498072C
:100FA0006C1B7D0B683E734038F081E0C81AD10895
:100FB000E108F108C851DC4FC114D104E104F10487
:100FC00069F7DF91CF91FF90EF90DF90CF90089578
:100FD000789484B5826084BD84B5816084BD85B514
:100FE000826085BD85B5816085BDEEE6F0E08081DB
:100FF00081608083E1E8F0E01082808182608083FC
:10100000808181608083E0E8F0E08081816080837E
:10101000E1EBF0E0808184608083E0EBF0E08081B0
:1010200081608083E1E9F0E080818260808380815B
:1010300081608083E0E9F0E0808181608083E1EA83
:10104000F0E0808182608083808181608083E0EA3B
:10105000F0E0808181608083E1E2F1E08081826064
:101060008083808181608083E0E2F1E08081816023
:101070008083EAE7F0E08081846080838081826001
:1010800080838081816080838081806880831092EA
:10109000C1000895893009F443C088F4843029F1EF
:1010A00038F4823059F1E8F4813009F05EC023C091
:1010B000873061F188F5863009F057C023C08D3044
:1010C00009F440C020F48B30A9F1C0F52DC0803167
:1010D00009F442C0813109F443C08F3009F045C0A2
:1010E00037C0809180008F7703C0809180008F7D12
:1010F00080938000089584B58F7702C084B58F7D7A
:1011000084BD08958091B0008F7703C08091B000B6
:101110008F7D8093B0000895809190008F7707C0F5
:10112000809190008F7D03C080919000877F809395
:10113000900008958091A0008F7707C08091A00053
:101140008F7D03C08091A000877F8093A0000895C9
:10115000809120018F7707C0809120018F7D03C08F
:1011600080912001877F809320010895CF93DF93A2
:1011700090E0FC01E65DFE4F4491FC01E059FE4F1A
:101180008491882341F190E0880F991FFC01E0537E
:10119000FE4F25913491D9018A549E4FFC018591CF
:1011A0009491C82FD92F9FB7F8948C91611106C0E4
:1011B000409584238C938881842308C0623041F455
:1011C000242F209582238C938881842B888302C0CE
:1011D000842B8C939FBFDF91CF9108950F931F9322
:1011E000CF93DF931F92CDB7DEB7282F30E0F90100
:1011F000EC51FF4F8491F901E65DFE4F1491F90126
:10120000E059FE4F04910023D1F0882321F0698337
:101210000E944A086981E02FF0E0EE0FFF1FEA54B8
:10122000FE4F85919491DC019FB7F8948C916111E8
:1012300003C01095812301C0812B8C939FBF0F9019
:10124000DF91CF911F910F910895CF92DF92EF928E
:10125000FF920F931F93CF93DF936C01EB017A0101
:10126000E60EF71E00E010E00BC06991D601ED918B
:10127000FC910190F081E02DC6011995080F191F0E
:10128000CE15DF0591F7C801DF91CF911F910F9126
:10129000FF90EF90DF90CF9008956115710581F078
:1012A000DB010D900020E9F7AD0141505109461BCB
:1012B000570BDC01ED91FC910280F381E02D199434
:1012C00080E090E008950C944D09DC01ED91FC91D3
:1012D0000190F081E02D19940F931F93CF93DF932A
:1012E000EC016DE00E9465098C016AE0CE010E946C
:1012F00065099C01200F311FC901DF91CF911F911A
:101300000F9108950F931F93CF93DF93EC010E94E9
:101310004D098C01CE010E946C099801280F391FDC
:10132000C901DF91CF911F910F9108954F925F9264
:101330006F927F929F92AF92BF92CF92DF92EF9285
:10134000FF920F931F93CF93DF93CDB7DEB7A19793
:101350000FB6F894DEBF0FBECDBF5C016A017B0102
:10136000922E19A281E0821710F08AE0982E8E0149
:101370000F5D1F4F492C512C612C712CC701B601F8
:10138000A30192010E944C0F8C2D929E8019112472
:10139000015011098A3014F4805D01C0895CF801A4
:1013A000808369017A01C114D104E104F10431F7A9
:1013B000B801C5010E944D09A1960FB6F894DEBF91
:1013C0000FBECDBFDF91CF911F910F91FF90EF9096
:1013D000DF90CF90BF90AF909F907F906F905F9085
:1013E0004F9008952115310541F4DC01ED91FC91F8
:1013F0000190F081E02D642F19940C9496090F93BD
:101400001F93CF93DF93EC019A01AB0160E070E092
:101410000E94F2098C01CE010E946C099801280FEC
:10142000391FC901DF91CF911F910F910895CF927C
:10143000DF92EF92FF920F931F93CF93DF93EC0114
:101440006A017B012115310579F4E881F981019068
:10145000F081E02D642FDF91CF911F910F91FF90CC
:10146000EF90DF90CF9019942A30310519F477FD71
:101470000EC02AE0B701A601CE01DF91CF911F91E6
:101480000F91FF90EF90DF90CF900C9496096DE252
:101490000E9465098C0144275527BA014C195D0942
:1014A0006E097F092AE0CE010E949609080F191FD4
:1014B000C801DF91CF911F910F91FF90EF90DF90C6
:1014C000CF9008959A01AB01662757FD6095762F5E
:1014D0000C94170A0F931F93CF93DF93EC019A019B
:1014E000AB01662757FD6095762F0E94170A8C0185
:1014F000CE010E946C099801280F391FC901DF91A4
:10150000CF911F910F910895FC0184859585FC0171
:10151000E05CFF4F20813181FC01EE5BFF4F808159
:101520009181281B390B2F733327C9010895FC01C2
:1015300084859585FC01E05CFF4F40815181FC0171
:10154000EE5BFF4F208131814217530741F001903C
:10155000F081E02DE80FF91F208130E002C02FEF6D
:101560003FEFC9010895FC0184859585FC01E05C8D
:10157000FF4F40815181FC01EE5BFF4F20813181A3
:101580004217530781F0A081B181A80FB91F8C9138
:10159000208131812F5F3F4F2F7333273183208389
:1015A000282F30E002C02FEF3FEFC9010895FC0162
:1015B00081A1882329F0A489B5898C9186FFFBCF6E
:1015C00011A20895CF93DF93FC0126853785D901B9
:1015D000A05CBF4F8D919C91119701968F739927B5
:1015E000E901CE5BDF4F4881598184179507D9F314
:1015F0000D90BC91A02DA20FB31F6C93A685B7854B
:10160000A05CBF4F11969C938E93A689B7892C91AD
:1016100081E090E0078C02C0880F991F0A94E2F7DE
:10162000282B2C9381E081A30488F589E02D80810B
:101630008064808381E090E0DF91CF910895FB0189
:10164000E05CFF4F208131812F5F3F4F2F733327A5
:10165000DB01AE5BBF4F4D915C912417350739F02C
:10166000A081B181A60FB71F8C9331832083089589
:1016700008951F920F920FB60F9211240BB60F927E
:101680002F933F934F935F936F937F938F939F938A
:10169000AF93BF93EF93FF938091C00082FD07C08B
:1016A0008091C6006AE877E00E941F0B02C080911B
:1016B000C600FF91EF91BF91AF919F918F917F9164
:1016C0006F915F914F913F912F910F900BBE0F90B3
:1016D0000FBE0F901F90189508951F920F920FB68E
:1016E0000F9211240BB60F922F933F934F935F935A
:1016F0006F937F938F939F93AF93BF93EF93FF93DA
:101700008091C80082FD07C08091CE0062E077E042
:101710000E941F0B02C08091CE00FF91EF91BF91FC
:10172000AF919F918F917F916F915F914F913F9179
:101730002F910F900BBE0F900FBE0F901F9018951A
:1017400008951F920F920FB60F9211240BB60F92AD
:101750002F933F934F935F936F937F938F939F93B9
:10176000AF93BF93EF93FF938091D00082FD07C0AA
:101770008091D6006AE776E00E941F0B02C080913C
:10178000D600FF91EF91BF91AF919F918F917F9183
:101790006F915F914F913F912F910F900BBE0F90E2
:1017A0000FBE0F901F90189508951F920F920FB6BD
:1017B0000F9211240BB60F922F933F934F935F9389
:1017C0006F937F938F939F93AF93BF93EF93FF9309
:1017D0008091300182FD07C08091360162EF75E093
:1017E0000E941F0B02C080913601FF91EF91BF91C3
:1017F000AF919F918F917F916F915F914F913F91A9
:101800002F910F900BBE0F900FBE0F901F90189549
:101810008CE895E00E94840A892B11F00E94380B15
:101820008AE695E00E94840A892B11F00E946C0BD5
:1018300088E495E00E94840A892B11F00E94A00B95
:1018400086E295E00E94840A892B11F00C94D40B57
:1018500008951F920F920FB60F9211240BB60F929C
:101860002F933F938F939F93EF93FF93209186073E
:101870003091870780918807909189072817390749
:1018800031F48091C1008F7D8093C10014C0E0913C
:101890008807F0918907EA5BF84F208180918807DB
:1018A0009091890701968F73992790938907809368
:1018B00088072093C600FF91EF919F918F913F91F0
:1018C0002F910F900BBE0F900FBE0F901F90189589
:1018D0001F920F920FB60F9211240BB60F922F93F7
:1018E0003F938F939F93EF93FF932091FE06309148
:1018F000FF0680910007909101072817390731F4FE
:101900008091C9008F7D8093C90014C0E0910007C9
:10191000F0910107E254F94F2081809100079091E6
:10192000010701968F739927909301078093000711
:101930002093CE00FF91EF919F918F913F912F9136
:101940000F900BBE0F900FBE0F901F9018951F9217
:101950000F920FB60F9211240BB60F922F933F9355
:101960008F939F93EF93FF932091760630917706A4
:1019700080917806909179062817390731F4809183
:10198000D1008F7D8093D10014C0E0917806F09152
:101990007906EA5CF94F208180917806909179066A
:1019A00001968F73992790937906809378062093F8
:1019B000D600FF91EF919F918F913F912F910F90C2
:1019C0000BBE0F900FBE0F901F9018951F920F9295
:1019D0000FB60F9211240BB60F922F933F938F9354
:1019E0009F93EF93FF932091EE053091EF05809147
:1019F000F0059091F1052817390731F480913101F4
:101A00008F7D8093310114C0E091F005F091F105D4
:101A1000E255FA4F20818091F0059091F1050196F1
:101A20008F7399279093F1058093F00520933601E9
:101A3000FF91EF919F918F913F912F910F900BBE4E
:101A40000F900FBE0F901F901895CF92DF92EF92DC
:101A5000FF92CF93DF93EC016A017B01411581EE88
:101A6000580761057105F9F0EC89FD8981E090E086
:101A700008A002C0880F991F0A94E2F7808360E0F3
:101A800079E08DE390E0A70196010E944C0F215070
:101A900031094109510956954795379527952115E3
:101AA00080E1380798F0EC89FD89108260E874E8DD
:101AB0008EE190E0A70196010E944C0F2150310960
:101AC000410951095695479537952795E889F98930
:101AD0003083EA89FB89208319A2EE89FF8940813E
:101AE00081E090E09C010C8C02C0220F331F0A940D
:101AF000E2F7422B4083EE89FF8940819C010D8CE7
:101B000002C0220F331F0A94E2F7422B4083EE8972
:101B1000FF8940819C010E8C02C0220F331F0A9462
:101B2000E2F7422B4083EE89FF8920810F8C02C0AF
:101B3000880F991F0A94E2F7809582238083DF91B2
:101B4000CF91FF90EF90DF90CF900895CF931092B8
:101B50008F0510928E0588EE93E0A0E0B0E08093B0
:101B6000900590939105A0939205B093930528E575
:101B700034E030938D0520938C054AE857E050936C
:101B800099054093980546E457E050939B05409390
:101B90009A0545EC50E050939D0540939C0544EC1C
:101BA00050E050939F0540939E0540EC50E05093C9
:101BB000A1054093A00541EC50E05093A30540934C
:101BC000A20542EC50E05093A5054093A40546ECD5
:101BD00050E05093A7054093A605C4E0C093A80524
:101BE000F3E0F093A905E7E0E093AA0575E07093B0
:101BF000AB0561E06093AC0510926D0510926C0529
:101C000080936E0590936F05A0937005B093710556
:101C100030936B0520936A0542E057E050937705B7
:101C2000409376054EEB56E0509379054093780546
:101C30004DEC50E050937B0540937A054CEC50E01E
:101C400050937D0540937C0548EC50E050937F0510
:101C500040937E0549EC50E0509381054093800508
:101C60004AEC50E050938305409382054EEC50E0DF
:101C70005093850540938405C0938605F0938705AE
:101C8000E09388057093890560938A0510924B054F
:101C900010924A0580934C0590934D05A0934E05F4
:101CA000B0934F0530934905209348054AE756E025
:101CB000509355054093540546E356E0509357051D
:101CC0004093560545ED50E0509359054093580513
:101CD00044ED50E050935B0540935A0540ED50E0D1
:101CE00050935D0540935C0541ED50E050935F05D6
:101CF00040935E0542ED50E05093610540936005CE
:101D000046ED50E05093630540936205C09364052F
:101D1000F0936505E0936605709367056093680529
:101D2000109229051092280580932A0590932B057F
:101D3000A0932C05B0932D053093270520932605FD
:101D400082EF95E090933305809332058EEA95E01B
:101D5000909335058093340585E391E090933705A2
:101D60008093360584E391E090933905809338059C
:101D700080E391E090933B0580933A0581E391E005
:101D800090933D0580933C0582E391E090933F055D
:101D900080933E0586E391E0909341058093400552
:101DA000C0934205F0934305E093440570934505C5
:101DB00060934605CF9108954F925F926F927F9204
:101DC000AF92BF92CF92DF92EF92FF920F931F9349
:101DD000CF93DF93CDB7DEB729013A01621B730BB6
:101DE000840B950B2A893B894C895D892A193B090B
:101DF0004C095D092A8B3B8B4C8B5D8B9B01AC01A5
:101E00006A897B898C899D890E94300FE418F508C6
:101E100006091709A80197010E946E0F2A0D3B1DA4
:101E20004C1D5D1DB901CA01DF91CF911F910F912A
:101E3000FF90EF90DF90CF90BF90AF907F906F902A
:101E40005F904F9008950E94E8070E942A01C8E021
:101E5000DCE00E942C032097E1F30E94080CF9CFEC
:101E6000DB018F939F930E948A0FBF91AF91A29F36
:101E7000800D911DA39F900DB29F900D1124089588
:101E8000991B79E004C0991F961708F0961B881FCC
:101E90007A95C9F780950895A1E21A2EAA1BBB1B5B
:101EA000FD010DC0AA1FBB1FEE1FFF1FA217B30726
:101EB000E407F50720F0A21BB30BE40BF50B661F3C
:101EC000771F881F991F1A9469F760957095809500
:101ED00090959B01AC01BD01CF010895052E97FBA4
:101EE00016F4009407D057FD0DD00E944C0F07FC4C
:101EF00009D07EF490958095709561957F4F8F4FB6
:101F00009F4F089550954095309521953F4F4F4FE5
:101F10005F4F08950E94990FA59F900DB49F900D5B
:101F2000A49F800D911D112408950790F691E02D36
:101F30001994A29FB001B39FC001A39F01D0B29F8B
:0E1F4000700D811D1124911D0895F894FFCF9E
:101F4E000153657269616C20636F6D6D756E6963A7
:101F5E006174696F6E2065737461626C6973686514
:101F6E00642C77616974696E6720666F7220636F87
:101F7E006D6D616E647300526F626F7420706F735B
:101F8E006974696F6E20696E6974616C69736564DA
:101F9E000047726162206973206E6F7420676F69EB
:101FAE006E6720746F207475726E2E0044696666BB
:101FBE003A000A0A23232323232323232323232321
:101FCE0023232323232323232323232323232323D3
:101FDE002323232323232323232323232323004CBD
:101FEE00696768742073656E736F723A0047726129
:101FFE0062097261773A0009616E676C653A004159
:10200E00726D097261773A000A69526F626F7420BD
:10201E00437265617465205061636B657420362070
:10202E002846756C6C292053656E736F722044615F
:10203E007461200A002A20576865656C64726F709F
:10204E002D204361737465723A20002A205768650B
:10205E00656C64726F702D204C6566743A20002A90
:10206E0020576865656C64726F702D2052696768C1
:10207E00743A20002A2042756D70204C6566743AC1
:10208E0020002A2042756D702052696768743A20CC
:10209E0000436C696666204C656674205369676EF2
:1020AE00616C20537472656E6774682028302D340D
:1020BE00303935293A2000436C6966662046726FC6
:1020CE006E74204C656674205369676E616C205384
:1020DE007472656E6774682028302D343039352956
:1020EE003A2000436C6966662046726F6E74205209
:1020FE0069676874205369676E616C2053747265EA
:10210E006E6774682028302D34303935293A200016
:10211E00436C696666205269676874205369676EFE
:10212E00616C20537472656E6774682028302D348C
:10213E00303935293A2000526F6F6D626120536538
:10214E006E736F7273204572726F72005365636F98
:10215E006E646172792041726D206973206E6F74A6
:10216E0020676F696E6720746F207475726E2E0013
:10217E002C0100580200B00400600900C01200805B
:10218E002500403800004B0080700000960000E1F2
:10219E000000C20100000000E20A2509840AB30A09
:0421AE00970AD70AAB
:00000001FF
