:100000000C94EA000C941B010C941B010C941B0132
:100010000C941B010C941B010C941B010C941B01F0
:100020000C941B010C941B010C941B010C941B01E0
:100030000C941B010C941B010C941B010C941B01D0
:100040000C941B010C94EA020C941B010C941B01F0
:100050000C941B010C941B010C941B010C94BF030A
:100060000C941B010C9482060C9472070C941B01D7
:100070000C941B010C941B010C941B010C941B0190
:100080000C9418030C941B010C941B010C941B0181
:100090000C94B6060C94B1070C941B010C941B0134
:1000A0000C941B010C941B010C9446030C941B0133
:1000B0000C941B010C941B010C941B010C947403F5
:1000C0000C941B010C941B010C941B010C94EA066C
:1000D0000C94F0070C941B010C941E070C942F0831
:1000E0000C941B010000090A02080B0C0D07060303
:1000F00004010000000000000000000000000000FB
:1001000000000000000000000000000000000000EF
:1001100011100F00000000000000000000000000AF
:100120000000000000000000000001021020200874
:100130000810204010204080020102010804020142
:1001400001020408102040808040201008040201B1
:10015000800402018040201008040201080402010A
:100160000102040810204080010204081020408091
:1001700005050505070508080808020202020A0A23
:100180000808040404040101010101010101030341
:10019000030303030303040707070C0C0C0C0C0CEC
:1001A0000C0C0202020206060606060606060B0BE9
:1001B0000B0B0B0B0B0B00002200250028002B0063
:1001C0002E003100340002010000050108010B017E
:1001D0006301EF0811241FBECFEFD1E2DEBFCDBF18
:1001E00000E00CBF12E0A0E0B2E0E4EBF4E100E0DC
:1001F0000BBF02C007900D92A635B107D9F715E0E5
:10020000A6E5B2E001C01D92AB3BB107E1F711E0FA
:10021000C4EDD1E000E006C022970109FE010BBF4A
:100220000E94540AC03DD10780E00807A9F70E9448
:10023000250A0C94580A0C94000040E051EE60E04E
:1002400070E089E793E00E946E0860E072E089E761
:1002500093E00E94B9058BE692E00E94AF018BE625
:1002600092E00C94C2014FEF5FEF65ED70E08BE61A
:1002700092E00E94C90168EE73E080E090E00E9485
:10028000330440E050E060E070E08BE692E00C94D4
:10029000F60141E050E065ED70E08BE692E00E94EF
:1002A000C90168EE73E080E090E00E94330440E012
:1002B00050E060E070E08BE692E00C94F6010E9462
:1002C00049010C9433014AE050E067E573E08BE6A6
:1002D00092E00E948D0188E692E00E94A20385E6EA
:1002E00092E00E94A20382E692E00E94A2038CE5C3
:1002F00092E00E94BE0386E592E00C94BE03DC010E
:10030000ED91FC910190F081E02D1994DC01ED91CB
:10031000FC910190F081E02D1994DC0115967C93FD
:100320006E9314974C30510570F4FA01EE0FFF1FD5
:10033000E40FF51FEF5DFD4F208131814281642F75
:10034000A90170E004C040E051EE60E070E04D9320
:100350005D936D937C93139716961C920895CF939B
:10036000DF93EC01488159816A817B818C819D8179
:100370000E946E0860E870E08C819D81DF91CF91D2
:100380000C94860163E870E0FC01848195810C94F3
:100390008601EF92FF920F931F93CF93DF93EC01AF
:1003A0007B018A0169E870E08C819D810E94860151
:1003B0006F2D70E08C819D810E947F01B7017727AE
:1003C0008C819D810E948601612F70E08C819D81CE
:1003D0000E947F01B80177278C819D81DF91CF91A9
:1003E0001F910F91FF90EF900C948601EF92FF9276
:1003F0000F931F93CF93DF93EC018B017A0161E997
:1004000070E08C819D810E9486016F2D70E08C814F
:100410009D810E947F01B70177278C819D810E9479
:100420008601612F70E08C819D810E947F01B8015F
:1004300077278C819D81DF91CF911F910F91FF9044
:10044000EF900C948601EF92FF920F931F93CF933E
:10045000DF938B017A01EC01DC01AA58BD4F8C912E
:1004600087FF05C0DB0111961C921E9222C02CE072
:100470002C9FC0012D9F900D11242C91AC01420F97
:10048000511D27FD5A952091750230E04217530700
:1004900084F42C91FC01E20FF11D27FDFA959F01D8
:1004A000EE0FFF1FE20FF31FE658FD4F208126FDE0
:1004B00045C0FE01EA58FD4F80818F5F80832CE0AC
:1004C0002C9FC0012D9F900D11242081AC01420F63
:1004D000511D27FD5A952091750230E042175307B0
:1004E0000CF03EC020812C300CF442C039C0208179
:1004F000820F911D27FD9A95FC01EE0FFF1FE80F5B
:10050000F91FE658FD4F808161E08F73DF91CF9135
:100510001F910F91FF90EF900C94270580E49CE9C8
:1005200004C0F801808191810496D70111969C93B3
:100530008E93CA58DD4F8FEF888345C02C91820F70
:10054000911D27FD9A95FC01EE0FFF1FE80FF91F83
:10055000E658FD4F808160E08F730E942705A9CF88
:10056000F80180819181049680349C49B8F2D9CFFA
:10057000D8012D913C914081BC01640F711D47FD54
:100580007A95AB01DB01AA0FBB1FA40FB51FA658BC
:10059000BD4F11964D915C911297240F351FD701D5
:1005A00011963C932E932081AC01420F511D27FDE3
:1005B0005A95DA01AA0FBB1FA40FB51FA658BD4F4D
:1005C0002C9126FD94CFDF91CF911F910F91FF9039
:1005D000EF9008951F920F920FB60F9211240BB651
:1005E0000F922F933F934F935F936F937F938F93CC
:1005F0009F93AF93BF93EF93FF9348E850E064E875
:1006000070E081E090E00E942302FF91EF91BF91A2
:10061000AF919F918F917F916F915F914F913F919A
:100620002F910F900BBE0F900FBE0F901F9018953B
:100630001F920F920FB60F9211240BB60F922F93A9
:100640003F934F935F936F937F938F939F93AF935A
:10065000BF93EF93FF9348E950E064E970E082E0D4
:1006600090E00E942302FF91EF91BF91AF919F9183
:100670008F917F916F915F914F913F912F910F904B
:100680000BBE0F900FBE0F901F9018951F920F92E8
:100690000FB60F9211240BB60F922F933F934F93E7
:1006A0005F936F937F938F939F93AF93BF93EF93DA
:1006B000FF9348EA50E064EA70E083E090E00E9433
:1006C0002302FF91EF91BF91AF919F918F917F9105
:1006D0006F915F914F913F912F910F900BBE0F90B3
:1006E0000FBE0F901F9018951F920F920FB60F928A
:1006F00011240BB60F922F933F934F935F936F93F9
:100700007F938F939F93AF93BF93EF93FF9348E2B1
:1007100051E064E271E080E090E00E942302FF91EA
:10072000EF91BF91AF919F918F917F916F915F9169
:100730004F913F912F910F900BBE0F900FBE0F90D6
:100740001F901895209175022033A0F4FC0120839E
:10075000822F8F5F80937502822F90E0FC01EE0F55
:10076000FF1FE80FF91FE658FD4F88EB9BE09283CF
:10077000818308952FEFFC012083089508951F922F
:100780000F920FB60F9211242F933F938F939F9345
:10079000AF93BF9380910A0390910B03A0910C0338
:1007A000B0910D0330911203232F2D5F2D3720F4CC
:1007B0000196A11DB11D05C0232F2A570296A11D28
:1007C000B11D2093120380930A0390930B03A0930F
:1007D0000C03B0930D0380910E0390910F03A09131
:1007E0001003B09111030196A11DB11D80930E035A
:1007F00090930F03A0931003B0931103BF91AF9197
:100800009F918F913F912F910F900FBE0F901F904E
:1008100018950F931F939FB7F89400910E031091B2
:100820000F03209110033091110386B5A89B06C0D9
:100830008F3F21F00F5F1F4F2F4F3F4F9FBF322F32
:10084000212F102F0027080F111D211D311D42E0FF
:10085000000F111F221F331F4A95D1F7B801C9019C
:100860001F910F910895CF92DF92EF92FF92CF9355
:10087000DF936B017C010E940904EB010EC00E9412
:1008800009046C1B7D0B683E734038F081E0C81A88
:10089000D108E108F108C851DC4FC114D104E104CA
:1008A000F10469F7DF91CF91FF90EF90DF90CF9047
:1008B0000895789484B5826084BD84B5816084BDD8
:1008C00085B5826085BD85B5816085BDEEE6F0E0C9
:1008D000808181608083E1E8F0E010828081826025
:1008E0008083808181608083E0E8F0E080818160A6
:1008F0008083E1EBF0E0808184608083E0EBF0E0D6
:10090000808181608083E1E9F0E080818260808382
:10091000808181608083E0E9F0E080818160808374
:10092000E1EAF0E080818260808380818160808361
:10093000E0EAF0E0808181608083E1E2F1E08081A3
:1009400082608083808181608083E0E2F1E0808149
:1009500081608083EAE7F0E0808184608083808129
:1009600082608083808181608083808180688083D1
:100970001092C1000895893009F443C088F484308E
:1009800029F138F4823059F1E8F4813009F05EC081
:1009900023C0873061F188F5863009F057C023C045
:1009A0008D3009F440C020F48B30A9F1C0F52DC082
:1009B000803109F442C0813109F443C08F3009F01D
:1009C00045C037C0809180008F7703C08091800040
:1009D0008F7D80938000089584B58F7702C084B5A1
:1009E0008F7D84BD08958091B0008F7703C0809182
:1009F000B0008F7D8093B0000895809190008F7734
:100A000007C0809190008F7D03C080919000877F08
:100A10008093900008958091A0008F7707C0809107
:100A2000A0008F7D03C08091A000877F8093A000ED
:100A30000895809120018F7707C0809120018F7DDC
:100A400003C080912001877F8093200108950F9338
:100A50001F93CF93DF931F92CDB7DEB7282F30E0DF
:100A6000F901EC51FF4F8491F901E65DFE4F1491BD
:100A7000F901E059FE4F04910023D1F0882321F0C1
:100A800069830E94BB046981E02FF0E0EE0FFF1F35
:100A9000EA54FE4F85919491DC019FB7F8948C91B4
:100AA000611103C01095812301C0812B8C939FBFDE
:100AB0000F90DF91CF911F910F910895CF92DF9208
:100AC000EF92FF920F931F93CF93DF936C01EB0193
:100AD0007A01E60EF71E00E010E00BC06991D60126
:100AE000ED91FC910190F081E02DC6011995080F60
:100AF000191FCE15DF0591F7C801DF91CF911F9126
:100B00000F91FF90EF90DF90CF90089561157105E0
:100B100081F0DB010D900020E9F7AD014150510952
:100B2000461B570BDC01ED91FC910280F381E02D17
:100B3000199480E090E00895DC01ED91FC91019022
:100B4000F081E02D19940F931F93CF93DF93EC0165
:100B50006DE00E949C058C016AE0CE010E949C051C
:100B60009C01200F311FC901DF91CF911F910F917F
:100B700008950F931F93CF93DF93EC010E94860596
:100B80008C01CE010E94A3059801280F391FC901CD
:100B9000DF91CF911F910F910895FC018485958578
:100BA000FC01E05CFF4F20813181FC01EE5BFF4FD7
:100BB00080819181281B390B2F733327C901089538
:100BC000FC0184859585FC01E05CFF4F40815181EB
:100BD000FC01EE5BFF4F208131814217530741F04A
:100BE0000190F081E02DE80FF91F208130E002C074
:100BF0002FEF3FEFC9010895FC0184859585FC0125
:100C0000E05CFF4F40815181FC01EE5BFF4F208192
:100C100031814217530781F0A081B181A80FB91F1C
:100C20008C91208131812F5F3F4F2F733327318388
:100C30002083282F30E002C02FEF3FEFC901089535
:100C4000FC0181A1882329F0A489B5898C9186FFB4
:100C5000FBCF11A20895CF93DF93FC012685378542
:100C6000D901A05CBF4F8D919C91119701968F7314
:100C70009927E901CE5BDF4F488159818417950799
:100C8000D9F30D90BC91A02DA20FB31F6C93A68534
:100C9000B785A05CBF4F11969C938E93A689B789A8
:100CA0002C9181E090E0078C02C0880F991F0A9474
:100CB000E2F7282B2C9381E081A30488F589E02DAD
:100CC00080818064808381E090E0DF91CF910895FE
:100CD000FB01E05CFF4F208131812F5F3F4F2F737D
:100CE0003327DB01AE5BBF4F4D915C912417350775
:100CF00039F0A081B181A60FB71F8C933183208377
:100D0000089508951F920F920FB60F9211240BB6FB
:100D10000F922F933F934F935F936F937F938F9394
:100D20009F93AF93BF93EF93FF938091C00082FD99
:100D300007C08091C60067E775E00E94680602C0A0
:100D40008091C600FF91EF91BF91AF919F918F91DC
:100D50007F916F915F914F913F912F910F900BBEBB
:100D60000F900FBE0F901F90189508951F920F922D
:100D70000FB60F9211240BB60F922F933F934F9300
:100D80005F936F937F938F939F93AF93BF93EF93F3
:100D9000FF938091C80082FD07C08091CE006FEE66
:100DA00074E00E94680602C08091CE00FF91EF912E
:100DB000BF91AF919F918F917F916F915F914F9173
:100DC0003F912F910F900BBE0F900FBE0F901F9071
:100DD000189508951F920F920FB60F9211240BB61B
:100DE0000F922F933F934F935F936F937F938F93C4
:100DF0009F93AF93BF93EF93FF938091D00082FDB9
:100E000007C08091D60067E674E00E94680602C0C1
:100E10008091D600FF91EF91BF91AF919F918F91FB
:100E20007F916F915F914F913F912F910F900BBEEA
:100E30000F900FBE0F901F90189508951F920F925C
:100E40000FB60F9211240BB60F922F933F934F932F
:100E50005F936F937F938F939F93AF93BF93EF9322
:100E6000FF938091300182FD07C0809136016FEDC4
:100E700073E00E94680602C080913601FF91EF91F5
:100E8000BF91AF919F918F917F916F915F914F91A2
:100E90003F912F910F900BBE0F900FBE0F901F90A0
:100EA000189589E793E00E94CD05892B11F00E94E7
:100EB000810687E593E00E94CD05892B11F00E9401
:100EC000B50685E393E00E94CD05892B11F00E94C1
:100ED000E90683E193E00E94CD05892B11F00C9483
:100EE0001D0708951F920F920FB60F9211240BB693
:100EF0000F922F933F938F939F93EF93FF932091A4
:100F000073053091740580917505909176052817C9
:100F1000390731F48091C1008F7D8093C10014C0E6
:100F2000E0917505F0917605ED5CFA4F2081809196
:100F300075059091760501968F73992790937605A4
:100F4000809375052093C600FF91EF919F918F913B
:100F50003F912F910F900BBE0F900FBE0F901F90DF
:100F600018951F920F920FB60F9211240BB60F9285
:100F70002F933F938F939F93EF93FF932091EB04D5
:100F80003091EC048091ED049091EE04281739071C
:100F900031F48091C9008F7D8093C90014C0E09125
:100FA000ED04F091EE04E555FB4F20818091ED04B6
:100FB0009091EE0401968F7399279093EE0480939D
:100FC000ED042093CE00FF91EF919F918F913F917F
:100FD0002F910F900BBE0F900FBE0F901F90189582
:100FE0001F920F920FB60F9211240BB60F922F93F0
:100FF0003F938F939F93EF93FF93209163043091DE
:10100000640480916504909166042817390731F4CF
:101010008091D1008F7D8093D10014C0E091650450
:10102000F0916604ED5DFB4F208180916504909105
:10103000660401968F7399279093660480936504E4
:101040002093D600FF91EF919F918F913F912F9127
:101050000F900BBE0F900FBE0F901F9018951F9210
:101060000F920FB60F9211240BB60F922F933F934E
:101070008F939F93EF93FF932091DB033091DC03D9
:101080008091DD039091DE032817390731F48091B8
:1010900031018F7D8093310114C0E091DD03F09127
:1010A000DE03E556FC4F20818091DD039091DE0345
:1010B00001968F7399279093DE038093DD0320932D
:1010C0003601FF91EF919F918F913F912F910F905A
:1010D0000BBE0F900FBE0F901F901895CF92DF920E
:1010E000EF92FF92CF93DF93EC016A017B014115F0
:1010F00081EE580761057105F9F0EC89FD8981E001
:1011000090E008A002C0880F991F0A94E2F780833C
:1011100060E079E08DE390E0A70196010E94320A39
:101120002150310941095109569547953795279521
:10113000211580E1380798F0EC89FD89108260E87C
:1011400074E88EE190E0A70196010E94320A2150D6
:101150003109410951095695479537952795E889F1
:10116000F9893083EA89FB89208319A2EE89FF89F6
:10117000408181E090E09C010C8C02C0220F331F63
:101180000A94E2F7422B4083EE89FF8940819C015B
:101190000D8C02C0220F331F0A94E2F7422B4083CA
:1011A000EE89FF8940819C010E8C02C0220F331F03
:1011B0000A94E2F7422B4083EE89FF8920810F8C4D
:1011C00002C0880F991F0A94E2F7809582238083DA
:1011D000DF91CF91FF90EF90DF90CF900895CF9364
:1011E00010927C0310927B0388EE93E0A0E0B0E0C5
:1011F00080937D0390937E03A0937F03B09380033D
:1012000029E432E030937A032093790347E755E0ED
:10121000509386034093850343E355E0509388033E
:101220004093870345EC50E050938A034093890331
:1012300044EC50E050938C0340938B0340EC50E01F
:1012400050938E0340938D0341EC50E050939003F4
:1012500040938F0342EC50E05093920340939103EC
:1012600046EC50E05093940340939303C4E0C09342
:101270009503F3E0F0939603E7E0E093970375E0BE
:101280007093980361E06093990310925A0310924F
:10129000590380935B0390935C03A0935D03B09329
:1012A0005E0330935803209357034FEE54E050935E
:1012B0006403409363034BEA54E050936603409306
:1012C00065034DEC50E050936803409367034CEC8A
:1012D00050E050936A034093690348EC50E0509308
:1012E0006C0340936B0349EC50E050936E034093C2
:1012F0006D034AEC50E05093700340936F034EEC43
:1013000050E05093720340937103C0937303F093C2
:101310007403E093750370937603609377031092E0
:101320003803109237038093390390933A03A093C4
:101330003B03B0933C03309336032093350347E6D9
:1013400054E0509342034093410343E254E05093EE
:1013500044034093430345ED50E0509346034093CC
:10136000450344ED50E0509348034093470340ED5C
:1013700050E050934A034093490341ED50E05093AD
:101380004C0340934B0342ED50E050934E03409387
:101390004D0346ED50E05093500340934F03C093EC
:1013A0005103F0935203E0935303709354036093FB
:1013B0005503109216031092150380931703909310
:1013C0001803A0931903B0931A03309314032093C6
:1013D00013038FED93E09093200380931F038BE919
:1013E00093E0909322038093210385E391E090930F
:1013F00024038093230384E391E090932603809356
:10140000250380E391E0909328038093270381E3F1
:1014100091E090932A038093290382E391E09093D3
:101420002C0380932B0386E391E090932E0380930B
:101430002D03C0932F03F0933003E0933103709397
:10144000320360933303CF9108950E9459040E94A0
:101450001D01C1E5D7E00E945F012097E1F30E94E2
:101460005107F9CFA1E21A2EAA1BBB1BFD010DC02B
:10147000AA1FBB1FEE1FFF1FA217B307E407F50744
:1014800020F0A21BB30BE40BF50B661F771F881F20
:10149000991F1A9469F760957095809590959B01B6
:1014A000AC01BD01CF0108950790F691E02D19948C
:0414B000F894FFCFDE
:1014B40053657269616C20636F6D6D756E696361EC
:1014C40074696F6E2065737461626C6973686564B6
:1014D400002C0100580200B00400600900C0120092
:1014E400802500403800004B00807000009600000A
:1014F400E10000C201000000002B065E05CD05FCE2
:0615040005E005200600D1
:00000001FF
