:100000000C94F7000C9428010C9428010C942801FE
:100010000C9428010C9428010C9428010C942801BC
:100020000C9428010C9428010C9428010C942801AC
:100030000C9428010C9428010C9428010C9428019C
:100040000C9428010C94AD050C9428010C94280103
:100050000C9428010C9428010C9428010C944F094D
:100060000C9428010C941F0D0C940F0E0C94280175
:100070000C9428010C9428010C9428010C9428015C
:100080000C94DB050C9428010C9428010C94280195
:100090000C94530D0C944E0E0C9428010C942801D2
:1000A0000C9428010C9428010C9409060C94280146
:1000B0000C9428010C9428010C9428010C94370608
:1000C0000C9428010C9428010C9428010C94870DA1
:1000D0000C948D0E0C9428010C94BB0D0C94CC0E3A
:1000E0000C9428010000090A02080B0C0D070603F6
:1000F00004010000000000000000000000000000FB
:1001000000000000000000000000000000000000EF
:1001100011100F00000000000000000000000000AF
:100120000000000000000000000001021020200874
:100130000810204010204080020102010804020142
:1001400001020408102040808040201008040201B1
:10015000800402018040201008040201080402010A
:100160000102040810204080010204081020408091
:1001700005050505070508080808020202020A0A23
:100180000808040404040101010101010101030341
:10019000030303030303040707070C0C0C0C0C0CEC
:1001A0000C0C0202020206060606060606060B0BE9
:1001B0000B0B0B0B0B0B00002200250028002B0063
:1001C0002E003100340002010000050108010B017E
:1001D00000002100240027002A002D0030003300F9
:1001E00001010000040107010A01AD038C0F112475
:1001F0001FBECFEFD1E2DEBFCDBF00E00CBF12E0EB
:10020000A0E0B2E0EAE1F3E200E00BBF02C0079039
:100210000D92A43DB107D9F716E0A4EDB2E001C0FC
:100220001D92AE33B107E1F711E0CEEED1E000E070
:1002300006C022970109FE010BBF0E947B11CA3E36
:10024000D10780E00807A9F70E9409110C948B11CF
:100250000C94000040E855E260E070E08CEF93E021
:100260000E940B0F61E072E08CEF93E00E94950B0F
:1002700064E070E08BEE92E00E94340765E070E08D
:1002800088EE92E00E94340766E070E085EE92E02E
:100290000E94340767E070E082EE92E00E9434072B
:1002A00027E130E046E150E062E070E08CED92E062
:1002B0000E94DA0729E130E048E150E063E070E0B5
:1002C00086ED92E00E94DA078EEE92E00E94FD0336
:1002D0008EEE92E00C9410044FEF5FEF65ED70E04E
:1002E0008EEE92E00E94170468EE73E080E090E0EA
:1002F0000E94D50940E050E060E070E08EEE92E0B0
:100300000C94440441E050E065ED70E08EEE92E024
:100310000E94170468EE73E080E090E00E94D50927
:1003200040E050E060E070E08EEE92E00C94440417
:100330004CE251E06CE271E08EEE92E00E944404E7
:1003400064EC79E080E090E00E94D5090E946C01A5
:100350004AE65FEF6AE67FEF8EEE92E00E94440489
:1003600060E777E180E090E00E94D50940E050E04E
:1003700060E070E08EEE92E00E94440446E950E0B6
:1003800066E970E08EEE92E00E94440464EF71E052
:1003900080E090E00E94D50940E050E060E070E02D
:1003A0008EEE92E00E9444040C948201CF93DF937E
:1003B000EC018D968B35910588F46AE570E06C1B35
:1003C0007D0B8BEE92E00E947B07BE01615A7F4F4E
:1003D00088EE92E0DF91CF910C947B07DF91CF9173
:1003E0000895AF92BF92CF92DF92EF92FF920F9358
:1003F0001F9382E00E944A08BC01882777FD809500
:10040000982F1F921F921F9223E72F9323EAA22E69
:10041000BB24BA94CB2CDB2C19EBE12E12E0F12E8D
:1004200000E010E020E030E0A9010E94C2100F902F
:100430000F900F900F90CB011F910F91FF90EF90B5
:10044000DF90CF90BF90AF9008950F931F93CF93FD
:10045000DF938C010E94F101E801C81BD90BCE018A
:1004600004960997A0F462E272E08CEF93E00E9498
:10047000950B6DE372E08CEF93E00E94760B4AE0FF
:1004800050E0BE018CEF93E00E94500C11C068EC6C
:1004900070E086ED92E0D7FF03C00E941A0808C002
:1004A0000E94FB0705C00E94F101E801C81BD90B9F
:1004B00025962B97C0F786ED92E0DF91CF911F91A3
:1004C0000F910C943908AF92BF92CF92DF92EF92C6
:1004D000FF920F931F9381E00E944A08BC01882776
:1004E00077FD8095982F1F921F921F922CE62F93D5
:1004F0004EE9A42EBB24BA94CB2CDB2C19EBE12EB5
:1005000012E0F12E00E010E020E030E0A9010E94AE
:10051000C2100F900F900F900F90CB011F910F9171
:10052000FF90EF90DF90CF90BF90AF9008950F9322
:100530001F93CF93DF938C010E946302E801C81BD5
:10054000D90BCE0104960997A0F463E472E08CEF16
:1005500093E00E94950B6DE372E08CEF93E00E94B4
:10056000760B4AE050E0BE018CEF93E00E94500C05
:1005700012C06FEF70E08CED92E01C161D061CF4AB
:100580000E94FB0708C00E941A0805C00E9463026F
:10059000E801C81BD90B25962B97C0F78CED92E08C
:1005A000DF91CF911F910F910C94390864E670E0B0
:1005B00085EE92E00C947B07CF93DF931F921F92FE
:1005C000CDB7DEB786EA9FEF0E94970280E090E009
:1005D0000E9425028AE090E00E94D60164EB70E060
:1005E00082EE92E00E947B070E94D60267E672E0EC
:1005F0008CEF93E00E94950B4AE65FEF6AE67FEF8F
:100600008EEE92E00E94440460EA7FE080E090E099
:100610000E94D50946E950E066E970E08EEE92E06E
:100620000E9444046CED75E080E090E00E94D509E2
:100630000E946C014AE65FEF6AE67FEF8EEE92E081
:100640000E9444046FE772E08CEF93E00E94950BE8
:1006500068EE73E080E090E00E94D50940E050E051
:1006600060E070E08EEE92E00E94440467E872E081
:100670008CEF93E00E94950B6CE972E08CEF93E0B5
:100680000E94950B4CE251E06CE271E08EEE92E03C
:100690000E9444044FC0198100E08A819801282BF0
:1006A000C9019093D5028093D402843F914008F011
:1006B00041C040E050E060E070E08EEE92E00E94C9
:1006C00044040E9482018DE290E00E94250288EDA0
:1006D0009FEF0E94970248EC50E068EC70E08EEECD
:1006E00092E00E94440460EA7FE080E090E00E9493
:1006F000D50940E050E060E070E08EEE92E00E94AC
:1007000044048BEE92E00E943A0788EE92E00E9449
:100710003A0782EE92E00E943A0785EE92E00E944C
:100720003A0768E873E180E090E00E94D5090E94F2
:1007300098010CC022E0AE014F5F5F4F6DE18EEE7D
:1007400092E00E94B6048111A6CFB3CF68EE73E0A9
:1007500080E090E00E94D509F9CF4AE050E06AEDD0
:1007600073E08EEE92E00E94DB038BEE92E00E943B
:10077000650688EE92E00E94650685EE92E00E9492
:10078000650682EE92E00E9465068CED92E00E9482
:10079000D90786ED92E00C94D907DC01ED91FC912C
:1007A0000190F081E02D1994DC01ED91FC91019014
:1007B000F081E02D1994DC0115967C936E931497CB
:1007C0004C30510570F4FA01EE0FFF1FE40FF51FD6
:1007D000E056FD4F208131814281642FA90170E0F4
:1007E00004C040E051EE60E070E04D935D936D9386
:1007F0007C93139716961C920895CF93DF93EC0188
:10080000488159816A817B818C819D810E940B0F77
:1008100060E870E08C819D81DF91CF910C94D403CE
:1008200063E870E0FC01848195810C94D403EF921D
:10083000FF920F931F93CF93DF93EC017B018A010B
:1008400069E870E08C819D810E94D4036F2D70E077
:100850008C819D810E94CD03B70177278C819D817A
:100860000E94D403612F70E08C819D810E94CD0392
:10087000B80177278C819D81DF91CF911F910F91D6
:10088000FF90EF900C94D403EF92FF920F931F937D
:10089000CF93DF93EC018B017A0161E970E08C81E9
:1008A0009D810E94D4036F2D70E08C819D810E94F8
:1008B000CD03B70177278C819D810E94D403612FDE
:1008C00070E08C819D810E94CD03B80177278C81D7
:1008D0009D81DF91CF911F910F91FF90EF900C942C
:1008E000D403BF92CF92DF92EF92FF920F931F93A8
:1008F000CF93DF93EC018B01B42E29C00E9499099C
:100900006B017C0188ECC80ED11CE11CF11C07C0F6
:100910000E949909C616D706E806F906E0F08C8110
:100920009D81DC01ED91FC910480F581E02D19950C
:10093000892B71F3BA948C819D81DC01ED91FC913E
:100940000680F781E02D1995F80181938F01B11090
:10095000D5CF81E001C080E0DF91CF911F910F9151
:10096000FF90EF90DF90CF90BF900895CF92DF92ED
:10097000FF920F931F93CF93DF931F92CDB7DEB7F4
:100980006C01F62E8A016EE870E0DC0114968D9100
:100990009C91159729830E94D403F6018481958147
:1009A000DC01ED91FC910190F081E02D6F2D199506
:1009B0002981422FB801C6010F90DF91CF911F917D
:1009C0000F91FF90DF90CF900C947104EF92FF9203
:1009D0000F931F93CF93DF938B017A01EC01DC011E
:1009E000A750BD4F8C9187FF05C0DB0111961C926B
:1009F0001E9222C02CE02C9FC0012D9F900D11242F
:100A00002C91AC01420F511D27FD5A952091F802FF
:100A100030E04217530784F42C91FC01E20FF11DE2
:100A200027FDFA959F01EE0FFF1FE20FF31FE35022
:100A3000FD4F208126FD45C0FE01E750FD4F80811E
:100A40008F5F80832CE02C9FC0012D9F900D11247F
:100A50002081AC01420F511D27FD5A952091F802CB
:100A600030E0421753070CF03EC020812C300CF4CC
:100A700042C039C02081820F911D27FD9A95FC014B
:100A8000EE0FFF1FE80FF91FE350FD4F808161E07B
:100A90008F73DF91CF911F910F91FF90EF900C9486
:100AA000010B80E49CE904C0F801808191810496E7
:100AB000D70111969C938E93C750DD4F8FEF88839B
:100AC00045C02C91820F911D27FD9A95FC01EE0FD8
:100AD000FF1FE80FF91FE350FD4F808160E08F7327
:100AE0000E94010BA9CFF801808191810496803486
:100AF0009C49B8F2D9CFD8012D913C914081BC01DD
:100B0000640F711D47FD7A95AB01DB01AA0FBB1F76
:100B1000A40FB51FA350BD4F11964D915C91129734
:100B2000240F351FD70111963C932E932081AC01E1
:100B3000420F511D27FD5A95DA01AA0FBB1FA40FC2
:100B4000B51FA350BD4F2C9126FD94CFDF91CF91BF
:100B50001F910F91FF90EF9008951F920F920FB683
:100B60000F9211240BB60F922F933F934F935F93E5
:100B70006F937F938F939F93AF93BF93EF93FF9365
:100B800048E850E064E870E081E090E00E94E6040C
:100B9000FF91EF91BF91AF919F918F917F916F9155
:100BA0005F914F913F912F910F900BBE0F900FBE11
:100BB0000F901F9018951F920F920FB60F9211244D
:100BC0000BB60F922F933F934F935F936F937F9347
:100BD0008F939F93AF93BF93EF93FF9348E950E0B8
:100BE00064E970E082E090E00E94E604FF91EF91FA
:100BF000BF91AF919F918F917F916F915F914F9135
:100C00003F912F910F900BBE0F900FBE0F901F9032
:100C100018951F920F920FB60F9211240BB60F92D8
:100C20002F933F934F935F936F937F938F939F93F4
:100C3000AF93BF93EF93FF9348EA50E064EA70E00C
:100C400083E090E00E94E604FF91EF91BF91AF91A5
:100C50009F918F917F916F915F914F913F912F91D4
:100C60000F900BBE0F900FBE0F901F9018951F9204
:100C70000F920FB60F9211240BB60F922F933F9342
:100C80004F935F936F937F938F939F93AF93BF9394
:100C9000EF93FF9348E251E064E271E080E090E07E
:100CA0000E94E604FF91EF91BF91AF919F918F91C8
:100CB0007F916F915F914F913F912F910F900BBE5C
:100CC0000F900FBE0F901F9018952091F8022033BF
:100CD000A0F4FC012083822F8F5F8093F802822F83
:100CE00090E0FC01EE0FFF1FE80FF91FE350FD4FEE
:100CF00088EB9BE09283818308952FEFFC01208392
:100D00000895DF92EF92FF920F931F93CF93DF939B
:100D1000EC01D62E7A0189018881803308F094C0D5
:100D200061E08D2D0E94C90A8881A82FB0E0FD01E5
:100D3000EE0FFF1FEA0FFB1FE350FD4F2D2D2F730A
:100D40009081907C922B908360E272E06E197F0913
:100D500077FF02C06D5F7F4F7595679575956795B5
:100D6000698340E659E0401B510B57FF02C04D5FBD
:100D70005F4F55954795559547954A836CE00E947E
:100D800026119CE0899FB001112420E030E0A901E8
:100D9000460F571FFA01EE0FFF1FE40FF51FE35038
:100DA000FD4F908196FD44C02F5F3F4F2C303105A1
:100DB00071F74CC01092800082E080938100109205
:100DC000850010928400B19A80916F0082608093B8
:100DD0006F002EC08230910569F41092900082E07D
:100DE00080939100109295001092940088BB80939C
:100DF00071001EC08330910569F41092A00082E05A
:100E00008093A1001092A5001092A40089BB80934A
:100E100072000EC0892B61F41092200182E0809351
:100E2000210110922501109224018ABB8093730046
:100E3000888190E0FC01EE0FFF1FE80FF91FE350DF
:100E4000FD4F808180648083888106C090E081307E
:100E5000910509F0BFCFAECFDF91CF911F910F91D8
:100E6000FF90EF90DF90089520E639E040E252E0F5
:100E70000C948106FC01808190E0FC01EE0FFF1FC5
:100E8000E80FF91FE350FD4F80818F7B8083089529
:100E9000FC018081803370F5918128E830E0291BC6
:100EA000310997FD3395220F331F220F331F62172D
:100EB00073077CF0928128E532E0291B310997FD08
:100EC0003395220F331F220F331F621773070CF461
:100ED0009B014FB7F89490E0FC01EE0FFF1FE80F65
:100EE000F91FE350FD4F22503109220F331F328387
:100EF00021834FBF0895AF92BF92CF92DF92EF92BE
:100F0000FF920F931F93CF93DF93EC01603282E047
:100F100078070CF041C077FD04C0653B710524F4EF
:100F200005C060E070E002C064EB70E0298188E8F1
:100F300090E0821B910927FD9395880F991F880FD8
:100F4000991F5C01CC24B7FCC094DC2C882777FD6A
:100F50008095982F2A8148E552E0421B510927FDD0
:100F60005395440F551F440F551F8A01222717FD23
:100F70002095322F3F932F931F930F9314EBE12E65
:100F8000F12C00E010E020E030E0A9010E94C21046
:100F90000F900F900F900F90CE01DF91CF911F9186
:100FA0000F91FF90EF90DF90CF90BF90AF900C9497
:100FB00048070895CF93DF931F921F92CDB7DEB7F6
:100FC000FC01862F6083718342835383248335839E
:100FD00061E02A8349830E94C90A61E04981842F24
:100FE0000E94C90A61E02A81822F0F900F90DF9141
:100FF000CF910C94C90A0F931F93CF93DF93EC0109
:101000008B016F3F710509F080F461E08A810E94D5
:10101000010B60E08C810E94010BB8018881DF9197
:10102000CF911F910F910C947308DF91CF911F9175
:101030000F9108950F931F93CF93DF93EC018B01D2
:101040006F3F710509F080F460E08A810E94010B16
:1010500061E08C810E94010BB8018881DF91CF9102
:101060001F910F910C947308DF91CF911F910F91F5
:101070000895CF93DF93EC0161E08A810E94010B18
:1010800061E08C810E94010B61E08881DF91CF914A
:101090000C94010B863308F0865320917B00982F27
:1010A0009870277F922B90937B008770209100028D
:1010B00040E4249F90011124822B80937C00809136
:1010C0007A00806480937A0080917A0086FDFCCF5C
:1010D0002091780030917900932F80E0AC01422B71
:1010E0009A01C90108951F93CF93DF93182FEB0145
:1010F00061E00E94C90A209711F460E004C0CF3F6C
:10110000D10539F461E0812FDF91CF911F910C94CB
:10111000010BE12FF0E0EC51FF4FE491E93009F4CD
:1011200060C098F4E430C9F138F4E23039F158F590
:10113000E13009F0ABC01DC0E73009F440C008F051
:1011400046C0E63009F0A2C032C0ED3009F476C0E6
:1011500030F4EB3009F459C008F066C04CC0E031FF
:1011600009F480C0E13109F487C0EF3009F08EC086
:101170006FC084B5806884BDC7BD8DC084B58062F2
:1011800084BDC8BD88C08091800080688093800045
:10119000D0938900C09388007EC0809180008062D7
:1011A00080938000D0938B00C0938A0074C080919C
:1011B000B00080688093B000C093B3006CC0809191
:1011C000B00080628093B000C093B40064C080918E
:1011D0009000806880939000D0939900C09398000D
:1011E0005AC080919000806280939000D0939B00C1
:1011F000C0939A0050C080919000886080939000C6
:10120000D0939D00C0939C0046C08091A000806850
:101210008093A0008091A0008F7B8093A000D0934A
:10122000A900C093A80037C08091A000806280937D
:10123000A000D093AB00C093AA002DC08091A00065
:1012400088608093A000D093AD00C093AC0023C011
:1012500080912001806880932001D0932901C09360
:10126000280119C080912001806280932001D093D1
:101270002B01C0932A010FC08091200188608093C8
:101280002001D0932D01C0932C0105C0C038D10599
:101290000CF038CF32CFDF91CF911F9108951F927C
:1012A0000F920FB60F9211242F933F938F939F931A
:1012B000AF93BF9380918D0390918E03A0918F0384
:1012C000B091900330919503232F2D5F2D3720F49B
:1012D0000196A11DB11D05C0232F2A570296A11DFD
:1012E000B11D2093950380938D0390938E03A0935B
:1012F0008F03B09390038091910390919203A091FA
:101300009303B09194030196A11DB11D80939103A5
:1013100090939203A0939303B0939403BF91AF91E2
:101320009F918F913F912F910F900FBE0F901F9023
:1013300018950F931F938FB7F89400918D03109118
:101340008E0320918F03309190038FBFB801C901A4
:101350001F910F9108950F931F939FB7F8940091D9
:10136000910310919203209193033091940386B5D9
:10137000A89B06C08F3F21F00F5F1F4F2F4F3F4F9D
:101380009FBF322F212F102F0027080F111D211D65
:10139000311D42E0000F111F221F331F4A95D1F764
:1013A000B801C9011F910F910895CF92DF92EF927A
:1013B000FF92CF93DF936B017C010E94AB09EB019D
:1013C0000EC00E94AB096C1B7D0B683E734038F069
:1013D00081E0C81AD108E108F108C851DC4FC114F6
:1013E000D104E104F10469F7DF91CF91FF90EF9010
:1013F000DF90CF900895789484B5826084BD84B5E1
:10140000816084BD85B5826085BD85B5816085BDFF
:10141000EEE6F0E0808181608083E1E8F0E0108218
:10142000808182608083808181608083E0E8F0E059
:10143000808181608083E1EBF0E080818460808343
:10144000E0EBF0E0808181608083E1E9F0E0808181
:1014500082608083808181608083E0E9F0E0808128
:1014600081608083E1EAF0E0808182608083808116
:1014700081608083E0EAF0E0808181608083E1E246
:10148000F1E0808182608083808181608083E0E2FE
:10149000F1E0808181608083EAE7F0E08081846010
:1014A000808380818260808380818160808380816D
:1014B000806880831092C1000895893009F443C088
:1014C00088F4843029F138F4823059F1E8F481301D
:1014D00009F05EC023C0873061F188F5863009F0DD
:1014E00057C023C08D3009F440C020F48B30A9F1DF
:1014F000C0F52DC0803109F442C0813109F443C0E8
:101500008F3009F045C037C0809180008F7703C0CD
:10151000809180008F7D80938000089584B58F77BF
:1015200002C084B58F7D84BD08958091B0008F770F
:1015300003C08091B0008F7D8093B00008958091AA
:1015400090008F7707C0809190008F7D03C08091BD
:101550009000877F8093900008958091A0008F77FE
:1015600007C08091A0008F7D03C08091A000877F7D
:101570008093A0000895809120018F7707C080910B
:1015800020018F7D03C080912001877F80932001FF
:101590000895CF93DF9390E0FC01E65DFE4F449108
:1015A000FC01E059FE4F8491882341F190E0880FBF
:1015B000991FFC01E053FE4F25913491D9018A54C3
:1015C0009E4FFC0185919491C82FD92F9FB7F89415
:1015D0008C91611106C0409584238C93888184236B
:1015E00008C0623041F4242F209582238C93888197
:1015F000842B888302C0842B8C939FBFDF91CF9173
:1016000008950F931F93CF93DF931F92CDB7DEB74B
:10161000282F30E0F901EC51FF4F8491F901E65D8C
:10162000FE4F1491F901E059FE4F04910023D1F0CF
:10163000882321F069830E945D0A6981E02FF0E030
:10164000EE0FFF1FEA54FE4F85919491DC019FB786
:10165000F8948C91611103C01095812301C0812BF6
:101660008C939FBF0F90DF91CF911F910F910895A1
:10167000CF92DF92EF92FF920F931F93CF93DF935E
:101680006C01EB017A01E60EF71E00E010E00BC0E2
:101690006991D601ED91FC910190F081E02DC60198
:1016A0001995080F191FCE15DF0591F7C801DF91B5
:1016B000CF911F910F91FF90EF90DF90CF90089501
:1016C0006115710581F0DB010D900020E9F7AD0196
:1016D00041505109461B570BDC01ED91FC910280F2
:1016E000F381E02D199480E090E008950C94600B54
:1016F000DC01ED91FC910190F081E02D19940F93A4
:101700001F93CF93DF93EC016DE00E94780B8C0167
:101710006AE0CE010E94780B9C01200F311FC901A5
:10172000DF91CF911F910F9108950F931F93CF9346
:10173000DF93EC010E94600B8C01CE010E947F0BB5
:101740009801280F391FC901DF91CF911F910F9187
:1017500008954F925F926F927F929F92AF92BF9245
:10176000CF92DF92EF92FF920F931F93CF93DF936D
:10177000CDB7DEB7A1970FB6F894DEBF0FBECDBFD1
:101780005C016A017B01922E19A281E0821710F0A0
:101790008AE0982E8E010F5D1F4F492C512C612C31
:1017A000712CC701B601A30192010E9432118C2D48
:1017B000929E80191124015011098A3014F4805D21
:1017C00001C0895CF801808369017A01C114D104E8
:1017D000E104F10431F7B801C5010E94600BA19644
:1017E0000FB6F894DEBF0FBECDBFDF91CF911F9132
:1017F0000F91FF90EF90DF90CF90BF90AF909F90B0
:101800007F906F905F904F900895CF92DF92EF920C
:10181000FF920F931F93CF93DF93EC016A017B013B
:101820002115310579F4E881F9810190F081E02DED
:10183000642FDF91CF911F910F91FF90EF90DF9078
:10184000CF9019942A30310519F477FD0EC02AE0A3
:10185000B701A601CE01DF91CF911F910F91FF90AB
:10186000EF90DF90CF900C94A90B6DE20E94780B63
:101870008C0144275527BA014C195D096E097F096F
:101880002AE0CE010E94A90B080F191FC801DF91A1
:10189000CF911F910F91FF90EF90DF90CF9008951F
:1018A0000F931F93CF93DF93EC019A01AB0166274F
:1018B00057FD6095762F0E94050C8C01CE010E9489
:1018C0007F0B9801280F391FC901DF91CF911F911C
:1018D0000F910895FC0184859585FC01E05CFF4F24
:1018E00020813181FC01EE5BFF4F80819181281BBB
:1018F000390B2F733327C9010895FC018485958521
:10190000FC01E05CFF4F40815181FC01EE5BFF4F29
:10191000208131814217530741F00190F081E02D81
:10192000E80FF91F208130E002C02FEF3FEFC9011F
:101930000895FC0184859585FC01E05CFF4F4081A2
:101940005181FC01EE5BFF4F20813181421753072B
:1019500081F0A081B181A80FB91F8C9120813181C4
:101960002F5F3F4F2F73332731832083282F30E0A1
:1019700002C02FEF3FEFC9010895FC0181A1882328
:1019800029F0A489B5898C9186FFFBCF11A2089517
:10199000CF93DF93FC0126853785D901A05CBF4F2B
:1019A0008D919C91119701968F739927E901CE5BD8
:1019B000DF4F4881598184179507D9F30D90BC9169
:1019C000A02DA20FB31F6C93A685B785A05CBF4F57
:1019D00011969C938E93A689B7892C9181E090E013
:1019E000078C02C0880F991F0A94E2F7282B2C93CA
:1019F00081E081A30488F589E02D80818064808363
:101A000081E090E0DF91CF910895FB01E05CFF4F12
:101A1000208131812F5F3F4F2F733327DB01AE5B76
:101A2000BF4F4D915C912417350739F0A081B181EA
:101A3000A60FB71F8C9331832083089508951F92BA
:101A40000F920FB60F9211240BB60F922F933F9364
:101A50004F935F936F937F938F939F93AF93BF93B6
:101A6000EF93FF938091C00082FD07C08091C60074
:101A70006AEF75E00E94050D02C08091C600FF91DB
:101A8000EF91BF91AF919F918F917F916F915F91F6
:101A90004F913F912F910F900BBE0F900FBE0F9063
:101AA0001F90189508951F920F920FB60F92112450
:101AB0000BB60F922F933F934F935F936F937F9348
:101AC0008F939F93AF93BF93EF93FF938091C80041
:101AD00082FD07C08091CE0062E775E00E94050D8F
:101AE00002C08091CE00FF91EF91BF91AF919F9185
:101AF0008F917F916F915F914F913F912F910F90B7
:101B00000BBE0F900FBE0F901F90189508951F9257
:101B10000F920FB60F9211240BB60F922F933F9393
:101B20004F935F936F937F938F939F93AF93BF93E5
:101B3000EF93FF938091D00082FD07C08091D60083
:101B40006AEE74E00E94050D02C08091D600FF91FC
:101B5000EF91BF91AF919F918F917F916F915F9125
:101B60004F913F912F910F900BBE0F900FBE0F9092
:101B70001F90189508951F920F920FB60F9211247F
:101B80000BB60F922F933F934F935F936F937F9377
:101B90008F939F93AF93BF93EF93FF938091300107
:101BA00082FD07C08091360162E674E00E94050D57
:101BB00002C080913601FF91EF91BF91AF919F914B
:101BC0008F917F916F915F914F913F912F910F90E6
:101BD0000BBE0F900FBE0F901F9018958CEF93E0E7
:101BE0000E946A0C892B11F00E941E0D8AED93E071
:101BF0000E946A0C892B11F00E94520D88EB93E031
:101C00000E946A0C892B11F00E94860D86E993E0F0
:101C10000E946A0C892B11F00C94BA0D08951F9242
:101C20000F920FB60F9211240BB60F922F933F9382
:101C30008F939F93EF93FF932091F6053091F705D3
:101C40008091F8059091F9052817390731F48091B2
:101C5000C1008F7D8093C10014C0E091F805F09120
:101C6000F905EA54FA4F20818091F8059091F90521
:101C700001968F7399279093F9058093F805209327
:101C8000C600FF91EF919F918F913F912F910F90FF
:101C90000BBE0F900FBE0F901F9018951F920F92C2
:101CA0000FB60F9211240BB60F922F933F938F9381
:101CB0009F93EF93FF9320916E0530916F05809174
:101CC0007005909171052817390731F48091C9008A
:101CD0008F7D8093C90014C0E0917005F09171056B
:101CE000E25DFA4F20818091700590917105019617
:101CF0008F73992790937105809370052093CE0080
:101D0000FF91EF919F918F913F912F910F900BBE7B
:101D10000F900FBE0F901F9018951F920F920FB645
:101D20000F9211240BB60F922F933F938F939F9393
:101D3000EF93FF932091E6043091E7048091E8044B
:101D40009091E9042817390731F48091D1008F7DF3
:101D50008093D10014C0E091E804F091E904EA55C1
:101D6000FB4F20818091E8049091E90401968F73E4
:101D700099279093E9048093E8042093D600FF917B
:101D8000EF919F918F913F912F910F900BBE0F90EC
:101D90000FBE0F901F9018951F920F920FB60F92C3
:101DA00011240BB60F922F933F938F939F93EF9332
:101DB000FF9320915E0430915F04809160049091C4
:101DC00061042817390731F4809131018F7D8093A8
:101DD000310114C0E0916004F0916104E25EFB4FB8
:101DE0002081809160049091610401968F739927FE
:101DF000909361048093600420933601FF91EF91EA
:101E00009F918F913F912F910F900BBE0F900FBE1E
:101E10000F901F901895CF92DF92EF92FF92CF9381
:101E2000DF93EC016A017B01411581EE58076105E2
:101E30007105F9F0EC89FD8981E090E008A002C00D
:101E4000880F991F0A94E2F7808360E079E08DE3C0
:101E500090E0A70196010E943211215031094109F9
:101E600051095695479537952795211580E13807F3
:101E700098F0EC89FD89108260E874E88EE190E0CA
:101E8000A70196010E9432112150310941095109DF
:101E90005695479537952795E889F9893083EA89DA
:101EA000FB89208319A2EE89FF89408181E090E0BF
:101EB0009C010C8C02C0220F331F0A94E2F7422BC4
:101EC0004083EE89FF8940819C010D8C02C0220F66
:101ED000331F0A94E2F7422B4083EE89FF89408149
:101EE0009C010E8C02C0220F331F0A94E2F7422B92
:101EF0004083EE89FF8920810F8C02C0880F991FD3
:101F00000A94E2F7809582238083DF91CF91FF903E
:101F1000EF90DF90CF900895CF931092FF0310922F
:101F2000FE0388EE93E0A0E0B0E08093000490937D
:101F30000104A0930204B093030428EC32E0309330
:101F4000FD032093FC034AEF55E0509309044093AE
:101F5000080446EB55E050930B0440930A0445EC0B
:101F600050E050930D0440930C0444EC50E0509327
:101F70000F0440930E0440EC50E050931104409342
:101F8000100441EC50E0509313044093120442ECCF
:101F900050E0509315044093140446EC50E05093E5
:101FA000170440931604C4E0C0931804F3E0F093C0
:101FB0001904E7E0E0931A0475E070931B0461E0F4
:101FC00060931C041092DD031092DC038093DE0307
:101FD0009093DF03A093E003B093E1033093DB031E
:101FE0002093DA0342E755E05093E7034093E6037A
:101FF0004EE255E05093E9034093E8034DEC50E086
:102000005093EB034093EA034CEC50E05093ED0304
:102010004093EC0348EC50E05093EF034093EE0301
:1020200049EC50E05093F1034093F0034AEC50E048
:102030005093F3034093F2034EEC50E05093F503BA
:102040004093F403C093F603F093F703E093F8038F
:102050007093F9036093FA031092BB031092BA03D2
:102060008093BC039093BD03A093BE03B093BF03C2
:102070003093B9032093B8034AEE54E05093C5035C
:102080004093C40346EA54E05093C7034093C60309
:1020900045ED50E05093C9034093C80344ED50E030
:1020A0005093CB034093CA0340ED50E05093CD03CF
:1020B0004093CC0341ED50E05093CF034093CE03C7
:1020C00042ED50E05093D1034093D00346ED50E0F1
:1020D0005093D3034093D203C093D403F093D5031A
:1020E000E093D6037093D7036093D80310929903BB
:1020F0001092980380939A0390939B03A0939C0360
:10210000B0939D03309397032093960382E694E067
:102110009093A3038093A2038EE194E09093A50390
:102120008093A40385E391E09093A7038093A60393
:1021300084E391E09093A9038093A80380E391E066
:102140009093AB038093AA0381E391E09093AD0356
:102150008093AC0382E391E09093AF038093AE034E
:1021600086E391E09093B1038093B003C093B203F0
:10217000F093B303E093B4037093B5036093B60395
:10218000CF9108954F925F926F927F92AF92BF92DC
:10219000CF92DF92EF92FF920F931F93CF93DF9333
:1021A000CDB7DEB729013A01621B730B840B950B87
:1021B0002A893B894C895D892A193B094C095D09AB
:1021C0002A8B3B8B4C8B5D8B9B01AC016A897B8995
:1021D0008C899D890E941611E418F50806091709D3
:1021E000A80197010E9454112A0D3B1D4C1D5D1D35
:1021F000B901CA01DF91CF911F910F91FF90EF902C
:10220000DF90CF90BF90AF907F906F905F904F9096
:1022100008950E94FB090E942A01CEEEDDE00E9493
:10222000DC022097E1F30E94EE0DF9CFDB018F93E2
:102230009F930E947011BF91AF91A29F800D911D3D
:10224000A39F900DB29F900D11240895991B79E0E2
:1022500004C0991F961708F0961B881F7A95C9F736
:1022600080950895A1E21A2EAA1BBB1BFD010DC08B
:10227000AA1FBB1FEE1FFF1FA217B307E407F50736
:1022800020F0A21BB30BE40BF50B661F771F881F12
:10229000991F1A9469F760957095809590959B01A8
:1022A000AC01BD01CF010895052E97FB16F40094F3
:1022B00007D057FD0DD00E94321107FC09D07EF4E3
:1022C00090958095709561957F4F8F4F9F4F0895A2
:1022D00050954095309521953F4F4F4F5F4F089552
:1022E0000E947F11A59F900DB49F900DA49F800D1B
:1022F000911D112408950790F691E02D1994A29F45
:10230000B001B39FC001A39F01D0B29F700D811D8A
:0A2310001124911D0895F894FFCFE9
:10231A000153657269616C20636F6D6D756E6963D7
:10232A006174696F6E2065737461626C6973686544
:10233A00640047726162206973206E6F7420676F50
:10234A00696E6720746F207475726E2E0044696618
:10235A00663A005365636F6E646172792041726DEB
:10236A00206973206E6F7420676F696E6720746FBF
:10237A00207475726E2E00616C69676E696E6720D3
:10238A0061742067616D657461626C652E2E0061EF
:10239A006C69676E65640077616974696E67206647
:1023AA006F72206C696768742E2E2E00476F2100A9
:1023BA002C0100580200B00400600900C01200801D
:1023CA002500403800004B0080700000960000E1B4
:1023DA000000C20100000000C80C380B6A0C990CFE
:0423EA007D0CBD0C9D
:00000001FF
