:100000000C94F7000C9428010C9428010C942801FE
:100010000C9428010C9428010C9428010C942801BC
:100020000C9428010C9428010C9428010C942801AC
:100030000C9428010C9428010C9428010C9428019C
:100040000C9428010C94D2020C9428010C942801E1
:100050000C9428010C9428010C9428010C941C0584
:100060000C9428010C94DA080C94CA090C94280109
:100070000C9428010C9428010C9428010C9428015C
:100080000C9400030C9428010C9428010C94280172
:100090000C940E090C94090A0C9428010C94280164
:1000A0000C9428010C9428010C942E030C94280124
:1000B0000C9428010C9428010C9428010C945C03E6
:1000C0000C9428010C9428010C9428010C944209EA
:1000D0000C94480A0C9428010C9476090C94870A15
:1000E0000C9428010000090A02080B0C0D070603F6
:1000F00004010000000000000000000000000000FB
:1001000000000000000000000000000000000000EF
:1001100011100F00000000000000000000000000AF
:100120000000000000000000000001021020200874
:100130000810204010204080020102010804020142
:1001400001020408102040808040201008040201B1
:10015000800402018040201008040201080402010A
:100160000102040810204080010204081020408091
:1001700005050505070508080808020202020A0A23
:100180000808040404040101010101010101030341
:10019000030303030303040707070C0C0C0C0C0CEC
:1001A0000C0C0202020206060606060606060B0BE9
:1001B0000B0B0B0B0B0B00002200250028002B0063
:1001C0002E003100340002010000050108010B017E
:1001D00000002100240027002A002D0030003300F9
:1001E00001010000040107010A01CD01470B1124A0
:1001F0001FBECFEFD1E2DEBFCDBF00E00CBF12E0EB
:10020000A0E0B2E0E8E7FAE100E00BBF02C007902F
:100210000D92AC39B107D9F716E0ACE9B2E001C0F4
:100220001D92A130B107E1F711E0CEEED1E000E080
:1002300006C022970109FE010BBF0E942A0DCA3E8B
:10024000D10780E00807A9F70E94C40C0C943A0D6E
:100250000C94000040E855E260E070E08FEB93E022
:100260000E94C60A61E072E08FEB93E00E945007A3
:1002700027E130E046E150E062E070E082EA92E09F
:100280000E94A70329E130E048E150E063E070E01C
:100290008CE992E00C94A703AF92BF92CF92DF92C9
:1002A000EF92FF920F931F9382E00E941704BC010C
:1002B000882777FD8095982F1F921F921F9223E722
:1002C0002F9323EAA22EBB24BA94CB2CDB2C19EB60
:1002D000E12E12E0F12E00E010E020E030E0A90174
:1002E0000E947D0C0F900F900F900F90CB011F91EB
:1002F0000F91FF90EF90DF90CF90BF90AF90089557
:100300000F931F93CF93DF938C010E944C01E80160
:10031000C81BD90BCE0104960997A0F462E272E0E3
:100320008FEB93E00E9450076DE372E08FEB93E058
:100330000E9431074AE050E0BE018FEB93E00E943B
:100340000B0811C068EC70E08CE992E0D7FF03C0A5
:100350000E94E70308C00E94C80305C00E944C0128
:10036000E801C81BD90B25962B97C0F78CE992E0C2
:10037000DF91CF911F910F910C9406048AE590E0D4
:100380000E94800186EA9FEF0E94800168EE73E080
:1003900080E090E00E949005F9CF4AE050E06DE9DE
:1003A00073E081EB92E00E94E9018EEA92E00E9404
:1003B0008A038BEA92E00E948A0388EA92E00E9414
:1003C0008A0382EA92E00E94A6038CE992E00C94F0
:1003D000A603DC0115967C936E9314974C3051055F
:1003E00070F4FA01EE0FFF1FE40FF51FE959FD4FFE
:1003F000208131814281642FA90170E004C040E076
:1004000051EE60E070E04D935D936D937C93139794
:1004100016961C920895EF92FF920F931F93CF931D
:10042000DF938B017A01EC01DC01A454BD4F8C9168
:1004300087FF05C0DB0111961C921E9222C02CE0A2
:100440002C9FC0012D9F900D11242C91AC01420FC7
:10045000511D27FD5A952091BB0230E042175307EA
:1004600084F42C91FC01E20FF11D27FDFA959F0108
:10047000EE0FFF1FE20FF31FE054FD4F208126FD1A
:1004800045C0FE01E454FD4F80818F5F80832CE0E6
:100490002C9FC0012D9F900D11242081AC01420F93
:1004A000511D27FD5A952091BB0230E0421753079A
:1004B0000CF03EC020812C300CF442C039C02081A9
:1004C000820F911D27FD9A95FC01EE0FFF1FE80F8B
:1004D000F91FE054FD4F808161E08F73DF91CF9170
:1004E0001F910F91FF90EF900C94BC0680E49CE963
:1004F00004C0F801808191810496D70111969C93E4
:100500008E93C454DD4F8FEF888345C02C91820FAA
:10051000911D27FD9A95FC01EE0FFF1FE80FF91FB3
:10052000E054FD4F808160E08F730E94BC06A9CF2C
:10053000F80180819181049680349C49B8F2D9CF2A
:10054000D8012D913C914081BC01640F711D47FD84
:100550007A95AB01DB01AA0FBB1FA40FB51FA054F6
:10056000BD4F11964D915C911297240F351FD70105
:1005700011963C932E932081AC01420F511D27FD13
:100580005A95DA01AA0FBB1FA40FB51FA054BD4F87
:100590002C9126FD94CFDF91CF911F910F91FF9069
:1005A000EF9008951F920F920FB60F9211240BB681
:1005B0000F922F933F934F935F936F937F938F93FC
:1005C0009F93AF93BF93EF93FF9348E850E064E8A5
:1005D00070E081E090E00E940B02FF91EF91BF91EB
:1005E000AF919F918F917F916F915F914F913F91CB
:1005F0002F910F900BBE0F900FBE0F901F9018956C
:100600001F920F920FB60F9211240BB60F922F93D9
:100610003F934F935F936F937F938F939F93AF938A
:10062000BF93EF93FF9348E950E064E970E082E004
:1006300090E00E940B02FF91EF91BF91AF919F91CB
:100640008F917F916F915F914F913F912F910F907B
:100650000BBE0F900FBE0F901F9018951F920F9218
:100660000FB60F9211240BB60F922F933F934F9317
:100670005F936F937F938F939F93AF93BF93EF930A
:10068000FF9348EA50E064EA70E083E090E00E9463
:100690000B02FF91EF91BF91AF919F918F917F914D
:1006A0006F915F914F913F912F910F900BBE0F90E3
:1006B0000FBE0F901F9018951F920F920FB60F92BA
:1006C00011240BB60F922F933F934F935F936F9329
:1006D0007F938F939F93AF93BF93EF93FF9348E2E2
:1006E00051E064E271E080E090E00E940B02FF9133
:1006F000EF91BF91AF919F918F917F916F915F919A
:100700004F913F912F910F900BBE0F900FBE0F9006
:100710001F9018952091BB022033A0F4FC01208388
:10072000822F8F5F8093BB02822F90E0FC01EE0F3F
:10073000FF1FE80FF91FE054FD4F88EB9BE0928309
:10074000818308952FEFFC01208308950895CF93AE
:10075000DF931F921F92CDB7DEB7FC01862F608317
:100760007183428353832483358361E02A834983E1
:100770000E94840661E04981842F0E94840661E022
:100780002A81822F0F900F90DF91CF910C948406D5
:100790000F931F93CF93DF93EC018B016F3F710594
:1007A00009F080F461E08A810E94BC0660E08C81DF
:1007B0000E94BC06B8018881DF91CF911F910F91F3
:1007C0000C944004DF91CF911F910F9108950F93E6
:1007D0001F93CF93DF93EC018B016F3F710509F0FD
:1007E00080F460E08A810E94BC0661E08C810E94F6
:1007F000BC06B8018881DF91CF911F910F910C94B5
:100800004004DF91CF911F910F910895CF93DF9313
:10081000EC0161E08A810E94BC0661E08C810E944B
:10082000BC0661E08881DF91CF910C94BC068633D1
:1008300008F0865320917B00982F9870277F922B89
:1008400090937B0087702091000240E4249F9001E8
:100850001124822B80937C0080917A0080648093A5
:100860007A0080917A0086FDFCCF2091780030914B
:100870007900932F80E0AC01422B9A01C9010895C1
:100880001F93CF93DF93182FEB0161E00E94840642
:10089000209711F460E004C0CF3FD10539F461E046
:1008A000812FDF91CF911F910C94BC06E12FF0E0D6
:1008B000EC51FF4FE491E93009F460C098F4E43062
:1008C000C9F138F4E23039F158F5E13009F0ABC044
:1008D0001DC0E73009F440C008F046C0E63009F01A
:1008E000A2C032C0ED3009F476C030F4EB3009F428
:1008F00059C008F066C04CC0E03109F480C0E13155
:1009000009F487C0EF3009F08EC06FC084B58068ED
:1009100084BDC7BD8DC084B5806284BDC8BD88C09C
:1009200080918000806880938000D0938900C0937C
:1009300088007EC080918000806280938000D09388
:100940008B00C0938A0074C08091B000806880934F
:10095000B000C093B3006CC08091B00080628093FF
:10096000B000C093B40064C0809190008068809310
:100970009000D0939900C09398005AC08091900045
:10098000806280939000D0939B00C0939A0050C0E7
:1009900080919000886080939000D0939D00C093D8
:1009A0009C0046C08091A00080688093A000809148
:1009B000A0008F7B8093A000D093A900C093A800D3
:1009C00037C08091A00080628093A000D093AB00DC
:1009D000C093AA002DC08091A00088608093A000E1
:1009E000D093AD00C093AC0023C0809120018068FB
:1009F00080932001D0932901C093280119C08091D0
:100A00002001806280932001D0932B01C0932A01A2
:100A10000FC080912001886080932001D0932D0128
:100A2000C0932C0105C0C038D1050CF038CF32CFAF
:100A3000DF91CF911F9108951F920F920FB60F92E1
:100A400011242F933F938F939F93AF93BF938091E4
:100A5000500390915103A0915203B09153033091F0
:100A60005803232F2D5F2D3720F40196A11DB11DB2
:100A700005C0232F2A570296A11DB11D20935803AC
:100A80008093500390935103A0935203B093530368
:100A90008091540390915503A0915603B091570350
:100AA0000196A11DB11D8093540390935503A0930B
:100AB0005603B0935703BF91AF919F918F913F9190
:100AC0002F910F900FBE0F901F9018950F931F93AB
:100AD0009FB7F89400915403109155032091560349
:100AE0003091570386B5A89B06C08F3F21F00F5F5A
:100AF0001F4F2F4F3F4F9FBF322F212F102F002707
:100B0000080F111D211D311D42E0000F111F221F72
:100B1000331F4A95D1F7B801C9011F910F9108956C
:100B2000CF92DF92EF92FF92CF93DF936B017C0124
:100B30000E946605EB010EC00E9466056C1B7D0BD2
:100B4000683E734038F081E0C81AD108E108F10826
:100B5000C851DC4FC114D104E104F10469F7DF91FD
:100B6000CF91FF90EF90DF90CF900895789484B567
:100B7000826084BD84B5816084BD85B5826085BD99
:100B800085B5816085BDEEE6F0E08081816080837F
:100B9000E1E8F0E010828081826080838081816062
:100BA0008083E0E8F0E0808181608083E1EBF0E029
:100BB000808184608083E0EBF0E0808181608083CD
:100BC000E1E9F0E0808182608083808181608083C0
:100BD000E0E9F0E0808181608083E1EAF0E08081FB
:100BE00082608083808181608083E0EAF0E08081A0
:100BF00081608083E1E2F1E0808182608083808196
:100C000081608083E0E2F1E0808181608083EAE7B7
:100C1000F0E0808184608083808182608083808135
:100C2000816080838081806880831092C1000895F4
:100C3000893009F443C088F4843029F138F48230D3
:100C400059F1E8F4813009F05EC023C0873061F1CA
:100C500088F5863009F057C023C08D3009F440C0B4
:100C600020F48B30A9F1C0F52DC0803109F442C0C9
:100C7000813109F443C08F3009F045C037C08091FD
:100C800080008F7703C0809180008F7D80938000EB
:100C9000089584B58F7702C084B58F7D84BD089593
:100CA0008091B0008F7703C08091B0008F7D8093DA
:100CB000B0000895809190008F7707C080919000D8
:100CC0008F7D03C080919000877F8093900008956E
:100CD0008091A0008F7707C08091A0008F7D03C016
:100CE0008091A000877F8093A000089580912001CB
:100CF0008F7707C0809120018F7D03C080912001F4
:100D0000877F809320010895CF93DF9390E0FC01CB
:100D1000E65DFE4F4491FC01E059FE4F849188232B
:100D200041F190E0880F991FFC01E053FE4F25919F
:100D30003491D9018A549E4FFC0185919491C82F1A
:100D4000D92F9FB7F8948C91611106C040958423E8
:100D50008C938881842308C0623041F4242F20952D
:100D600082238C938881842B888302C0842B8C936C
:100D70009FBFDF91CF9108950F931F93CF93DF9380
:100D80001F92CDB7DEB7282F30E0F901EC51FF4FAD
:100D90008491F901E65DFE4F1491F901E059FE4F8F
:100DA00004910023D1F0882321F069830E94180662
:100DB0006981E02FF0E0EE0FFF1FEA54FE4F8591AE
:100DC0009491DC019FB7F8948C91611103C0109548
:100DD000812301C0812B8C939FBF0F90DF91CF9116
:100DE0001F910F910895CF92DF92EF92FF920F9390
:100DF0001F93CF93DF936C01EB017A01E60EF71E90
:100E000000E010E00BC06991D601ED91FC910190DA
:100E1000F081E02DC6011995080F191FCE15DF05C9
:100E200091F7C801DF91CF911F910F91FF90EF9043
:100E3000DF90CF9008956115710581F0DB010D9071
:100E40000020E9F7AD0141505109461B570BDC0169
:100E5000ED91FC910280F381E02D199480E090E007
:100E600008950C941B07DC01ED91FC910190F08139
:100E7000E02D19940F931F93CF93DF93EC016DE056
:100E80000E9433078C016AE0CE010E9433079C0167
:100E9000200F311FC901DF91CF911F910F9108954C
:100EA0000F931F93CF93DF93EC010E941B078C01DC
:100EB000CE010E943A079801280F391FC901DF911E
:100EC000CF911F910F9108954F925F926F927F92F1
:100ED0009F92AF92BF92CF92DF92EF92FF920F93C9
:100EE0001F93CF93DF93CDB7DEB7A1970FB6F894DA
:100EF000DEBF0FBECDBF5C016A017B01922E19A23D
:100F000081E0821710F08AE0982E8E010F5D1F4F4E
:100F1000492C512C612C712CC701B601A3019201FF
:100F20000E94E10C8C2D929E801911240150110910
:100F30008A3014F4805D01C0895CF8018083690106
:100F40007A01C114D104E104F10431F7B801C501FB
:100F50000E941B07A1960FB6F894DEBF0FBECDBF4F
:100F6000DF91CF911F910F91FF90EF90DF90CF9085
:100F7000BF90AF909F907F906F905F904F9008953B
:100F8000CF92DF92EF92FF920F931F93CF93DF9355
:100F9000EC016A017B012115310579F4E881F981C1
:100FA0000190F081E02D642FDF91CF911F910F917F
:100FB000FF90EF90DF90CF9019942A30310519F40B
:100FC00077FD0EC02AE0B701A601CE01DF91CF91D7
:100FD0001F910F91FF90EF90DF90CF900C946407DA
:100FE0006DE20E9433078C0144275527BA014C1942
:100FF0005D096E097F092AE0CE010E946407080F8F
:10100000191FC801DF91CF911F910F91FF90EF90B1
:10101000DF90CF9008950F931F93CF93DF93EC0150
:101020009A01AB01662757FD6095762F0E94C00795
:101030008C01CE010E943A079801280F391FC9017F
:10104000DF91CF911F910F910895FC0184859585C3
:10105000FC01E05CFF4F20813181FC01EE5BFF4F22
:1010600080819181281B390B2F733327C901089583
:10107000FC0184859585FC01E05CFF4F4081518136
:10108000FC01EE5BFF4F208131814217530741F095
:101090000190F081E02DE80FF91F208130E002C0BF
:1010A0002FEF3FEFC9010895FC0184859585FC0170
:1010B000E05CFF4F40815181FC01EE5BFF4F2081DE
:1010C00031814217530781F0A081B181A80FB91F68
:1010D0008C91208131812F5F3F4F2F7333273183D4
:1010E0002083282F30E002C02FEF3FEFC901089581
:1010F000FC0181A1882329F0A489B5898C9186FF00
:10110000FBCF11A20895CF93DF93FC01268537858D
:10111000D901A05CBF4F8D919C91119701968F735F
:101120009927E901CE5BDF4F4881598184179507E4
:10113000D9F30D90BC91A02DA20FB31F6C93A6857F
:10114000B785A05CBF4F11969C938E93A689B789F3
:101150002C9181E090E0078C02C0880F991F0A94BF
:10116000E2F7282B2C9381E081A30488F589E02DF8
:1011700080818064808381E090E0DF91CF91089549
:10118000FB01E05CFF4F208131812F5F3F4F2F73C8
:101190003327DB01AE5BBF4F4D915C9124173507C0
:1011A00039F0A081B181A60FB71F8C9331832083C2
:1011B000089508951F920F920FB60F9211240BB647
:1011C0000F922F933F934F935F936F937F938F93E0
:1011D0009F93AF93BF93EF93FF938091C00082FDE5
:1011E00007C08091C6006DEB75E00E94C00802C088
:1011F0008091C600FF91EF91BF91AF919F918F9128
:101200007F916F915F914F913F912F910F900BBE06
:101210000F900FBE0F901F90189508951F920F9278
:101220000FB60F9211240BB60F922F933F934F934B
:101230005F936F937F938F939F93AF93BF93EF933E
:10124000FF938091C80082FD07C08091CE0065E3C6
:1012500075E00E94C00802C08091CE00FF91EF911E
:10126000BF91AF919F918F917F916F915F914F91BE
:101270003F912F910F900BBE0F900FBE0F901F90BC
:10128000189508951F920F920FB60F9211240BB666
:101290000F922F933F934F935F936F937F938F930F
:1012A0009F93AF93BF93EF93FF938091D00082FD04
:1012B00007C08091D6006DEA74E00E94C00802C0A9
:1012C0008091D600FF91EF91BF91AF919F918F9147
:1012D0007F916F915F914F913F912F910F900BBE36
:1012E0000F900FBE0F901F90189508951F920F92A8
:1012F0000FB60F9211240BB60F922F933F934F937B
:101300005F936F937F938F939F93AF93BF93EF936D
:10131000FF938091300182FD07C08091360165E224
:1013200074E00E94C00802C080913601FF91EF91E5
:10133000BF91AF919F918F917F916F915F914F91ED
:101340003F912F910F900BBE0F900FBE0F901F90EB
:1013500018958FEB93E00E942508892B11F00E94CD
:10136000D9088DE993E00E942508892B11F00E948D
:101370000D098BE793E00E942508892B11F00E944C
:10138000410989E593E00E942508892B11F00C940E
:10139000750908951F920F920FB60F9211240BB684
:1013A0000F922F933F938F939F93EF93FF932091EF
:1013B000B9053091BA058091BB059091BC052817FD
:1013C000390731F48091C1008F7D8093C10014C032
:1013D000E091BB05F091BC05E758FA4F2081809160
:1013E000BB059091BC0501968F7399279093BC051E
:1013F0008093BB052093C600FF91EF919F918F9141
:101400003F912F910F900BBE0F900FBE0F901F902A
:1014100018951F920F920FB60F9211240BB60F92D0
:101420002F933F938F939F93EF93FF9320913105D9
:101430003091320580913305909134052817390792
:1014400031F48091C9008F7D8093C90014C0E09170
:101450003305F0913405EF50FB4F20818091330527
:101460009091340501968F7399279093340580935A
:1014700033052093CE00FF91EF919F918F913F9183
:101480002F910F900BBE0F900FBE0F901F901895CD
:101490001F920F920FB60F9211240BB60F922F933B
:1014A0003F938F939F93EF93FF932091A9043091E3
:1014B000AA048091AB049091AC042817390731F449
:1014C0008091D1008F7D8093D10014C0E091AB0456
:1014D000F091AC04E759FB4F20818091AB049091CF
:1014E000AC0401968F7399279093AC048093AB045E
:1014F0002093D600FF91EF919F918F913F912F9173
:101500000F900BBE0F900FBE0F901F9018951F925B
:101510000F920FB60F9211240BB60F922F933F9399
:101520008F939F93EF93FF93209121043091220496
:1015300080912304909124042817390731F4809175
:1015400031018F7D8093310114C0E0912304F0912B
:101550002404EF51FC4F20818091230490912404B6
:1015600001968F73992790932404809323042093EA
:101570003601FF91EF919F918F913F912F910F90A5
:101580000BBE0F900FBE0F901F901895CF92DF9259
:10159000EF92FF92CF93DF93EC016A017B0141153B
:1015A00081EE580761057105F9F0EC89FD8981E04C
:1015B00090E008A002C0880F991F0A94E2F7808388
:1015C00060E079E08DE390E0A70196010E94E10CD4
:1015D000215031094109510956954795379527956D
:1015E000211580E1380798F0EC89FD89108260E8C8
:1015F00074E88EE190E0A70196010E94E10C215071
:101600003109410951095695479537952795E8893C
:10161000F9893083EA89FB89208319A2EE89FF8941
:10162000408181E090E09C010C8C02C0220F331FAE
:101630000A94E2F7422B4083EE89FF8940819C01A6
:101640000D8C02C0220F331F0A94E2F7422B408315
:10165000EE89FF8940819C010E8C02C0220F331F4E
:101660000A94E2F7422B4083EE89FF8920810F8C98
:1016700002C0880F991F0A94E2F780958223808325
:10168000DF91CF91FF90EF90DF90CF900895CF93AF
:101690001092C2031092C10388EE93E0A0E0B0E084
:1016A0008093C3039093C403A093C503B093C60370
:1016B0002FE832E03093C0032093BF034DEB55E099
:1016C0005093CC034093CB0349E755E05093CE03AE
:1016D0004093CD0345EC50E05093D0034093CF03AB
:1016E00044EC50E05093D2034093D10340EC50E0DF
:1016F0005093D4034093D30341EC50E05093D6036E
:101700004093D50342EC50E05093D8034093D70365
:1017100046EC50E05093DA034093D903C4E0C09301
:10172000DB03F3E0F093DC03E7E0E093DD0375E037
:101730007093DE0361E06093DF031092A0031092C8
:101740009F038093A1039093A203A093A303B0935C
:10175000A40330939E0320939D0345E355E05093EB
:10176000AA034093A90341EF54E05093AC03409384
:10177000AB034DEC50E05093AE034093AD034CEC03
:1017800050E05093B0034093AF0348EC50E05093C7
:10179000B2034093B10349EC50E05093B40340933B
:1017A000B3034AEC50E05093B6034093B5034EECBC
:1017B00050E05093B8034093B703C093B903F0933C
:1017C000BA03E093BB037093BC036093BD03109214
:1017D0007E0310927D0380937F0390938003A093F8
:1017E0008103B093820330937C0320937B034DEA03
:1017F00054E0509388034093870349E654E05093A4
:101800008A034093890345ED50E050938C03409345
:101810008B0344ED50E050938E0340938D0340EDD5
:1018200050E05093900340938F0341ED50E050936C
:1018300092034093910342ED50E050939403409300
:10184000930346ED50E05093960340939503C09365
:101850009703F0939803E093990370939A0360932E
:101860009B0310925C0310925B0380935D03909343
:101870005E03A0935F03B093600330935A032093F9
:10188000590385E294E0909366038093650381EEAB
:1018900093E0909368038093670385E391E09093CE
:1018A0006A038093690384E391E090936C038093CF
:1018B0006B0380E391E090936E0380936D0381E36B
:1018C00091E09093700380936F0382E391E0909393
:1018D00072038093710386E391E090937403809385
:1018E0007303C0937503F0937603E09377037093CB
:1018F000780360937903CF9108954F925F926F922E
:101900007F92AF92BF92CF92DF92EF92FF920F93AE
:101910001F93CF93DF93CDB7DEB729013A01621B46
:10192000730B840B950B2A893B894C895D892A1995
:101930003B094C095D092A8B3B8B4C8B5D8B9B01D2
:10194000AC016A897B898C899D890E94D10CE4183D
:10195000F50806091709A80197010E94030D2A0D31
:101960003B1D4C1D5D1DB901CA01DF91CF911F9137
:101970000F91FF90EF90DF90CF90BF90AF907F904E
:101980006F905F904F9008950E94B6050E942A01C3
:10199000C9EAD9E00E94BE012097E1F30E94A9099B
:1019A000F9CFDB018F939F930E941F0DBF91AF91E1
:1019B000A29F800D911DA39F900DB29F900D1124A9
:1019C0000895A1E21A2EAA1BBB1BFD010DC0AA1F80
:1019D000BB1FEE1FFF1FA217B307E407F50720F098
:1019E000A21BB30BE40BF50B661F771F881F991F13
:1019F0001A9469F760957095809590959B01AC015C
:101A0000BD01CF010895052E97FB16F4009407D071
:101A100057FD0DD00E94E10C07FC09D07EF4909593
:101A20008095709561957F4F8F4F9F4F089550958A
:101A30004095309521953F4F4F4F5F4F08950E943D
:101A40002E0DA59F900DB49F900DA49F800D911D0C
:101A5000112408950790F691E02D1994A29FB001EA
:101A6000B39FC001A39F01D0B29F700D811D1124AF
:081A7000911D0895F894FFCFC9
:101A78000153657269616C20636F6D6D756E696382
:101A88006174696F6E2065737461626C69736865EF
:101A9800640047726162206973206E6F7420676FFB
:101AA800696E6720746F207475726E2E00446966C3
:101AB800663A005365636F6E646172792041726D96
:101AC800206973206E6F7420676F696E6720746F6A
:101AD800207475726E2E002C0100580200B00400AC
:101AE800600900C01200802500403800004B0080CB
:101AF800700000960000E10000C2010000000083B1
:0C1B080008F30625085408380878080087
:00000001FF
