:100000000C94F7000C9428010C9428010C942801FE
:100010000C9428010C9428010C9428010C942801BC
:100020000C9428010C9428010C9428010C942801AC
:100030000C9428010C9428010C9428010C9428019C
:100040000C9428010C9445040C9428010C9428016C
:100050000C9428010C9428010C9428010C94D907C5
:100060000C9428010C94A90B0C94990C0C94280165
:100070000C9428010C9428010C9428010C9428015C
:100080000C9473040C9428010C9428010C942801FE
:100090000C94DD0B0C94D80C0C9428010C942801C2
:1000A0000C9428010C9428010C94A1040C942801B0
:1000B0000C9428010C9428010C9428010C94CF0472
:1000C0000C9428010C9428010C9428010C94110C18
:1000D0000C94170D0C9428010C94450C0C94560D9F
:1000E0000C9428010000090A02080B0C0D070603F6
:1000F00004010000000000000000000000000000FB
:1001000000000000000000000000000000000000EF
:1001100011100F00000000000000000000000000AF
:100120000000000000000000000001021020200874
:100130000810204010204080020102010804020142
:1001400001020408102040808040201008040201B1
:10015000800402018040201008040201080402010A
:100160000102040810204080010204081020408091
:1001700005050505070508080808020202020A0A23
:100180000808040404040101010101010101030341
:10019000030303030303040707070C0C0C0C0C0CEC
:1001A0000C0C0202020206060606060606060B0BE9
:1001B0000B0B0B0B0B0B00002200250028002B0063
:1001C0002E003100340002010000050108010B017E
:1001D00000002100240027002A002D0030003300F9
:1001E00001010000040107010A017202160E112428
:1001F0001FBECFEFD1E2DEBFCDBF00E00CBF12E0EB
:10020000A0E0B2E0EEE2F0E200E00BBF02C0079037
:100210000D92AC3BB107D9F716E0ACEBB2E001C0F0
:100220001D92A632B107E1F711E0CEEED1E000E079
:1002300006C022970109FE010BBF0E940510CA3EAD
:10024000D10780E00807A9F70E94930F0C941510BE
:100250000C94000040E855E260E070E084EE93E02A
:100260000E94950D61E072E084EE93E00E941F0A07
:1002700064E070E083ED92E00E94CC0565E070E000
:1002800080ED92E00E94CC0566E070E08DEC92E09B
:100290000E94CC0567E070E08AEC92E00E94CC05F9
:1002A00027E130E046E150E062E070E084EC92E06B
:1002B0000E94640629E130E048E150E063E070E02C
:1002C0008EEB92E00E94640686ED92E00E94C202EC
:1002D00086ED92E00C94D502CF93DF93EC018D96DE
:1002E0008B35910588F46AE570E06C1B7D0B83ED1E
:1002F00092E00E940506BE01615A7F4F80ED92E0B8
:10030000DF91CF910C940506DF91CF910895AF92C4
:10031000BF92CF92DF92EF92FF920F931F9381E0F3
:100320000E94D406BC01882777FD8095982F1F92E4
:100330001F921F922CE62F934EE9A42EBB24BA9451
:10034000CB2CDB2C19EBE12E12E0F12E00E010E0BB
:1003500020E030E0A9010E944C0F0F900F900F9009
:100360000F90CB011F910F91FF90EF90DF90CF90F6
:10037000BF90AF9008950F931F93CF93DF938C019D
:100380008E599F4F8F3C9105D0F50E948701E8015F
:10039000C81BD90BCE0104960997A0F463E472E060
:1003A00084EE93E00E941F0A6DE372E084EE93E016
:1003B0000E94000A4AE050E0BE0184EE93E00E94F1
:1003C000DA0A12C06FEF70E084EC92E01C161D0692
:1003D0001CF40E94850608C00E94A40605C00E9465
:1003E0008701E801C81BD90B25962B97C0F784EC31
:1003F00092E0DF91CF911F910F910C94C306DF9192
:10040000CF911F910F910895CF93DF931F921F9269
:10041000CDB7DEB767E672E084EE93E00E941F0A74
:100420004AE65FEF6AE67FEF86ED92E00E94DC022B
:1004300080E090E00E946C0183ED9FEF0E94BB0181
:1004400063ED7FEF8AEC92E00E94050668EE73E0B0
:1004500080E090E00E945F0840E050E060E070E0E3
:1004600086ED92E00E94DC0268EE73E080E090E0AE
:100470000E945F084CE251E06CE271E086ED92E090
:100480000E94DC0216C0198100E08A819801282BA5
:10049000C9019093BD028093BC02843F914048F40F
:1004A00040E050E060E070E086ED92E00E94DC0207
:1004B0000CC022E0AE014F5F5F4F6FE186ED92E02E
:1004C0000E944E038111DFCFEBCF6FE772E084EE25
:1004D00093E00E941F0A68EE73E080E090E00E94C3
:1004E0005F08F3CF4AE050E062EC73E086ED92E003
:1004F0000E94A00283ED92E00E94FD0480ED92E054
:100500000E94FD048DEC92E00E94FD048AEC92E0D2
:100510000E94FD0484EC92E00E9463068EEB92E060
:100520000C946306DC01ED91FC910190F081E02DCB
:100530001994DC01ED91FC910190F081E02D19946A
:10054000DC0115967C936E9314974C30510570F432
:10055000FA01EE0FFF1FE40FF51FE957FD4F208151
:1005600031814281642FA90170E004C040E051EE66
:1005700060E070E04D935D936D937C9313971696B6
:100580001C920895CF93DF93EC01488159816A81D1
:100590007B818C819D810E94950D60E870E08C814B
:1005A0009D81DF91CF910C94990263E870E0FC018A
:1005B000848195810C949902EF92FF920F931F937F
:1005C000CF93DF93EC018B017A0161E970E08C81BC
:1005D0009D810E9499026F2D70E08C819D810E9407
:1005E0009202B70177278C819D810E949902612F29
:1005F00070E08C819D810E949202B80177278C81E6
:100600009D81DF91CF911F910F91FF90EF900C94FE
:100610009902BF92CF92DF92EF92FF920F931F93B6
:10062000CF93DF93EC018B01B42E29C00E942308E5
:100630006B017C0188ECC80ED11CE11CF11C07C0C9
:100640000E942308C616D706E806F906E0F08C815A
:100650009D81DC01ED91FC910480F581E02D1995DF
:10066000892B71F3BA948C819D81DC01ED91FC9111
:100670000680F781E02D1995F80181938F01B11063
:10068000D5CF81E001C080E0DF91CF911F910F9124
:10069000FF90EF90DF90CF90BF900895CF92DF92C0
:1006A000FF920F931F93CF93DF931F92CDB7DEB7C7
:1006B0006C01F62E8A016EE870E0DC0114968D91D3
:1006C0009C91159729830E949902F6018481958156
:1006D000DC01ED91FC910190F081E02D6F2D1995D9
:1006E0002981422FB801C6010F90DF91CF911F9150
:1006F0000F91FF90DF90CF900C940903EF92FF923F
:100700000F931F93CF93DF938B017A01EC01DC01F0
:10071000AF51BD4F8C9187FF05C0DB0111961C9234
:100720001E9222C02CE02C9FC0012D9F900D112401
:100730002C91AC01420F511D27FD5A952091E002EA
:1007400030E04217530784F42C91FC01E20FF11DB5
:1007500027FDFA959F01EE0FFF1FE20FF31FEB51EC
:10076000FD4F208126FD45C0FE01EF51FD4F8081E8
:100770008F5F80832CE02C9FC0012D9F900D112452
:100780002081AC01420F511D27FD5A952091E002B6
:1007900030E0421753070CF03EC020812C300CF49F
:1007A00042C039C02081820F911D27FD9A95FC011E
:1007B000EE0FFF1FE80FF91FEB51FD4F808161E045
:1007C0008F73DF91CF911F910F91FF90EF900C9459
:1007D0008B0980E49CE904C0F80180819181049632
:1007E000D70111969C938E93CF51DD4F8FEF888365
:1007F00045C02C91820F911D27FD9A95FC01EE0FAB
:10080000FF1FE80FF91FEB51FD4F808160E08F73F0
:100810000E948B09A9CFF8018081918104968034D0
:100820009C49B8F2D9CFD8012D913C914081BC01AF
:10083000640F711D47FD7A95AB01DB01AA0FBB1F49
:10084000A40FB51FAB51BD4F11964D915C911297FE
:10085000240F351FD70111963C932E932081AC01B4
:10086000420F511D27FD5A95DA01AA0FBB1FA40F95
:10087000B51FAB51BD4F2C9126FD94CFDF91CF9189
:100880001F910F91FF90EF9008951F920F920FB656
:100890000F9211240BB60F922F933F934F935F93B8
:1008A0006F937F938F939F93AF93BF93EF93FF9338
:1008B00048E850E064E870E081E090E00E947E0348
:1008C000FF91EF91BF91AF919F918F917F916F9128
:1008D0005F914F913F912F910F900BBE0F900FBEE4
:1008E0000F901F9018951F920F920FB60F92112420
:1008F0000BB60F922F933F934F935F936F937F931A
:100900008F939F93AF93BF93EF93FF9348E950E08A
:1009100064E970E082E090E00E947E03FF91EF9135
:10092000BF91AF919F918F917F916F915F914F9107
:100930003F912F910F900BBE0F900FBE0F901F9005
:1009400018951F920F920FB60F9211240BB60F92AB
:100950002F933F934F935F936F937F938F939F93C7
:10096000AF93BF93EF93FF9348EA50E064EA70E0DF
:1009700083E090E00E947E03FF91EF91BF91AF91E1
:100980009F918F917F916F915F914F913F912F91A7
:100990000F900BBE0F900FBE0F901F9018951F92D7
:1009A0000F920FB60F9211240BB60F922F933F9315
:1009B0004F935F936F937F938F939F93AF93BF9367
:1009C000EF93FF9348E251E064E271E080E090E051
:1009D0000E947E03FF91EF91BF91AF919F918F9104
:1009E0007F916F915F914F913F912F910F900BBE2F
:1009F0000F900FBE0F901F9018952091E0022033AA
:100A0000A0F4FC012083822F8F5F8093E002822F6D
:100A100090E0FC01EE0FFF1FE80FF91FEB51FD4FB7
:100A200088EB9BE09283818308952FEFFC01208364
:100A30000895DF92EF92FF920F931F93CF93DF936E
:100A4000EC01D62E7A0189018881803308F094C0A8
:100A500061E08D2D0E9453098881A82FB0E0FD012F
:100A6000EE0FFF1FEA0FFB1FEB51FD4F2D2D2F73D4
:100A70009081907C922B908360E272E06E197F09E6
:100A800077FF02C06D5F7F4F759567957595679588
:100A9000698340E659E0401B510B57FF02C04D5F90
:100AA0005F4F55954795559547954A836CE00E9451
:100AB000B00F9CE0899FB001112420E030E0A90133
:100AC000460F571FFA01EE0FFF1FE40FF51FEB5102
:100AD000FD4F908196FD44C02F5F3F4F2C30310574
:100AE00071F74CC01092800082E0809381001092D8
:100AF000850010928400B19A80916F00826080938B
:100B00006F002EC08230910569F41092900082E04F
:100B100080939100109295001092940088BB80936E
:100B200071001EC08330910569F41092A00082E02C
:100B30008093A1001092A5001092A40089BB80931D
:100B400072000EC0892B61F41092200182E0809324
:100B5000210110922501109224018ABB8093730019
:100B6000888190E0FC01EE0FFF1FE80FF91FEB51A9
:100B7000FD4F808180648083888106C090E0813051
:100B8000910509F0BFCFAECFDF91CF911F910F91AB
:100B9000FF90EF90DF90089520E639E040E252E0C8
:100BA0000C941905FC018081803370F5918128E84F
:100BB00030E0291B310997FD3395220F331F220F97
:100BC000331F621773077CF0928128E532E0291BFE
:100BD000310997FD3395220F331F220F331F621700
:100BE00073070CF49B014FB7F89490E0FC01EE0FF3
:100BF000FF1FE80FF91FEB51FD4F22503109220F63
:100C0000331F328321834FBF0895AF92BF92CF929B
:100C1000DF92EF92FF920F931F93CF93DF93EC013C
:100C2000603282E078070CF041C077FD04C0653B7C
:100C3000710524F405C060E070E002C064EB70E070
:100C4000298188E890E0821B910927FD9395880F00
:100C5000991F880F991F5C01CC24B7FCC094DC2C31
:100C6000882777FD8095982F2A8148E552E0421B1E
:100C7000510927FD5395440F551F440F551F8A01F5
:100C8000222717FD2095322F3F932F931F930F9309
:100C900014EBE12EF12C00E010E020E030E0A9019F
:100CA0000E944C0F0F900F900F900F90CE01DF918C
:100CB000CF911F910F91FF90EF90DF90CF90BF9059
:100CC000AF900C94D2050895CF93DF931F921F929B
:100CD000CDB7DEB7FC01862F6083718342835383D7
:100CE0002483358361E02A8349830E94530961E0AC
:100CF0004981842F0E94530961E02A81822F0F903D
:100D00000F90DF91CF910C9453090F931F93CF93C2
:100D1000DF93EC018B016F3F710509F080F461E016
:100D20008A810E948B0960E08C810E948B09B80146
:100D30008881DF91CF911F910F910C94FD06DF9177
:100D4000CF911F910F9108950F931F93CF93DF932E
:100D5000EC018B016F3F710509F080F460E08A813E
:100D60000E948B0961E08C810E948B09B801888107
:100D7000DF91CF911F910F910C94FD06DF91CF91E0
:100D80001F910F910895CF93DF93EC0161E08A8169
:100D90000E948B0961E08C810E948B0961E088814F
:100DA000DF91CF910C948B09863308F08653209104
:100DB0007B00982F9870277F922B90937B008770F1
:100DC0002091000240E4249F90011124822B809303
:100DD0007C0080917A00806480937A0080917A0010
:100DE00086FDFCCF2091780030917900932F80E030
:100DF000AC01422B9A01C90108951F93CF93DF9351
:100E0000182FEB0161E00E945309209711F460E074
:100E100004C0CF3FD10539F461E0812FDF91CF913C
:100E20001F910C948B09E12FF0E0EC51FF4FE491FE
:100E3000E93009F460C098F4E430C9F138F4E230E4
:100E400039F158F5E13009F0ABC01DC0E73009F4C5
:100E500040C008F046C0E63009F0A2C032C0ED3014
:100E600009F476C030F4EB3009F459C008F066C0DC
:100E70004CC0E03109F480C0E13109F487C0EF30A3
:100E800009F08EC06FC084B5806884BDC7BD8DC0B9
:100E900084B5806284BDC8BD88C0809180008068B0
:100EA00080938000D0938900C09388007EC0809199
:100EB0008000806280938000D0938B00C0938A0072
:100EC00074C08091B00080688093B000C093B3007C
:100ED0006CC08091B00080628093B000C093B40079
:100EE00064C080919000806880939000D0939900B6
:100EF000C09398005AC080919000806280939000C7
:100F0000D0939B00C0939A0050C08091900088605D
:100F100080939000D0939D00C0939C0046C0809128
:100F2000A00080688093A0008091A0008F7B8093B8
:100F3000A000D093A900C093A80037C08091A00062
:100F400080628093A000D093AB00C093AA002DC014
:100F50008091A00088608093A000D093AD00C093E2
:100F6000AC0023C080912001806880932001D09341
:100F70002901C093280119C08091200180628093CB
:100F80002001D0932B01C0932A010FC08091200132
:100F9000886080932001D0932D01C0932C0105C05F
:100FA000C038D1050CF038CF32CFDF91CF911F91EF
:100FB00008951F920F920FB60F9211242F933F9313
:100FC0008F939F93AF93BF93809175039091760316
:100FD000A0917703B091780330917D03232F2D5F8B
:100FE0002D3720F40196A11DB11D05C0232F2A57CE
:100FF0000296A11DB11D20937D03809375039093EC
:101000007603A0937703B09378038091790390914E
:101010007A03A0917B03B0917C030196A11DB11DC1
:101020008093790390937A03A0937B03B0937C031E
:10103000BF91AF919F918F913F912F910F900FBED4
:101040000F901F9018950F931F938FB7F8940091EE
:1010500075031091760320917703309178038FBF49
:10106000B801C9011F910F9108950F931F939FB766
:10107000F8940091790310917A0320917B033091C9
:101080007C0386B5A89B06C08F3F21F00F5F1F4FE2
:101090002F4F3F4F9FBF322F212F102F0027080FB8
:1010A000111D211D311D42E0000F111F221F331F92
:1010B0004A95D1F7B801C9011F910F910895CF92B8
:1010C000DF92EF92FF92CF93DF936B017C010E943E
:1010D0003508EB010EC00E9435086C1B7D0B683E85
:1010E000734038F081E0C81AD108E108F108C8510E
:1010F000DC4FC114D104E104F10469F7DF91CF9111
:10110000FF90EF90DF90CF900895789484B582603F
:1011100084BD84B5816084BD85B5826085BD85B59B
:10112000816085BDEEE6F0E0808181608083E1E84A
:10113000F0E0108280818260808380818160808382
:10114000E0E8F0E0808181608083E1EBF0E0808185
:1011500084608083E0EBF0E0808181608083E1E95E
:10116000F0E0808182608083808181608083E0E91B
:10117000F0E0808181608083E1EAF0E0808182603C
:101180008083808181608083E0EAF0E080818160FB
:101190008083E1E2F1E080818260808380818160F0
:1011A0008083E0E2F1E0808181608083EAE7F0E023
:1011B000808184608083808182608083808181607F
:1011C00080838081806880831092C1000895893077
:1011D00009F443C088F4843029F138F4823059F19D
:1011E000E8F4813009F05EC023C0873061F188F5F2
:1011F000863009F057C023C08D3009F440C020F478
:101200008B30A9F1C0F52DC0803109F442C0813185
:1012100009F443C08F3009F045C037C08091800089
:101220008F7703C0809180008F7D80938000089528
:1012300084B58F7702C084B58F7D84BD0895809179
:10124000B0008F7703C08091B0008F7D8093B00095
:101250000895809190008F7707C0809190008F7DD6
:1012600003C080919000877F8093900008958091C3
:10127000A0008F7707C08091A0008F7D03C0809170
:10128000A000877F8093A0000895809120018F7730
:1012900007C0809120018F7D03C080912001877F4E
:1012A000809320010895CF93DF9390E0FC01E65DE9
:1012B000FE4F4491FC01E059FE4F8491882341F197
:1012C00090E0880F991FFC01E053FE4F2591349167
:1012D000D9018A549E4FFC0185919491C82FD92F32
:1012E0009FB7F8948C91611106C0409584238C932C
:1012F0008881842308C0623041F4242F2095822302
:101300008C938881842B888302C0842B8C939FBF0D
:10131000DF91CF9108950F931F93CF93DF931F9287
:10132000CDB7DEB7282F30E0F901EC51FF4F8491A3
:10133000F901E65DFE4F1491F901E059FE4F049169
:101340000023D1F0882321F069830E94E708698196
:10135000E02FF0E0EE0FFF1FEA54FE4F85919491CD
:10136000DC019FB7F8948C91611103C01095812323
:1013700001C0812B8C939FBF0F90DF91CF911F9164
:101380000F910895CF92DF92EF92FF920F931F93E8
:10139000CF93DF936C01EB017A01E60EF71E00E0BC
:1013A00010E00BC06991D601ED91FC910190F081A4
:1013B000E02DC6011995080F191FCE15DF0591F70D
:1013C000C801DF91CF911F910F91FF90EF90DF90B7
:1013D000CF9008956115710581F0DB010D9000201B
:1013E000E9F7AD0141505109461B570BDC01ED9166
:1013F000FC910280F381E02D199480E090E0089543
:101400000C94EA09DC01ED91FC910190F081E02D52
:1014100019940F931F93CF93DF93EC016DE00E941B
:10142000020A8C016AE0CE010E94020A9C01200F90
:10143000311FC901DF91CF911F910F9108950F9333
:101440001F93CF93DF93EC010E94EA098C01CE0138
:101450000E94090A9801280F391FC901DF91CF9115
:101460001F910F9108954F925F926F927F929F927A
:10147000AF92BF92CF92DF92EF92FF920F931F93A2
:10148000CF93DF93CDB7DEB7A1970FB6F894DEBF49
:101490000FBECDBF5C016A017B01922E19A281E0D3
:1014A000821710F08AE0982E8E010F5D1F4F492C95
:1014B000512C612C712CC701B601A30192010E942D
:1014C000BC0F8C2D929E80191124015011098A3075
:1014D00014F4805D01C0895CF801808369017A01A0
:1014E000C114D104E104F10431F7B801C5010E942F
:1014F000EA09A1960FB6F894DEBF0FBECDBFDF910B
:10150000CF911F910F91FF90EF90DF90CF90BF9000
:10151000AF909F907F906F905F904F900895CF9283
:10152000DF92EF92FF920F931F93CF93DF93EC0123
:101530006A017B012115310579F4E881F981019077
:10154000F081E02D642FDF91CF911F910F91FF90DB
:10155000EF90DF90CF9019942A30310519F477FD80
:101560000EC02AE0B701A601CE01DF91CF911F91F5
:101570000F91FF90EF90DF90CF900C94330A6DE2C3
:101580000E94020A8C0144275527BA014C195D09B3
:101590006E097F092AE0CE010E94330A080F191F45
:1015A000C801DF91CF911F910F91FF90EF90DF90D5
:1015B000CF9008950F931F93CF93DF93EC019A017F
:1015C000AB01662757FD6095762F0E948F0A8C012C
:1015D000CE010E94090A9801280F391FC901DF9125
:1015E000CF911F910F910895FC0184859585FC0191
:1015F000E05CFF4F20813181FC01EE5BFF4F808179
:101600009181281B390B2F733327C9010895FC01E1
:1016100084859585FC01E05CFF4F40815181FC0190
:10162000EE5BFF4F208131814217530741F001905B
:10163000F081E02DE80FF91F208130E002C02FEF8C
:101640003FEFC9010895FC0184859585FC01E05CAC
:10165000FF4F40815181FC01EE5BFF4F20813181C2
:101660004217530781F0A081B181A80FB91F8C9157
:10167000208131812F5F3F4F2F73332731832083A8
:10168000282F30E002C02FEF3FEFC9010895FC0181
:1016900081A1882329F0A489B5898C9186FFFBCF8D
:1016A00011A20895CF93DF93FC0126853785D901D8
:1016B000A05CBF4F8D919C91119701968F739927D4
:1016C000E901CE5BDF4F4881598184179507D9F333
:1016D0000D90BC91A02DA20FB31F6C93A685B7856A
:1016E000A05CBF4F11969C938E93A689B7892C91CD
:1016F00081E090E0078C02C0880F991F0A94E2F7FE
:10170000282B2C9381E081A30488F589E02D80812A
:101710008064808381E090E0DF91CF910895FB01A8
:10172000E05CFF4F208131812F5F3F4F2F733327C4
:10173000DB01AE5BBF4F4D915C912417350739F04B
:10174000A081B181A60FB71F8C93318320830895A8
:1017500008951F920F920FB60F9211240BB60F929D
:101760002F933F934F935F936F937F938F939F93A9
:10177000AF93BF93EF93FF938091C00082FD07C0AA
:101780008091C60062EE75E00E948F0B02C08091CE
:10179000C600FF91EF91BF91AF919F918F917F9183
:1017A0006F915F914F913F912F910F900BBE0F90D2
:1017B0000FBE0F901F90189508951F920F920FB6AD
:1017C0000F9211240BB60F922F933F934F935F9379
:1017D0006F937F938F939F93AF93BF93EF93FF93F9
:1017E0008091C80082FD07C08091CE006AE575E057
:1017F0000E948F0B02C08091CE00FF91EF91BF91AC
:10180000AF919F918F917F916F915F914F913F9198
:101810002F910F900BBE0F900FBE0F901F90189539
:1018200008951F920F920FB60F9211240BB60F92CC
:101830002F933F934F935F936F937F938F939F93D8
:10184000AF93BF93EF93FF938091D00082FD07C0C9
:101850008091D60062ED74E00E948F0B02C08091EF
:10186000D600FF91EF91BF91AF919F918F917F91A2
:101870006F915F914F913F912F910F900BBE0F9001
:101880000FBE0F901F90189508951F920F920FB6DC
:101890000F9211240BB60F922F933F934F935F93A8
:1018A0006F937F938F939F93AF93BF93EF93FF9328
:1018B0008091300182FD07C0809136016AE474E0B6
:1018C0000E948F0B02C080913601FF91EF91BF9172
:1018D000AF919F918F917F916F915F914F913F91C8
:1018E0002F910F900BBE0F900FBE0F901F90189569
:1018F00084EE93E00E94F40A892B11F00E94A80B59
:1019000082EC93E00E94F40A892B11F00E94DC0B18
:1019100080EA93E00E94F40A892B11F00E94100CD7
:101920008EE793E00E94F40A892B11F00C94440C8A
:1019300008951F920F920FB60F9211240BB60F92BB
:101940002F933F938F939F93EF93FF932091DE0507
:101950003091DF058091E0059091E1052817390766
:1019600031F48091C1008F7D8093C10014C0E0915B
:10197000E005F091E105E256FA4F20818091E00503
:101980009091E10501968F7399279093E1058093DB
:10199000E0052093C600FF91EF919F918F913F91B9
:1019A0002F910F900BBE0F900FBE0F901F901895A8
:1019B0001F920F920FB60F9211240BB60F922F9316
:1019C0003F938F939F93EF93FF9320915605309110
:1019D000570580915805909159052817390731F41A
:1019E0008091C9008F7D8093C90014C0E091580593
:1019F000F0915905EA5EFA4F208180915805909147
:101A0000590501968F73992790935905809358052E
:101A10002093CE00FF91EF919F918F913F912F9155
:101A20000F900BBE0F900FBE0F901F9018951F9236
:101A30000F920FB60F9211240BB60F922F933F9374
:101A40008F939F93EF93FF932091CE043091CF0417
:101A50008091D0049091D1042817390731F48091F6
:101A6000D1008F7D8093D10014C0E091D004F0911B
:101A7000D104E257FB4F20818091D0049091D10492
:101A800001968F7399279093D1048093D00420936B
:101A9000D600FF91EF919F918F913F912F910F90E1
:101AA0000BBE0F900FBE0F901F9018951F920F92B4
:101AB0000FB60F9211240BB60F922F933F938F9373
:101AC0009F93EF93FF9320914604309147048091B8
:101AD0004804909149042817390731F48091310165
:101AE0008F7D8093310114C0E0914804F091490446
:101AF000EA5FFB4F20818091480490914904019650
:101B00008F7399279093490480934804209336015A
:101B1000FF91EF919F918F913F912F910F900BBE6D
:101B20000F900FBE0F901F901895CF92DF92EF92FB
:101B3000FF92CF93DF93EC016A017B01411581EEA7
:101B4000580761057105F9F0EC89FD8981E090E0A5
:101B500008A002C0880F991F0A94E2F7808360E012
:101B600079E08DE390E0A70196010E94BC0F21501F
:101B70003109410951095695479537952795211502
:101B800080E1380798F0EC89FD89108260E874E8FC
:101B90008EE190E0A70196010E94BC0F215031090F
:101BA000410951095695479537952795E889F9894F
:101BB0003083EA89FB89208319A2EE89FF8940815D
:101BC00081E090E09C010C8C02C0220F331F0A942C
:101BD000E2F7422B4083EE89FF8940819C010D8C06
:101BE00002C0220F331F0A94E2F7422B4083EE8992
:101BF000FF8940819C010E8C02C0220F331F0A9482
:101C0000E2F7422B4083EE89FF8920810F8C02C0CE
:101C1000880F991F0A94E2F7809582238083DF91D1
:101C2000CF91FF90EF90DF90CF900895CF931092D7
:101C3000E7031092E60388EE93E0A0E0B0E0809323
:101C4000E8039093E903A093EA03B093EB032FEA30
:101C500032E03093E5032093E40342EE55E05093E5
:101C6000F1034093F0034EE955E05093F3034093A2
:101C7000F20345EC50E05093F5034093F40344EC39
:101C800050E05093F7034093F60340EC50E050933C
:101C9000F9034093F80341EC50E05093FB03409369
:101CA000FA0342EC50E05093FD034093FC0346ECF2
:101CB00050E05093FF034093FE03C4E0C093000440
:101CC000F3E0F0930104E7E0E093020475E0709321
:101CD000030461E0609304041092C5031092C403EE
:101CE0008093C6039093C703A093C803B093C9031E
:101CF0003093C3032093C2034AE555E05093CF03CA
:101D00004093CE0346E155E05093D1034093D00376
:101D10004DEC50E05093D3034093D2034CEC50E091
:101D20005093D5034093D40348EC50E05093D7032D
:101D30004093D60349EC50E05093D9034093D80325
:101D40004AEC50E05093DB034093DA034EEC50E052
:101D50005093DD034093DC03C093DE03F093DF0375
:101D6000E093E0037093E1036093E2031092A30316
:101D70001092A2038093A4039093A503A093A603BB
:101D8000B093A7033093A1032093A00342ED54E046
:101D90005093AD034093AC034EE854E05093AF032F
:101DA0004093AE0345ED50E05093B1034093B00330
:101DB00044ED50E05093B3034093B20340ED50E044
:101DC0005093B5034093B40341ED50E05093B703F3
:101DD0004093B60342ED50E05093B9034093B803EB
:101DE00046ED50E05093BB034093BA03C093BC034D
:101DF000F093BD03E093BE037093BF036093C003F1
:101E00001092810310928003809382039093830346
:101E1000A0938403B093850330937F0320937E03C4
:101E20008AE494E090938B0380938A0386E094E0A5
:101E300090938D0380938C0385E391E090938F03BF
:101E400080938E0384E391E09093910380939003B9
:101E500080E391E0909393038093920381E391E078
:101E6000909395038093940382E391E0909397037A
:101E70008093960386E391E090939903809398036F
:101E8000C0939A03F0939B03E0939C0370939D038C
:101E900060939E03CF9108954F925F926F927F92CD
:101EA000AF92BF92CF92DF92EF92FF920F931F9368
:101EB000CF93DF93CDB7DEB729013A01621B730BD5
:101EC000840B950B2A893B894C895D892A193B092A
:101ED0004C095D092A8B3B8B4C8B5D8B9B01AC01C4
:101EE0006A897B898C899D890E94A00FE418F50876
:101EF00006091709A80197010E94DE0F2A0D3B1D54
:101F00004C1D5D1DB901CA01DF91CF911F910F9149
:101F1000FF90EF90DF90CF90BF90AF907F906F9049
:101F20005F904F9008950E9485080E942A01C8E79B
:101F3000DCE00E9404022097E1F30E94780CF9CFC4
:101F4000DB018F939F930E94FA0FBF91AF91A29FE5
:101F5000800D911DA39F900DB29F900D11240895A7
:101F6000991B79E004C0991F961708F0961B881FEB
:101F70007A95C9F780950895A1E21A2EAA1BBB1B7A
:101F8000FD010DC0AA1FBB1FEE1FFF1FA217B30745
:101F9000E407F50720F0A21BB30BE40BF50B661F5B
:101FA000771F881F991F1A9469F76095709580951F
:101FB00090959B01AC01BD01CF010895052E97FBC3
:101FC00016F4009407D057FD0DD00E94BC0F07FCFB
:101FD00009D07EF490958095709561957F4F8F4FD5
:101FE0009F4F089550954095309521953F4F4F4F05
:101FF0005F4F08950E940910A59F900DB49F900D0A
:10200000A49F800D911D112408950790F691E02D55
:102010001994A29FB001B39FC001A39F01D0B29FAA
:0E202000700D811D1124911D0895F894FFCFBD
:10202E000153657269616C20636F6D6D756E6963C6
:10203E006174696F6E2065737461626C6973686533
:10204E00640047726162206973206E6F7420676F3F
:10205E00696E6720746F207475726E2E0044696607
:10206E00663A005365636F6E646172792041726DDA
:10207E00206973206E6F7420676F696E6720746FAE
:10208E00207475726E2E00616C69676E696E6720C2
:10209E0061742067616D657461626C652E2E006CD3
:1020AE006F6F70696E67002C0100580200B004005B
:1020BE00600900C01200802500403800004B0080EF
:1020CE00700000960000E10000C201000000005206
:0C20DE000BC209F40A230B070B470B0090
:00000001FF
