:100000000C94F7000C9428010C9428010C942801FE
:100010000C9428010C9428010C9428010C942801BC
:100020000C9428010C9428010C9428010C942801AC
:100030000C9428010C9428010C9428010C9428019C
:100040000C9428010C946E020C9428010C94280145
:100050000C9428010C9428010C9428010C94700431
:100060000C9428010C946B070C945B080C942801E9
:100070000C9428010C9428010C9428010C9428015C
:100080000C949C020C9428010C9428010C942801D7
:100090000C949F070C949A080C9428010C94280146
:1000A0000C9428010C9428010C94CA020C94280189
:1000B0000C9428010C9428010C9428010C94F8024B
:1000C0000C9428010C9428010C9428010C94D3075B
:1000D0000C94D9080C9428010C9407080C94180966
:1000E0000C9428010000090A02080B0C0D070603F6
:1000F00004010000000000000000000000000000FB
:1001000000000000000000000000000000000000EF
:1001100011100F00000000000000000000000000AF
:100120000000000000000000000001021020200874
:100130000810204010204080020102010804020142
:1001400001020408102040808040201008040201B1
:10015000800402018040201008040201080402010A
:100160000102040810204080010204081020408091
:1001700005050505070508080808020202020A0A23
:100180000808040404040101010101010101030341
:10019000030303030303040707070C0C0C0C0C0CEC
:1001A0000C0C0202020206060606060606060B0BE9
:1001B0000B0B0B0B0B0B00002200250028002B0063
:1001C0002E003100340002010000050108010B017E
:1001D00000002100240027002A002D0030003300F9
:1001E00001010000040107010A016901D809112475
:1001F0001FBECFEFD1E2DEBFCDBF00E00CBF12E0EB
:10020000A0E0B2E0E6E8F6E100E00BBF02C0079034
:100210000D92AE35B107D9F715E0AEE5B2E001C0F9
:100220001D92A33CB107E1F711E0CEEED1E000E072
:1002300006C022970109FE010BBF0E943D0BCA3E7A
:10024000D10780E00807A9F70E940E0B0C94410B20
:100250000C94000040E051EE60E070E081E893E033
:100260000E94570960E072E081E893E00E94A206D4
:1002700027E130E046E150E062E070E084E692E0A1
:100280000E94430329E130E048E150E063E070E080
:100290008EE592E00C94430361E272E081E893E022
:1002A0000E94A2066FEF70E08EE592E00E94640368
:1002B00068EE73E080E090E00E94E4048EE592E056
:1002C0000E94830368EE73E080E090E00E94E40403
:1002D000F9CF4AE050E06FE573E083E792E00E94D7
:1002E000850180E792E00E9426038DE692E00E945D
:1002F00026038AE692E00E94260384E692E00E94AA
:1003000042038EE592E00C944203DC0115967C9347
:100310006E9314974C30510570F4FA01EE0FFF1FE5
:10032000E40FF51FE75DFD4F208131814281642F8D
:10033000A90170E004C040E051EE60E070E04D9330
:100340005D936D937C93139716961C920895EF928C
:10035000FF920F931F93CF93DF938B017A01EC01F0
:10036000DC01A258BD4F8C9187FF05C0DB011196BF
:100370001C921E9222C02CE02C9FC0012D9F900D3C
:1003800011242C91AC01420F511D27FD5A9520914B
:100390007D0230E04217530784F42C91FC01E20FF8
:1003A000F11D27FDFA959F01EE0FFF1FE20FF31FCE
:1003B000EE57FD4F208126FD45C0FE01E258FD4F5E
:1003C00080818F5F80832CE02C9FC0012D9F900D3A
:1003D00011242081AC01420F511D27FD5A95209117
:1003E0007D0230E0421753070CF03EC020812C30D4
:1003F0000CF442C039C02081820F911D27FD9A95CF
:10040000FC01EE0FFF1FE80FF91FEE57FD4F808133
:1004100061E08F73DF91CF911F910F91FF90EF906B
:100420000C94100680E49CE904C0F801808191815D
:100430000496D70111969C938E93C258DD4F8FEF8F
:10044000888345C02C91820F911D27FD9A95FC0150
:10045000EE0FFF1FE80FF91FEE57FD4F808160E0A0
:100460008F730E941006A9CFF801808191810496B4
:1004700080349C49B8F2D9CFD8012D913C9140816C
:10048000BC01640F711D47FD7A95AB01DB01AA0F1A
:10049000BB1FA40FB51FAE57BD4F11964D915C9178
:1004A0001297240F351FD70111963C932E9320816C
:1004B000AC01420F511D27FD5A95DA01AA0FBB1F4F
:1004C000A40FB51FAE57BD4F2C9126FD94CFDF91E1
:1004D000CF911F910F91FF90EF9008951F920F926F
:1004E0000FB60F9211240BB60F922F933F934F9399
:1004F0005F936F937F938F939F93AF93BF93EF938C
:10050000FF9348E850E064E870E081E090E00E94EA
:10051000A701FF91EF91BF91AF919F918F917F9133
:100520006F915F914F913F912F910F900BBE0F9064
:100530000FBE0F901F9018951F920F920FB60F923B
:1005400011240BB60F922F933F934F935F936F93AA
:100550007F938F939F93AF93BF93EF93FF9348E95C
:1005600050E064E970E082E090E00E94A701FF9112
:10057000EF91BF91AF919F918F917F916F915F911B
:100580004F913F912F910F900BBE0F900FBE0F9088
:100590001F9018951F920F920FB60F9211240BB651
:1005A0000F922F933F934F935F936F937F938F930C
:1005B0009F93AF93BF93EF93FF9348EA50E064EAB1
:1005C00070E083E090E00E94A701FF91EF91BF915E
:1005D000AF919F918F917F916F915F914F913F91DB
:1005E0002F910F900BBE0F900FBE0F901F9018957C
:1005F0001F920F920FB60F9211240BB60F922F93EA
:100600003F934F935F936F937F938F939F93AF939A
:10061000BF93EF93FF9348E251E064E271E080E022
:1006200090E00E94A701FF91EF91BF91AF919F9140
:100630008F917F916F915F914F913F912F910F908B
:100640000BBE0F900FBE0F901F90189520917D024A
:100650002033A0F4FC012083822F8F5F80937D02E2
:10066000822F90E0FC01EE0FFF1FE80FF91FEE57FD
:10067000FD4F88EB9BE09283818308952FEFFC016F
:10068000208308950895CF93DF931F921F92CDB7D3
:10069000DEB7FC01862F60837183428353832483FA
:1006A000358361E02A8349830E94D80561E049814E
:1006B000842F0E94D80561E02A81822F0F900F902D
:1006C000DF91CF910C94D8050F931F93CF93DF93B5
:1006D000EC018B016F3F710509F080F461E08A81C4
:1006E0000E94100660E08C810E941006B80188818B
:1006F000DF91CF911F910F910C949403DF91CF91D3
:100700001F910F910895CF93DF93EC0161E08A81EF
:100710000E94100661E08C810E94100661E08881D1
:10072000DF91CF910C9410061F93CF93DF93182F76
:10073000EB0161E00E94D805209711F460E004C04D
:10074000CF3FD10539F461E0812FDF91CF911F9127
:100750000C941006E12FF0E0EC51FF4FE491E930EA
:1007600009F460C098F4E430C9F138F4E23039F1AA
:1007700058F5E13009F0ABC01DC0E73009F440C0C6
:1007800008F046C0E63009F0A2C032C0ED3009F4EE
:1007900076C030F4EB3009F459C008F066C04CC0A4
:1007A000E03109F480C0E13109F487C0EF3009F08D
:1007B0008EC06FC084B5806884BDC7BD8DC084B550
:1007C000806284BDC8BD88C08091800080688093AD
:1007D0008000D0938900C09388007EC08091800003
:1007E000806280938000D0938B00C0938A0074C095
:1007F0008091B00080688093B000C093B3006CC05B
:100800008091B00080628093B000C093B40064C057
:1008100080919000806880939000D0939900C0935D
:1008200098005AC080919000806280939000D0938D
:100830009B00C0939A0050C0809190008860809384
:100840009000D0939D00C0939C0046C08091A00072
:1008500080688093A0008091A0008F7B8093A0008F
:10086000D093A900C093A80037C08091A0008062F7
:100870008093A000D093AB00C093AA002DC08091BC
:10088000A00088608093A000D093AD00C093AC001E
:1008900023C080912001806880932001D09329019A
:1008A000C093280119C080912001806280932001AB
:1008B000D0932B01C0932A010FC080912001886042
:1008C00080932001D0932D01C0932C0105C0C03826
:1008D000D1050CF038CF32CFDF91CF911F91089521
:1008E0001F920F920FB60F9211242F933F938F9365
:1008F0009F93AF93BF938091120390911303A091A4
:100900001403B091150330911A03232F2D5F2D3757
:1009100020F40196A11DB11D05C0232F2A57029670
:10092000A11DB11D20931A0380931203909313030A
:10093000A0931403B09315038091160390911703AD
:10094000A0911803B09119030196A11DB11D8093C8
:10095000160390931703A0931803B0931903BF9144
:10096000AF919F918F913F912F910F900FBE0F905C
:100970001F9018950F931F939FB7F894009116033B
:1009800010911703209118033091190386B5A89B85
:1009900006C08F3F21F00F5F1F4F2F4F3F4F9FBF6C
:1009A000322F212F102F0027080F111D211D311D5F
:1009B00042E0000F111F221F331F4A95D1F7B801E3
:1009C000C9011F910F910895CF92DF92EF92FF928C
:1009D000CF93DF936B017C010E94BA04EB010EC040
:1009E0000E94BA046C1B7D0B683E734038F081E0B6
:1009F000C81AD108E108F108C851DC4FC114D1046C
:100A0000E104F10469F7DF91CF91FF90EF90DF905F
:100A1000CF900895789484B5826084BD84B5816058
:100A200084BD85B5826085BD85B5816085BDEEE6F6
:100A3000F0E0808181608083E1E8F0E010828081D5
:100A400082608083808181608083E0E8F0E0808143
:100A500081608083E1EBF0E0808184608083E0EB63
:100A6000F0E0808181608083E1E9F0E08081826054
:100A70008083808181608083E0E9F0E08081816013
:100A80008083E1EAF0E08081826080838081816000
:100A90008083E0EAF0E0808181608083E1E2F1E040
:100AA000808182608083808181608083E0E2F1E0E8
:100AB000808181608083EAE7F0E0808184608083C8
:100AC0008081826080838081816080838081806872
:100AD00080831092C1000895893009F443C088F4DE
:100AE000843029F138F4823059F1E8F4813009F08A
:100AF0005EC023C0873061F188F5863009F057C0A9
:100B000023C08D3009F440C020F48B30A9F1C0F52A
:100B10002DC0803109F442C0813109F443C08F30C7
:100B200009F045C037C0809180008F7703C0809165
:100B300080008F7D80938000089584B58F7702C0F8
:100B400084B58F7D84BD08958091B0008F7703C0F8
:100B50008091B0008F7D8093B000089580919000C7
:100B60008F7707C0809190008F7D03C080919000A7
:100B7000877F8093900008958091A0008F7707C0B1
:100B80008091A0008F7D03C08091A000877F80931B
:100B9000A0000895809120018F7707C080912001E7
:100BA0008F7D03C080912001877F8093200108956D
:100BB000CF93DF9390E0FC01E65DFE4F4491FC0192
:100BC000E059FE4F8491882341F190E0880F991FEE
:100BD000FC01E053FE4F25913491D9018A549E4F78
:100BE000FC0185919491C82FD92F9FB7F8948C91CF
:100BF000611106C0409584238C938881842308C0AA
:100C0000623041F4242F209582238C938881842B99
:100C1000888302C0842B8C939FBFDF91CF9108956E
:100C20000F931F93CF93DF931F92CDB7DEB7282F7B
:100C300030E0F901EC51FF4F8491F901E65DFE4F80
:100C40001491F901E059FE4F04910023D1F088235B
:100C500021F069830E946C056981E02FF0E0EE0FBE
:100C6000FF1FEA54FE4F85919491DC019FB7F894E1
:100C70008C91611103C01095812301C0812B8C934D
:100C80009FBF0F90DF91CF911F910F910895CF9249
:100C9000DF92EF92FF920F931F93CF93DF936C013C
:100CA000EB017A01E60EF71E00E010E00BC069913F
:100CB000D601ED91FC910190F081E02DC6011995CE
:100CC000080F191FCE15DF0591F7C801DF91CF91ED
:100CD0001F910F91FF90EF90DF90CF9008956115D5
:100CE000710581F0DB010D900020E9F7AD01415065
:100CF0005109461B570BDC01ED91FC910280F381F9
:100D0000E02D199480E090E00895DC01ED91FC91D4
:100D10000190F081E02D19940F931F93CF93DF93EF
:100D2000EC016DE00E9485068C016AE0CE010E9414
:100D300085069C01200F311FC901DF91CF911F91C2
:100D40000F9108950F931F93CF93DF93EC010E94AF
:100D50006F068C01CE010E948C069801280F391F66
:100D6000C901DF91CF911F910F910895FC018485F6
:100D70009585FC01E05CFF4F20813181FC01EE5B39
:100D8000FF4F80819181281B390B2F733327C901B5
:100D90000895FC0184859585FC01E05CFF4F40814E
:100DA0005181FC01EE5BFF4F2081318142175307D7
:100DB00041F00190F081E02DE80FF91F208130E033
:100DC00002C02FEF3FEFC9010895FC01848595858E
:100DD000FC01E05CFF4F40815181FC01EE5BFF4F65
:100DE000208131814217530781F0A081B181A80F82
:100DF000B91F8C91208131812F5F3F4F2F73332793
:100E000031832083282F30E002C02FEF3FEFC9014C
:100E10000895FC0181A1882329F0A489B5898C91CA
:100E200086FFFBCF11A20895CF93DF93FC012685A7
:100E30003785D901A05CBF4F8D919C911197019688
:100E40008F739927E901CE5BDF4F48815981841761
:100E50009507D9F30D90BC91A02DA20FB31F6C93F1
:100E6000A685B785A05CBF4F11969C938E93A689EB
:100E7000B7892C9181E090E0078C02C0880F991F00
:100E80000A94E2F7282B2C9381E081A30488F5894A
:100E9000E02D80818064808381E090E0DF91CF91BC
:100EA0000895FB01E05CFF4F208131812F5F3F4FB0
:100EB0002F733327DB01AE5BBF4F4D915C9124173D
:100EC000350739F0A081B181A60FB71F8C9331830C
:100ED0002083089508951F920F920FB60F92112448
:100EE0000BB60F922F933F934F935F936F937F9324
:100EF0008F939F93AF93BF93EF93FF938091C00025
:100F000082FD07C08091C6006FE775E00E9451071F
:100F100002C08091C600FF91EF91BF91AF919F9168
:100F20008F917F916F915F914F913F912F910F9092
:100F30000BBE0F900FBE0F901F90189508951F9233
:100F40000F920FB60F9211240BB60F922F933F936F
:100F50004F935F936F937F938F939F93AF93BF93C1
:100F6000EF93FF938091C80082FD07C08091CE006F
:100F700067EF74E00E94510702C08091CE00FF919C
:100F8000EF91BF91AF919F918F917F916F915F9101
:100F90004F913F912F910F900BBE0F900FBE0F906E
:100FA0001F90189508951F920F920FB60F9211245B
:100FB0000BB60F922F933F934F935F936F937F9353
:100FC0008F939F93AF93BF93EF93FF938091D00044
:100FD00082FD07C08091D6006FE674E00E94510741
:100FE00002C08091D600FF91EF91BF91AF919F9188
:100FF0008F917F916F915F914F913F912F910F90C2
:101000000BBE0F900FBE0F901F90189508951F9262
:101010000F920FB60F9211240BB60F922F933F939E
:101020004F935F936F937F938F939F93AF93BF93F0
:10103000EF93FF938091300182FD07C080913601CC
:1010400067EE73E00E94510702C080913601FF9164
:10105000EF91BF91AF919F918F917F916F915F9130
:101060004F913F912F910F900BBE0F900FBE0F909D
:101070001F90189581E893E00E94B606892B11F025
:101080000E946A078FE593E00E94B606892B11F053
:101090000E949E078DE393E00E94B606892B11F013
:1010A0000E94D2078BE193E00E94B606892B11F0D3
:1010B0000C94060808951F920F920FB60F921124F8
:1010C0000BB60F922F933F938F939F93EF93FF93C2
:1010D00020917B0530917C0580917D0590917E0566
:1010E0002817390731F48091C1008F7D8093C100AA
:1010F00014C0E0917D05F0917E05E55CFA4F2081FA
:1011000080917D0590917E0501968F73992790932C
:101110007E0580937D052093C600FF91EF919F91FE
:101120008F913F912F910F900BBE0F900FBE0F909C
:101130001F9018951F920F920FB60F9211240BB6A5
:101140000F922F933F938F939F93EF93FF93209151
:10115000F3043091F4048091F5049091F60428177B
:10116000390731F48091C9008F7D8093C90014C084
:10117000E091F504F091F604ED54FB4F208180914D
:10118000F5049091F60401968F7399279093F604D5
:101190008093F5042093CE00FF91EF919F918F9162
:1011A0003F912F910F900BBE0F900FBE0F901F908D
:1011B00018951F920F920FB60F9211240BB60F9233
:1011C0002F933F938F939F93EF93FF9320916B0403
:1011D00030916C0480916D0490916E04281739074A
:1011E00031F48091D1008F7D8093D10014C0E091C3
:1011F0006D04F0916E04E55DFB4F208180916D04DC
:1012000090916E0401968F73992790936E0480934A
:101210006D042093D600FF91EF919F918F913F91A4
:101220002F910F900BBE0F900FBE0F901F9018952F
:101230001F920F920FB60F9211240BB60F922F939D
:101240003F938F939F93EF93FF932091E30330910C
:10125000E4038091E5039091E6032817390731F400
:10126000809131018F7D8093310114C0E091E503BD
:10127000F091E603ED55FC4F20818091E5039091BC
:10128000E60301968F7399279093E6038093E50315
:1012900020933601FF91EF919F918F913F912F9174
:1012A0000F900BBE0F900FBE0F901F901895CF920E
:1012B000DF92EF92FF92CF93DF93EC016A017B0103
:1012C000411581EE580761057105F9F0EC89FD893A
:1012D00081E090E008A002C0880F991F0A94E2F70D
:1012E000808360E079E08DE390E0A70196010E94A1
:1012F0001B0B2150310941095109569547953795E6
:101300002795211580E1380798F0EC89FD89108236
:1013100060E874E88EE190E0A70196010E941B0B43
:10132000215031094109510956954795379527951F
:10133000E889F9893083EA89FB89208319A2EE893B
:10134000FF89408181E090E09C010C8C02C0220F5B
:10135000331F0A94E2F7422B4083EE89FF894081D4
:101360009C010D8C02C0220F331F0A94E2F7422B1E
:101370004083EE89FF8940819C010E8C02C0220FC0
:10138000331F0A94E2F7422B4083EE89FF892081C4
:101390000F8C02C0880F991F0A94E2F78095822370
:1013A0008083DF91CF91FF90EF90DF90CF900895F1
:1013B000CF93109284031092830388EE93E0A0E011
:1013C000B0E08093850390938603A0938703B09346
:1013D000880321E532E030938203209381034FE7B5
:1013E00055E050938E0340938D034BE355E05093AB
:1013F000900340938F0345EC50E050939203409349
:10140000910344EC50E0509394034093930340ECD9
:1014100050E0509396034093950341EC50E0509375
:1014200098034093970342EC50E050939A03409303
:10143000990346EC50E050939C0340939B03C4E017
:10144000C0939D03F3E0F0939E03E7E0E0939F03D6
:1014500075E07093A00361E06093A10310926203B2
:10146000109261038093630390936403A0936503D8
:10147000B09366033093600320935F0347EF54E01B
:1014800050936C0340936B0343EB54E050936E0313
:1014900040936D034DEC50E05093700340936F0305
:1014A0004CEC50E0509372034093710348EC50E0D1
:1014B000509374034093730349EC50E050937603C8
:1014C000409375034AEC50E05093780340937703C0
:1014D0004EEC50E050937A0340937903C0937B0322
:1014E000F0937C03E0937D0370937E0360937F030E
:1014F0001092400310923F03809341039093420364
:10150000A0934303B093440330933E0320933D03E1
:101510004FE654E050934A03409349034BE254E0B2
:1015200050934C0340934B0345ED50E050934E03D2
:1015300040934D0344ED50E05093500340934F03CC
:1015400040ED50E0509352034093510341ED50E081
:10155000509354034093530342ED50E0509356038D
:101560004093550346ED50E0509358034093570382
:10157000C0935903F0935A03E0935B0370935C03A9
:1015800060935D0310921E0310921D0380931F034E
:1015900090932003A0932103B093220330931C0364
:1015A00020931B0387EE93E09093280380932703F7
:1015B00083EA93E090932A038093290385E391E0E3
:1015C00090932C0380932B0384E391E090932E035C
:1015D00080932D0380E391E09093300380932F0359
:1015E00081E391E0909332038093310382E391E0B1
:1015F000909334038093330386E391E09093360312
:1016000080933503C0933703F0933803E093390395
:1016100070933A0360933B03CF9108950E940A05AB
:101620000E942A01CAE3D8E00E944C012097E1F30E
:101630000E943A08F9CFA1E21A2EAA1BBB1BFD019A
:101640000DC0AA1FBB1FEE1FFF1FA217B307E407A1
:10165000F50720F0A21BB30BE40BF50B661F771FF9
:10166000881F991F1A9469F76095709580959095D9
:101670009B01AC01BD01CF0108950790F691E02DCB
:061680001994F894FFCF5D
:1016860053657269616C20636F6D6D756E69636118
:1016960074696F6E2065737461626C6973686564E2
:1016A60000466F7277617264002C0100580200B028
:1016B6000400600900C01200802500403800004B7D
:1016C6000080700000960000E10000C201000000EA
:0E16D6000014074706B606E506C90609070018
:00000001FF
