:100000000C9474000C94A5000C94A5000C94A5000D
:100010000C94A5000C94A5000C94A5000C94A500CC
:100020000C94A5000C94A5000C94A5000C94A500BC
:100030000C94A5000C94A5000C94A5000C94A500AC
:100040000C94A5000C94A5000C94A5000C94A5009C
:100050000C94A5000C94A5000C94A5000C948303AB
:100060000C94A5000C94BE060C94AE070C94A5004D
:100070000C94A5000C94A5000C94A5000C94A5006C
:100080000C94A5000C94A5000C94A5000C94A5005C
:100090000C94F2060C94ED070C94A5000C94A500AA
:1000A0000C94A5000C94A5000C94A5000C94A5003C
:1000B0000C94A5000C94A5000C94A5000C94A5002C
:1000C0000C94A5000C94A5000C94A5000C94260794
:1000D0000C942C080C94A5000C945A070C946B08F3
:1000E0000C94A5009A022B0911241FBECFEFD1E278
:1000F000DEBFCDBF00E00CBF13E0A0E0B2E0E0E463
:10010000F6E100E00BBF02C007900D92AC3FB107D3
:10011000D9F716E0ACEFB3E001C01D92A93BB107DF
:10012000E1F710E0C8EED0E000E006C02297010938
:10013000FE010BBF0E940E0BC43ED10780E00807F2
:10014000A9F70E94A80A0C941E0B0C94000040E82A
:1001500055E260E070E087E794E00E94AA088EEF25
:1001600093E00E94CB028EEF93E00C94DE02AF92FC
:10017000BF92CF92DF92EF92FF920F931F9382E094
:100180000E945A03BC01882777FD8095982F1F9203
:100190001F921F9223E72F9323EAA22EBB24BA9427
:1001A000CB2CDB2C19EBE12E12E0F12E00E010E05D
:1001B00020E030E0A9010E94610A0F900F900F909B
:1001C0000F90CB011F910F91FF90EF90DF90CF9098
:1001D000BF90AF900895AF92BF92CF92DF92EF920F
:1001E000FF920F931F9381E00E945A03BC0188275E
:1001F00077FD8095982F1F921F921F922CE62F93C8
:100200004EE9A42EBB24BA94CB2CDB2C19EBE12EA7
:1002100012E0F12E00E010E020E030E0A9010E94A1
:10022000610A0F900F900F900F90CB011F910F91CB
:10023000FF90EF90DF90CF90BF90AF9008958F9296
:100240009F92AF92BF92CF92DF92EF92FF920F9365
:100250001F93CF93DF93CDB7DEB7E4970FB6F89433
:10026000DEBF0FBECDBF0E94B7006C010E94EB0045
:100270008C0182E00E945A035C0181E00E945A03D3
:100280007C0180E00E945A034C0161E072E087E744
:1002900094E00E94CF044AE050E0B40187E794E084
:1002A0000E94EF056FE072E087E794E00E94CF04C0
:1002B0004AE050E0B50187E794E00E94E70569E174
:1002C00072E087E794E00E94CF044AE050E0B60174
:1002D00087E794E00E94EF0561E272E087E794E02F
:1002E0000E94CF044AE050E0B70187E794E00E9403
:1002F000E70569E172E087E794E00E94CF044AE0F5
:1003000050E0B80187E794E00E94EF0524E3AE01D6
:100310004F5F5F4F66E08EEF93E00E942A038823D1
:1003200009F4E9C06AE272E087E794E00E94EE0413
:1003300067E572E087E794E00E94CF0442E050E076
:10034000698187E794E00E9483056FE672E087E7A2
:1003500094E00E94CF046981629561704AE050E0A8
:1003600070E087E794E00E94EF0565E872E087E7B8
:1003700094E00E94CF04698163FB662760F94AE03C
:1003800050E070E087E794E00E94EF0569E972E0D1
:1003900087E794E00E94CF04698162FB662760F9D9
:1003A0004AE050E070E087E794E00E94EF056EEAD3
:1003B00072E087E794E00E94CF04698166956170DE
:1003C0004AE050E070E087E794E00E94EF056CEBB4
:1003D00072E087E794E00E94CF04698161704AE08F
:1003E00050E070E087E794E00E94EF056BEC72E06C
:1003F00087E794E00E94CF0442E050E06B8187E7FA
:1004000094E00E94830568ED72E087E794E00E9423
:10041000CF0442E050E06C8187E794E00E948305BE
:100420006BEE72E087E794E00E94CF0442E050E078
:100430006D8187E794E00E9483056FEF72E087E7A4
:1004400094E00E94CF0442E050E06E8187E794E0A0
:100450000E9483056DE073E087E794E00E94CF047B
:100460007D8D60E08E8D682B7093FD036093FC039F
:100470004AE050E087E794E00E946B0563E373E095
:1004800087E794E00E94CF047F8D60E088A1682B0D
:100490007093FD036093FC034AE050E087E794E02B
:1004A0000E946B056FE573E087E794E00E94CF043C
:1004B00079A160E08AA1682B7093FD036093FC032F
:1004C0004AE050E087E794E00E946B056CE873E037
:1004D00087E794E00E94CF047BA160E08CA1682BA9
:1004E0007093FD036093FC034AE050E087E794E0DB
:1004F0000E946B0506C063EB73E087E794E00E94FF
:10050000EE0468E873E180E090E00E940904E4965C
:100510000FB6F894DEBF0FBECDBFDF91CF911F9114
:100520000F91FF90EF90DF90CF90BF90AF909F9092
:100530008F9008954AE050E065E574E08EEF93E017
:100540000C94A902DC01ED91FC910190F081E02D69
:100550001994DC0115967C936E9314974C305105D9
:1005600070F4FA01EE0FFF1FE40FF51FE853FC4F84
:10057000208131814281642FA90170E004C040E0F4
:1005800051EE60E070E04D935D936D937C93139713
:1005900016961C920895CF93DF93EC014881598100
:1005A0006A817B818C819D810E94AA0860E870E04D
:1005B0008C819D81DF91CF910C94A20263E870E061
:1005C000FC01848195810C94A202BF92CF92DF92AC
:1005D000EF92FF920F931F93CF93DF93EC018B0168
:1005E000B42E29C00E94CD036B017C0188ECC80E9B
:1005F000D11CE11CF11C07C00E94CD03C616D70612
:10060000E806F906E0F08C819D81DC01ED91FC911A
:100610000480F581E02D1995892B71F3BA948C81B2
:100620009D81DC01ED91FC910680F781E02D19950B
:10063000F80181938F01B110D5CF81E001C080E036
:10064000DF91CF911F910F91FF90EF90DF90CF90AE
:10065000BF900895CF92DF92FF920F931F93CF9395
:10066000DF931F92CDB7DEB76C01F62E8A016EE8DC
:1006700070E0DC0114968D919C91159729830E945E
:10068000A202F60184819581DC01ED91FC9101903B
:10069000F081E02D6F2D19952981422FB801C601F7
:1006A0000F90DF91CF911F910F91FF90DF90CF902E
:1006B0000C94E502863308F0865320917B00982F36
:1006C0009870277F922B90937B0087702091000277
:1006D00040E4249F90011124822B80937C00809120
:1006E0007A00806480937A0080917A0086FDFCCF46
:1006F0002091780030917900932F80E0AC01422B5B
:100700009A01C90108951F920F920FB60F921124FA
:100710002F933F938F939F93AF93BF938091080440
:1007200090910904A0910A04B0910B043091100437
:10073000232F2D5F2D3720F40196A11DB11D05C07B
:10074000232F2A570296A11DB11D209310048093D8
:10075000080490930904A0930A04B0930B048091B9
:100760000C0490910D04A0910E04B0910F04019619
:10077000A11DB11D80930C0490930D04A0930E0451
:10078000B0930F04BF91AF919F918F913F912F91A3
:100790000F900FBE0F901F9018950F931F938FB758
:1007A000F894009108041091090420910A043091F2
:1007B0000B048FBFB801C9011F910F9108950F93CA
:1007C0001F939FB7F89400910C0410910D04209191
:1007D0000E0430910F0486B5A89B06C08F3F21F010
:1007E0000F5F1F4F2F4F3F4F9FBF322F212F102FD3
:1007F0000027080F111D211D311D42E0000F111FA0
:10080000221F331F4A95D1F7B801C9011F910F91DB
:100810000895CF92DF92EF92FF92CF93DF936B0117
:100820007C010E94DF03EB010EC00E94DF036C1B02
:100830007D0B683E734038F081E0C81AD108E108AA
:10084000F108C851DC4FC114D104E104F10469F787
:10085000DF91CF91FF90EF90DF90CF900895789443
:1008600084B5826084BD84B5816084BD85B58260B5
:1008700085BD85B5816085BDEEE6F0E08081816053
:100880008083E1E8F0E01082808182608083808153
:1008900081608083E0E8F0E0808181608083E1EB2B
:1008A000F0E0808184608083E0EBF0E08081816013
:1008B0008083E1E9F0E080818260808380818160D3
:1008C0008083E0E9F0E0808181608083E1EAF0E00C
:1008D000808182608083808181608083E0EAF0E0B3
:1008E000808181608083E1E2F1E0808182608083A9
:1008F000808181608083E0E2F1E08081816080839B
:10090000EAE7F0E080818460808380818260808378
:100910008081816080838081806880831092C100A3
:100920000895CF92DF92EF92FF920F931F93CF9390
:10093000DF936C01EB017A01E60EF71E00E010E098
:100940000BC06991D601ED91FC910190F081E02DF1
:10095000C6011995080F191FCE15DF0591F7C801BB
:10096000DF91CF911F910F91FF90EF90DF90CF908B
:1009700008956115710581F0DB010D900020E9F704
:10098000AD0141505109461B570BDC01ED91FC9123
:100990000280F381E02D199480E090E008950C949A
:1009A000B904DC01ED91FC910190F081E02D1994E6
:1009B0000F931F93CF93DF93EC016DE00E94D1045E
:1009C0008C016AE0CE010E94D1049C01200F311FEE
:1009D000C901DF91CF911F910F9108950F931F933C
:1009E000CF93DF93EC010E94B9048C01CE010E94E9
:1009F000D8049801280F391FC901DF91CF911F91A9
:100A00000F9108954F925F926F927F929F92AF9253
:100A1000BF92CF92DF92EF92FF920F931F93CF93EB
:100A2000DF93CDB7DEB7A1970FB6F894DEBF0FBE48
:100A3000CDBF5C016A017B01922E19A281E0821771
:100A400010F08AE0982E8E010F5D1F4F492C512C1B
:100A5000612C712CC701B601A30192010E94C50A45
:100A60008C2D929E80191124015011098A3014F4A2
:100A7000805D01C0895CF801808369017A01C1143D
:100A8000D104E104F10431F7B801C5010E94B904B1
:100A9000A1960FB6F894DEBF0FBECDBFDF91CF9108
:100AA0001F910F91FF90EF90DF90CF90BF90AF908C
:100AB0009F907F906F905F904F9008952115310522
:100AC00041F4DC01ED91FC910190F081E02D642F67
:100AD00019940C9402050F931F93CF93DF93EC01AD
:100AE0009A01AB0160E070E00E945E058C01CE01CE
:100AF0000E94D8049801280F391FC901DF91CF91B6
:100B00001F910F9108950F931F93CF93DF93EC01E3
:100B10009A01462F50E060E070E00E945E058C0173
:100B2000CE010E94D8049801280F391FC901DF9116
:100B3000CF911F910F910895CF92DF92EF92FF9284
:100B40000F931F93CF93DF93EC016A017B01211573
:100B5000310579F4E881F9810190F081E02D642F6D
:100B6000DF91CF911F910F91FF90EF90DF90CF9089
:100B700019942A30310519F477FD0EC02AE0B70127
:100B8000A601CE01DF91CF911F910F91FF90EF90C1
:100B9000DF90CF900C9402056DE20E94D1048C018D
:100BA00044275527BA014C195D096E097F092AE0CF
:100BB000CE010E940205080F191FC801DF91CF91D5
:100BC0001F910F91FF90EF90DF90CF9008959A01C1
:100BD000AB01662757FD6095762F0C949C050F930B
:100BE0001F93CF93DF93EC019A01AB01662757FD6A
:100BF0006095762F0E949C058C01CE010E94D8043E
:100C00009801280F391FC901DF91CF911F910F91D2
:100C10000895FC0184859585FC01E05CFF4F2081EF
:100C20003181FC01EE5BFF4F80819181281B390BE4
:100C30002F733327C9010895FC0184859585FC0134
:100C4000E05CFF4F40815181FC01EE5BFF4F208152
:100C500031814217530741F00190F081E02DE80FF8
:100C6000F91F208130E002C02FEF3FEFC901089546
:100C7000FC0184859585FC01E05CFF4F408151813A
:100C8000FC01EE5BFF4F208131814217530781F059
:100C9000A081B181A80FB91F8C91208131812F5F74
:100CA0003F4F2F73332731832083282F30E002C03A
:100CB0002FEF3FEFC9010895FC0181A1882329F09E
:100CC000A489B5898C9186FFFBCF11A20895CF939B
:100CD000DF93FC0126853785D901A05CBF4F8D913C
:100CE0009C91119701968F739927E901CE5BDF4F95
:100CF0004881598184179507D9F30D90BC91A02D97
:100D0000A20FB31F6C93A685B785A05CBF4F119649
:100D10009C938E93A689B7892C9181E090E0078CF3
:100D200002C0880F991F0A94E2F7282B2C9381E0C8
:100D300081A30488F589E02D80818064808381E02F
:100D400090E0DF91CF910895FB01E05CFF4F20819F
:100D500031812F5F3F4F2F733327DB01AE5BBF4FD6
:100D60004D915C912417350739F0A081B181A60F10
:100D7000B71F8C9331832083089508951F920F929B
:100D80000FB60F9211240BB60F922F933F934F93F0
:100D90005F936F937F938F939F93AF93BF93EF93E3
:100DA000FF938091C00082FD07C08091C60065E777
:100DB00076E00E94A40602C08091C600FF91EF91E8
:100DC000BF91AF919F918F917F916F915F914F9163
:100DD0003F912F910F900BBE0F900FBE0F901F9061
:100DE000189508951F920F920FB60F9211240BB60B
:100DF0000F922F933F934F935F936F937F938F93B4
:100E00009F93AF93BF93EF93FF938091C80082FDB0
:100E100007C08091CE006DEE75E00E94A40602C06E
:100E20008091CE00FF91EF91BF91AF919F918F91F3
:100E30007F916F915F914F913F912F910F900BBEDA
:100E40000F900FBE0F901F90189508951F920F924C
:100E50000FB60F9211240BB60F922F933F934F931F
:100E60005F936F937F938F939F93AF93BF93EF9312
:100E7000FF938091D00082FD07C08091D60065E687
:100E800075E00E94A40602C08091D600FF91EF9108
:100E9000BF91AF919F918F917F916F915F914F9192
:100EA0003F912F910F900BBE0F900FBE0F901F9090
:100EB000189508951F920F920FB60F9211240BB63A
:100EC0000F922F933F934F935F936F937F938F93E3
:100ED0009F93AF93BF93EF93FF938091300182FD77
:100EE00007C0809136016DED74E00E94A40602C037
:100EF00080913601FF91EF91BF91AF919F918F91BA
:100F00007F916F915F914F913F912F910F900BBE09
:100F10000F900FBE0F901F90189587E794E00E94E6
:100F20000906892B11F00E94BD0685E594E00E9418
:100F30000906892B11F00E94F10683E394E00E94D8
:100F40000906892B11F00E94250781E194E00E9497
:100F50000906892B11F00C94590708951F920F92DE
:100F60000FB60F9211240BB60F922F933F938F93CE
:100F70009F93EF93FF9320917106309172068091B9
:100F80007306909174062817390731F48091C100D7
:100F90008F7D8093C10014C0E0917306F0917406B8
:100FA000EF5CF94F20818091730690917406019651
:100FB0008F73992790937406809373062093C600CD
:100FC000FF91EF919F918F913F912F910F900BBEC9
:100FD0000F900FBE0F901F9018951F920F920FB693
:100FE0000F9211240BB60F922F933F938F939F93E1
:100FF000EF93FF932091E9053091EA058091EB058D
:101000009091EC052817390731F48091C9008F7D44
:101010008093C90014C0E091EB05F091EC05E75511
:10102000FA4F20818091EB059091EC0501968F732A
:1010300099279093EC058093EB052093CE00FF91C8
:10104000EF919F918F913F912F910F900BBE0F9039
:101050000FBE0F901F9018951F920F920FB60F9210
:1010600011240BB60F922F933F938F939F93EF937F
:10107000FF93209161053091620580916305909105
:1010800064052817390731F48091D1008F7D809352
:10109000D10014C0E0916305F0916405EF5DFA4F53
:1010A0002081809163059091640501968F73992743
:1010B00090936405809363052093D600FF91EF9190
:1010C0009F918F913F912F910F900BBE0F900FBE6C
:1010D0000F901F9018951F920F920FB60F92112428
:1010E0000BB60F922F933F938F939F93EF93FF93A2
:1010F0002091D9043091DA048091DB049091DC04D2
:101100002817390731F4809131018F7D80933101A7
:1011100014C0E091DB04F091DC04E756FB4F208122
:101120008091DB049091DC0401968F739927909352
:10113000DC048093DB0420933601FF91EF919F91B3
:101140008F913F912F910F900BBE0F900FBE0F907C
:101150001F901895CF92DF92EF92FF92CF93DF937B
:10116000EC016A017B01411581EE580761057105AB
:10117000F9F0EC89FD8981E090E008A002C0880FB9
:10118000991F0A94E2F7808360E079E08DE390E0B4
:10119000A70196010E94C50A215031094109510950
:1011A0005695479537952795211580E1380798F092
:1011B000EC89FD89108260E874E88EE190E0A70177
:1011C00096010E94C50A21503109410951095695DD
:1011D000479537952795E889F9893083EA89FB890E
:1011E000208319A2EE89FF89408181E090E09C0173
:1011F0000C8C02C0220F331F0A94E2F7422B40836B
:10120000EE89FF8940819C010D8C02C0220F331FA3
:101210000A94E2F7422B4083EE89FF8940819C01CA
:101220000E8C02C0220F331F0A94E2F7422B408338
:10123000EE89FF8920810F8C02C0880F991F0A94C4
:10124000E2F7809582238083DF91CF91FF90EF902A
:10125000DF90CF900895CF9310927A041092790482
:1012600088EE93E0A0E0B0E080937B0490937C0450
:10127000A0937D04B0937E0420EF33E03093780494
:101280002093770445E756E0509384044093830409
:1012900041E356E0509386044093850445EC50E0CA
:1012A000509388044093870444EC50E050938A04A0
:1012B0004093890440EC50E050938C0440938B049D
:1012C00041EC50E050938E0440938D0442EC50E08A
:1012D0005093900440938F0446EC50E05093920456
:1012E00040939104C4E0C0939304F3E0F09394041A
:1012F000E7E0E093950475E07093960461E06093F5
:1013000097041092580410925704809359049093B4
:101310005A04A0935B04B0935C043093560420936A
:1013200055044DEE55E0509362044093610449EA40
:1013300055E050936404409363044DEC50E05093A7
:101340006604409365044CEC50E05093680440936D
:10135000670448EC50E050936A044093690449ECF8
:1013600050E050936C0440936B044AEC50E050936F
:101370006E0440936D044EEC50E050937004409323
:101380006F04C0937104F0937204E093730470933C
:10139000740460937504109236041092350480939F
:1013A000370490933804A0933904B0933A043093EF
:1013B00034042093330445E655E0509340044093B1
:1013C0003F0441E255E0509342044093410445ED0F
:1013D00050E0509344044093430444ED50E0509354
:1013E00046044093450440ED50E050934804409338
:1013F000470441ED50E050934A044093490442EDC4
:1014000050E050934C0440934B0446ED50E0509311
:101410004E0440934D04C0934F04F0935004E09366
:101420005104709352046093530410921404109268
:1014300013048093150490931604A0931704B0939B
:10144000180430931204209311048DED94E09093CE
:101450001E0480931D0489E994E0909320048093F6
:101460001F0485E391E0909322048093210484E398
:1014700091E0909324048093230480E391E090937F
:1014800026048093250481E391E0909328048093BF
:10149000270482E391E090932A048093290486E351
:1014A00091E090932C0480932B04C0932D04F0932F
:1014B0002E04E0932F047093300460933104CF9195
:1014C00008954F925F926F927F92AF92BF92CF92A8
:1014D000DF92EF92FF920F931F93CF93DF93CDB7DD
:1014E000DEB729013A01621B730B840B950B2A8925
:1014F0003B894C895D892A193B094C095D092A8B76
:101500003B8B4C8B5D8B9B01AC016A897B898C8901
:101510009D890E94B50AE418F50806091709A80173
:1015200097010E94E70A2A0D3B1D4C1D5D1DB90164
:10153000CA01DF91CF911F910F91FF90EF90DF9043
:10154000CF90BF90AF907F906F905F904F90089535
:101550000E942F040E94A700CDE8D7E00E941F013F
:101560002097E1F30E948D07F9CFDB018F939F93C2
:101570000E94030BBF91AF91A29F800D911DA39F6D
:10158000900DB29F900D11240895A1E21A2EAA1B6E
:10159000BB1BFD010DC0AA1FBB1FEE1FFF1FA21723
:1015A000B307E407F50720F0A21BB30BE40BF50B20
:1015B000661F771F881F991F1A9469F760957095A9
:1015C000809590959B01AC01BD01CF010895052E3A
:1015D00097FB16F4009407D057FD0DD00E94C50A62
:1015E00007FC09D07EF490958095709561957F4FAA
:1015F0008F4F9F4F089550954095309521953F4FBF
:101600004F4F5F4F08950E94120BA59F900DB49FFE
:10161000900DA49F800D911D112408950790F691BF
:10162000E02D1994A29FB001B39FC001A39F01D0E8
:10163000B29F700D811D1124911D0895F894FFCF64
:10164000014C696768742073656E736F723A004766
:10165000726162097261773A0009616E676C653A7E
:101660000041726D097261773A000A69526F626FC8
:101670007420437265617465205061636B657420EA
:1016800036202846756C6C292053656E736F722066
:1016900044617461200A0042756D707320616E644C
:1016A00020576865656C2044726F70733A20002A79
:1016B00020576865656C64726F702D204361737488
:1016C00065723A20002A20576865656C64726F70F5
:1016D0002D204C6566743A20002A20576865656C99
:1016E00064726F702D2052696768743A20002A2056
:1016F00042756D70204C6566743A20002A20427550
:101700006D702052696768743A2000436C696666A0
:10171000204C6566743A2000436C69666620467208
:101720006F6E74204C6566743A2000436C6966667F
:101730002046726F6E742052696768743A200043C5
:101740006C6966662052696768743A2000436C6968
:101750006666204C656674205369676E616C205321
:101760007472656E6774682028302D3430393529DD
:101770003A2000436C6966662046726F6E74204C96
:10178000656674205369676E616C20537472656E70
:101790006774682028302D34303935293A200043C9
:1017A0006C6966662046726F6E7420526967687451
:1017B000205369676E616C20537472656E6774683C
:1017C0002028302D34303935293A2000436C6966A1
:1017D00066205269676874205369676E616C205394
:1017E0007472656E6774682028302D34303935295D
:1017F0003A2000526F6F6D62612053656E736F7295
:1018000073204572726F72002C0100580200B00400
:1018100000600900C01200802500403800004B0025
:1018200080700000960000E10000C201000000008E
:0C18300067069104090638061C065C06D9
:00000001FF
