:100000000C94F6000C9427010C9427010C94270102
:100010000C9427010C9427010C9427010C942701C0
:100020000C9427010C9427010C9427010C942701B0
:100030000C9427010C9427010C9427010C942701A0
:100040000C9427010C9416020C9427010C942701A0
:100050000C9427010C9427010C9427010C94340470
:100060000C9427010C9427010C9427010C94270170
:100070000C9427010C9427010C9427010C94270160
:100080000C9444020C9427010C9427010C94270132
:100090000C9427010C9427010C9427010C94270140
:1000A0000C9427010C9427010C9472020C942701E4
:1000B0000C9427010C9427010C9427010C94A002A6
:1000C0000C9427010C9427010C9427010C94270110
:1000D0000C9427010C9427010C9427010C94270100
:1000E0000C9427010000090A02080B0C0D070603F7
:1000F00004010000000000000000000000000000FB
:1001000000000000000000000000000000000000EF
:1001100011100F00000000000000000000000000AF
:100120000000000000000000000001021020200874
:100130000810204010204080020102010804020142
:1001400001020408102040808040201008040201B1
:10015000800402018040201008040201080402010A
:100160000102040810204080010204081020408091
:1001700005050505070508080808020202020A0A23
:100180000808040404040101010101010101030341
:10019000030303030303040707070C0C0C0C0C0CEC
:1001A0000C0C0202020206060606060606060B0BE9
:1001B0000B0B0B0B0B0B00002200250028002B0063
:1001C0002E003100340002010000050108010B017E
:1001D00000002100240027002A002D0030003300F9
:1001E00001010000040107010A014B0111241FBE97
:1001F000CFEFD1E2DEBFCDBF00E00CBF12E0A0E048
:10020000B2E001C01D92A13AB107E1F712E0A0E00F
:10021000B2E0ECEAFDE000E00BBF02C007900D92F7
:10022000A030B107D9F711E0CCEED1E000E006C074
:1002300022970109FE010BBF0E94C406CA3ED107E6
:1002400080E00807A9F70E9452060C94D4060C948B
:10025000000066E070E080E092E00C949D0364E6AC
:1002600070E080E092E00C94D60360E070E080E003
:1002700092E00C94D6030E942F0168EE73E080E0B8
:1002800090E00E94A8040E94350168E873E180E0D4
:1002900090E00C94A80480E092E00C94CE02EF92DF
:1002A000FF920F931F93CF93DF938B017A01EC01A1
:1002B000DC01AC5FBD4F8C9187FF05C0DB0111965F
:1002C0001C921E9222C02CE02C9FC0012D9F900DED
:1002D00011242C91AC01420F511D27FD5A952091FC
:1002E000030230E04217530784F42C91FC01E20F23
:1002F000F11D27FDFA959F01EE0FFF1FE20FF31F7F
:10030000E85FFD4F208126FD45C0FE01EC5FFD4FFB
:1003100080818F5F80832CE02C9FC0012D9F900DEA
:1003200011242081AC01420F511D27FD5A952091C7
:10033000030230E0421753070CF03EC020812C30FE
:100340000CF442C039C02081820F911D27FD9A957F
:10035000FC01EE0FFF1FE80FF91FE85FFD4F8081E2
:1003600061E08F73DF91CF911F910F91FF90EF901C
:100370000C94D40580E49CE904C0F801808191814B
:100380000496D70111969C938E93CC5FDD4F8FEF2F
:10039000888345C02C91820F911D27FD9A95FC0101
:1003A000EE0FFF1FE80FF91FE85FFD4F808160E04F
:1003B0008F730E94D405A9CFF801808191810496A2
:1003C00080349C49B8F2D9CFD8012D913C9140811D
:1003D000BC01640F711D47FD7A95AB01DB01AA0FCB
:1003E000BB1FA40FB51FA85FBD4F11964D915C9127
:1003F0001297240F351FD70111963C932E9320811D
:10040000AC01420F511D27FD5A95DA01AA0FBB1FFF
:10041000A40FB51FA85FBD4F2C9126FD94CFDF918F
:10042000CF911F910F91FF90EF9008951F920F921F
:100430000FB60F9211240BB60F922F933F934F9349
:100440005F936F937F938F939F93AF93BF93EF933C
:10045000FF9348E850E064E870E081E090E00E949B
:100460004F01FF91EF91BF91AF919F918F917F913C
:100470006F915F914F913F912F910F900BBE0F9015
:100480000FBE0F901F9018951F920F920FB60F92EC
:1004900011240BB60F922F933F934F935F936F935B
:1004A0007F938F939F93AF93BF93EF93FF9348E90D
:1004B00050E064E970E082E090E00E944F01FF911B
:1004C000EF91BF91AF919F918F917F916F915F91CC
:1004D0004F913F912F910F900BBE0F900FBE0F9039
:1004E0001F9018951F920F920FB60F9211240BB602
:1004F0000F922F933F934F935F936F937F938F93BD
:100500009F93AF93BF93EF93FF9348EA50E064EA61
:1005100070E083E090E00E944F01FF91EF91BF9166
:10052000AF919F918F917F916F915F914F913F918B
:100530002F910F900BBE0F900FBE0F901F9018952C
:100540001F920F920FB60F9211240BB60F922F939A
:100550003F934F935F936F937F938F939F93AF934B
:10056000BF93EF93FF9348E251E064E271E080E0D3
:1005700090E00E944F01FF91EF91BF91AF919F9149
:100580008F917F916F915F914F913F912F910F903C
:100590000BBE0F900FBE0F901F9018952091030275
:1005A0002033A0F4FC012083822F8F5F809303020D
:1005B000822F90E0FC01EE0FFF1FE80FF91FE85FAC
:1005C000FD4F88EB9BE09283818308952FEFFC0120
:1005D00020830895DF92EF92FF920F931F93CF93A2
:1005E000DF93EC01D62E7A0189018881803308F0EF
:1005F00094C061E08D2D0E949C058881A82FB0E0F9
:10060000FD01EE0FFF1FEA0FFB1FE85FFD4F2D2DD1
:100610002F739081907C922B908360E272E06E1930
:100620007F0977FF02C06D5F7F4F75956795759560
:100630006795698340E659E0401B510B57FF02C0A4
:100640004D5F5F4F55954795559547954A836CE0AB
:100650000E946F069CE0899FB001112420E030E0E9
:10066000A901460F571FFA01EE0FFF1FE40FF51FF8
:10067000E85FFD4F908196FD44C02F5F3F4F2C30C7
:10068000310571F74CC01092800082E080938100A8
:100690001092850010928400B19A80916F00826060
:1006A00080936F002EC08230910569F41092900003
:1006B00082E080939100109295001092940088BB84
:1006C000809371001EC08330910569F41092A000E0
:1006D00082E08093A1001092A5001092A40089BB33
:1006E000809372000EC0892B61F41092200182E089
:1006F0008093210110922501109224018ABB8093DE
:100700007300888190E0FC01EE0FFF1FE80FF91FD6
:10071000E85FFD4F808180648083888106C090E01F
:100720008130910509F0BFCFAECFDF91CF911F91FE
:100730000F91FF90EF90DF90089520E639E040E2BE
:1007400052E00C94EA02FC018081803370F59181C3
:1007500028E830E0291B310997FD3395220F331F1C
:10076000220F331F621773077CF0928128E532E075
:10077000291B310997FD3395220F331F220F331F99
:10078000621773070CF49B014FB7F89490E0FC01DB
:10079000EE0FFF1FE80FF91FE85FFD4F22503109F0
:1007A000220F331F328321834FBF0895AF92BF9230
:1007B000CF92DF92EF92FF920F931F93CF93DF932D
:1007C000EC01603282E078070CF041C077FD04C094
:1007D000653B710524F405C060E070E002C064EB85
:1007E00070E0298188E890E0821B910927FD9395AC
:1007F000880F991F880F991F5C01CC24B7FCC09407
:10080000DC2C882777FD8095982F2A8148E552E0D7
:10081000421B510927FD5395440F551F440F551F87
:100820008A01222717FD2095322F3F932F931F9384
:100830000F9314EBE12EF12C00E010E020E030E00B
:10084000A9010E940B060F900F900F900F90CE0100
:10085000DF91CF911F910F91FF90EF90DF90CF909C
:10086000BF90AF900C94A3031F920F920FB60F92FC
:1008700011242F933F938F939F93AF93BF938091B6
:10088000980290919902A0919A02B0919B023091A6
:10089000A002232F2D5F2D3720F40196A11DB11D3D
:1008A00005C0232F2A570296A11DB11D2093A00237
:1008B0008093980290939902A0939A02B0939B021E
:1008C00080919C0290919D02A0919E02B0919F0206
:1008D0000196A11DB11D80939C0290939D02A0934F
:1008E0009E02B0939F02BF91AF919F918F913F91D4
:1008F0002F910F900FBE0F901F9018950F931F937D
:100900009FB7F89400919C0210919D0220919E0245
:1009100030919F0286B5A89B06C08F3F21F00F5FE4
:100920001F4F2F4F3F4F9FBF322F212F102F0027D8
:10093000080F111D211D311D42E0000F111F221F44
:10094000331F4A95D1F7B801C9011F910F9108953E
:10095000CF92DF92EF92FF92CF93DF936B017C01F6
:100960000E947E04EB010EC00E947E046C1B7D0B76
:10097000683E734038F081E0C81AD108E108F108F8
:10098000C851DC4FC114D104E104F10469F7DF91CF
:10099000CF91FF90EF90DF90CF900895789484B539
:1009A000826084BD84B5816084BD85B5826085BD6B
:1009B00085B5816085BDEEE6F0E080818160808351
:1009C000E1E8F0E010828081826080838081816034
:1009D0008083E0E8F0E0808181608083E1EBF0E0FB
:1009E000808184608083E0EBF0E08081816080839F
:1009F000E1E9F0E080818260808380818160808392
:100A0000E0E9F0E0808181608083E1EAF0E08081CC
:100A100082608083808181608083E0EAF0E0808171
:100A200081608083E1E2F1E0808182608083808167
:100A300081608083E0E2F1E0808181608083EAE789
:100A4000F0E0808184608083808182608083808107
:100A5000816080838081806880831092C1000895C6
:100A6000893009F443C088F4843029F138F48230A5
:100A700059F1E8F4813009F05EC023C0873061F19C
:100A800088F5863009F057C023C08D3009F440C086
:100A900020F48B30A9F1C0F52DC0803109F442C09B
:100AA000813109F443C08F3009F045C037C08091CF
:100AB00080008F7703C0809180008F7D80938000BD
:100AC000089584B58F7702C084B58F7D84BD089565
:100AD0008091B0008F7703C08091B0008F7D8093AC
:100AE000B0000895809190008F7707C080919000AA
:100AF0008F7D03C080919000877F80939000089540
:100B00008091A0008F7707C08091A0008F7D03C0E7
:100B10008091A000877F8093A0000895809120019C
:100B20008F7707C0809120018F7D03C080912001C5
:100B3000877F809320010895CF93DF9390E0FC019D
:100B4000E65DFE4F4491FC01E059FE4F84918823FD
:100B500041F190E0880F991FFC01E053FE4F259171
:100B60003491D9018A549E4FFC0185919491C82FEC
:100B7000D92F9FB7F8948C91611106C040958423BA
:100B80008C938881842308C0623041F4242F2095FF
:100B900082238C938881842B888302C0842B8C933E
:100BA0009FBFDF91CF9108950F931F93CF93DF9352
:100BB0001F92CDB7DEB7282F30E0F901EC51FF4F7F
:100BC0008491F901E65DFE4F1491F901E059FE4F61
:100BD00004910023D1F0882321F069830E9430051D
:100BE0006981E02FF0E0EE0FFF1FEA54FE4F859180
:100BF0009491DC019FB7F8948C91611103C010951A
:100C0000812301C0812B8C939FBF0F90DF91CF91E7
:100C10001F910F9108954F925F926F927F92AF92C2
:100C2000BF92CF92DF92EF92FF920F931F93CF93D9
:100C3000DF93CDB7DEB729013A01621B730B840B3A
:100C4000950B2A893B894C895D892A193B094C09F6
:100C50005D092A8B3B8B4C8B5D8B9B01AC016A89B8
:100C60007B898C899D890E945F06E418F508060936
:100C70001709A80197010E947B062A0D3B1D4C1DF8
:100C80005D1DB901CA01DF91CF911F910F91FF90B6
:100C9000EF90DF90CF90BF90AF907F906F905F907C
:100CA0004F9008950E94CE040E942901C0E0D0E038
:100CB0000E943B012097E1F30E940000F9CFDB0185
:100CC0008F939F930E949706BF91AF91A29F800D33
:100CD000911DA39F900DB29F900D11240895991B13
:100CE00079E004C0991F961708F0961B881F7A9523
:100CF000C9F780950895052E97FB16F4009407D048
:100D000057FD0DD00E94A20607FC09D07EF49095F5
:100D10008095709561957F4F8F4F9F4F08955095A7
:100D20004095309521953F4F4F4F5F4F08950E945A
:100D3000C806A59F900DB49F900DA49F800D911D96
:100D400011240895A1E21A2EAA1BBB1BFD010DC0A0
:100D5000AA1FBB1FEE1FFF1FA217B307E407F5076B
:100D600020F0A21BB30BE40BF50B661F771F881F47
:100D7000991F1A9469F760957095809590959B01DD
:100D8000AC01BD01CF0108950790F691E02D1994B3
:100D9000A29FB001B39FC001A39F01D0B29F700D6D
:0C0DA000811D1124911D0895F894FFCFCF
:00000001FF
