:100000000C94F8000C9429010C9429010C942901FA
:100010000C9429010C9429010C9429010C942901B8
:100020000C9429010C9429010C9429010C942901A8
:100030000C9429010C9429010C9429010C94290198
:100040000C9429010C9418050C9429010C94290195
:100050000C9429010C9429010C9429010C94580743
:100060000C9429010C94170B0C94070C0C94290187
:100070000C9429010C9429010C9429010C94290158
:100080000C9446050C9429010C9429010C94290127
:100090000C944B0B0C94460C0C9429010C942901E4
:1000A0000C9429010C9429010C9474050C942901D9
:1000B0000C9429010C9429010C9429010C94A2059B
:1000C0000C9429010C9429010C9429010C947F0BA8
:1000D0000C94850C0C9429010C94B30B0C94C40C57
:1000E0000C9429010000090A02080B0C0D070603F5
:1000F00004010000000000000000000000000000FB
:1001000000000000000000000000000000000000EF
:1001100011100F00000000000000000000000000AF
:100120000000000000000000000001021020200874
:100130000810204010204080020102010804020142
:1001400001020408102040808040201008040201B1
:10015000800402018040201008040201080402010A
:100160000102040810204080010204081020408091
:1001700005050505070508080808020202020A0A23
:100180000808040404040101010101010101030341
:10019000030303030303040707070C0C0C0C0C0CEC
:1001A0000C0C0202020206060606060606060B0BE9
:1001B0000B0B0B0B0B0B00002200250028002B0063
:1001C0002E003100340002010000050108010B017E
:1001D00000002100240027002A002D0030003300F9
:1001E00001010000040107010A018303840DA90332
:1001F00011241FBECFEFD1E2DEBFCDBF00E00CBFA8
:1002000012E0A0E0B2E0EAE0F7E200E00BBF02C0DB
:1002100007900D92AC3BB107D9F716E0ACEBB2E01A
:1002200001C01D92A234B107E1F711E0CEEED1E09A
:1002300000E006C022970109FE010BBF0E94FD12DB
:10024000CA3ED10780E00807A9F70E94010F0C946D
:1002500073130C94000040E855E260E070E08CEF0E
:1002600093E00E94030D66E072E08CEF93E00E9441
:10027000860964E070E08BEE92E00E949F0665E0E4
:1002800070E088EE92E00E949F0666E070E085EEE6
:1002900092E00E949F0667E070E082EE92E00E948A
:1002A0009F0627E130E046E150E062E070E08CED2F
:1002B00092E00E94370729E130E048E150E063E036
:1002C00070E086ED92E00E9437078EEE92E00E9489
:1002D000DD038EEE92E00C94F003CF93DF93D1E038
:1002E0000EC08CEF93E00E94920AC82F682F8DEB0E
:1002F00092E00E94E20FCA3011F4D093BC028CEF5E
:1003000093E00E94630A892B61F7DF91CF910895F2
:10031000CF93DF93EC018D968B35910590F465E5D5
:1003200070E06C1B7D0B8BEE92E00E94D8066FE5AF
:1003300070E06C1B7D0B88EE92E0DF91CF910C9406
:10034000D806DF91CF910895AF92BF92CF92DF92FE
:10035000EF92FF920F931F93CF93DF93CDB7DEB74A
:1003600069970FB6F894DEBF0FBECDBF8091BC0277
:10037000882309F4B7C18E010D5E1F4F67E272E05A
:10038000C8010E947F0FB8018DEB92E00E942510FA
:100390009A838983C8010E940E0FEE24E394F12C06
:1003A000EC0EFD1E5E0181E1A80EB11C6801F70193
:1003B000019111917F0167E272E0C6010E947F0FF7
:1003C000A8014F5F5F4FB6018DEB92E00E940710CE
:1003D000F70191838083C6010E940E0FEA14FB048B
:1003E00031F7E980FA80970140E050E06DEB72E070
:1003F000C6010E942910C6010E946E107093D5029A
:100400006093D402C6010E940E0F0B811C81A701CC
:100410004F5F5F4F98016DEB72E0C6010E9429109B
:10042000C6010E946E107093D3026093D202C6017F
:100430000E940E0FED80FE80A8014F5F5F4F970175
:100440006DEB72E0C6010E942910C6010E946E1079
:100450007093D1026093D002C6010E940E0F0F81EB
:100460001885A7014F5F5F4F98016DEB72E0C601E1
:100470000E942910C6010E946E107093CF026093F3
:10048000CE02C6010E940E0FE984FA84A8014F5FD4
:100490005F4F97016DEB72E0C6010E942910C60103
:1004A0000E946E107093CD026093CC02C6010E9430
:1004B0000E0F0B851C85A7014F5F5F4F98016DEBF9
:1004C00072E0C6010E942910C6010E946E1070934E
:1004D000CB026093CA02C6010E940E0FED84FE8417
:1004E000A8014F5F5F4F97016DEB72E0C6010E945C
:1004F0002910C6010E946E107093C9026093C80251
:10050000C6010E940E0F0F851889A7014F5F5F4F2C
:1005100098016DEB72E0C6010E942910C6010E948D
:100520006E107093C7026093C602C6010E940E0F40
:1005300029893A89A8014F5F5F4F6DEB72E0C601D0
:100540000E942910C6010E946E107093C50260932C
:10055000C402C6010E940E0F8091D2029091D30274
:100560000097D1F48091D4029091D5028130910509
:1005700061F58091D0029091D102892B09F048C099
:100580008091CE029091CF02892B09F041C048ECB6
:1005900050E068EC70E040C00197D1F58091D40242
:1005A0009091D502892BA1F58091D0029091D10232
:1005B000892B71F58091CE029091CF02892B41F564
:1005C00048E35FEF68E37FEF27C0892B09F580914F
:1005D000D0029091D1028130910549F42091CE0250
:1005E0003091CF02232B19F441E050E00AC0892B4F
:1005F00079F48091CE029091CF02019749F44FEFA8
:100600005FEF65ED70E08EEE92E00E94F70308C0A8
:1006100040E050E060E070E08EEE92E00E94240442
:100620006091C8027091C90282EE92E00E94D806E1
:100630008091CC029091CD020E94880169E272E023
:100640008CEF93E00E9486096DEB72E08CEF93E0F3
:100650000E9472096CE272E08CEF93E00E945309F1
:100660006091D4027091D5024AE050E08CEF93E0A3
:100670000E94410A60E372E08CEF93E00E9453090C
:100680006091D2027091D3024AE050E08CEF93E087
:100690000E94410A66E372E08CEF93E00E945309E6
:1006A0006091D0027091D1024AE050E08CEF93E06B
:1006B0000E94410A6CE372E08CEF93E00E945309C0
:1006C0006091CE027091CF024AE050E08CEF93E04F
:1006D0000E94490A6BE272E08DEB92E00E949C0F4F
:1006E0001092BC0269960FB6F894DEBF0FBECDBF64
:1006F000DF91CF911F910F91FF90EF90DF90CF90FE
:10070000BF90AF9008954AE050E06AED73E08EEE3E
:1007100092E00E94BB038BEE92E00E94D00588EE2F
:1007200092E00E94D00585EE92E00E94D00582EE14
:1007300092E00E94D0058CED92E00E94360786ED93
:1007400092E00E9436076BE272E08DEB92E00C942F
:100750007F0F8DEB92E00C940E0FDC01ED91FC917C
:100760000190F081E02D1994DC01ED91FC91019054
:10077000F081E02D1994DC0115967C936E9314970B
:100780004C30510570F4FA01EE0FFF1FE40FF51F16
:10079000E957FD4F208131814281642FA90170E02A
:1007A00004C040E051EE60E070E04D935D936D93C6
:1007B0007C93139716961C920895CF93DF93EC01C8
:1007C000488159816A817B818C819D810E94030DC2
:1007D00060E870E08C819D81DF91CF910C94B4032F
:1007E00064E870E0FC01848195810C94B403EF927D
:1007F000FF920F931F93CF93DF93EC017B018A014C
:1008000069E870E08C819D810E94B4036F2D70E0D7
:100810008C819D810E94AD03B70177278C819D81DA
:100820000E94B403612F70E08C819D810E94AD0312
:10083000B80177278C819D81DF91CF911F910F9116
:10084000FF90EF900C94B403EF92FF920F931F93DD
:10085000CF93DF93EC018B017A0161E970E08C8129
:100860009D810E94B4036F2D70E08C819D810E9458
:10087000AD03B70177278C819D810E94B403612F5E
:1008800070E08C819D810E94AD03B80177278C8137
:100890009D81DF91CF911F910F91FF90EF900C946C
:1008A000B403EF92FF920F931F93CF93DF938B01CB
:1008B0007A01EC01DC01A750BD4F8C9187FF05C088
:1008C000DB0111961C921E9222C02CE02C9FC001CD
:1008D0002D9F900D11242C91AC01420F511D27FD2D
:1008E0005A952091F80230E04217530784F42C9176
:1008F000FC01E20FF11D27FDFA959F01EE0FFF1F8E
:10090000E20FF31FE350FD4F208126FD45C0FE019D
:10091000E750FD4F80818F5F80832CE02C9FC001CA
:100920002D9F900D11242081AC01420F511D27FDF8
:100930005A952091F80230E0421753070CF03EC060
:1009400020812C300CF442C039C02081820F911DCF
:1009500027FD9A95FC01EE0FFF1FE80FF91FE350EA
:10096000FD4F808161E08F73DF91CF911F910F91D7
:10097000FF90EF900C94A80880E49CE904C0F80173
:10098000808191810496D70111969C938E93C750D4
:10099000DD4F8FEF888345C02C91820F911D27FD7D
:1009A0009A95FC01EE0FFF1FE80FF91FE350FD4F72
:1009B000808160E08F730E94A808A9CFF801808130
:1009C0009181049680349C49B8F2D9CFD8012D91F9
:1009D0003C914081BC01640F711D47FD7A95AB01CC
:1009E000DB01AA0FBB1FA40FB51FA350BD4F11966B
:1009F0004D915C911297240F351FD70111963C93AE
:100A00002E932081AC01420F511D27FD5A95DA012A
:100A1000AA0FBB1FA40FB51FA350BD4F2C9126FDDD
:100A200094CFDF91CF911F910F91FF90EF90089598
:100A30001F920F920FB60F9211240BB60F922F93A5
:100A40003F934F935F936F937F938F939F93AF9356
:100A5000BF93EF93FF9348E850E064E870E081E0D3
:100A600090E00E945104FF91EF91BF91AF919F914F
:100A70008F917F916F915F914F913F912F910F9047
:100A80000BBE0F900FBE0F901F9018951F920F92E4
:100A90000FB60F9211240BB60F922F933F934F93E3
:100AA0005F936F937F938F939F93AF93BF93EF93D6
:100AB000FF9348E950E064E970E082E090E00E9432
:100AC0005104FF91EF91BF91AF919F918F917F91D1
:100AD0006F915F914F913F912F910F900BBE0F90AF
:100AE0000FBE0F901F9018951F920F920FB60F9286
:100AF00011240BB60F922F933F934F935F936F93F5
:100B00007F938F939F93AF93BF93EF93FF9348EAA5
:100B100050E064EA70E083E090E00E945104FF91AD
:100B2000EF91BF91AF919F918F917F916F915F9165
:100B30004F913F912F910F900BBE0F900FBE0F90D2
:100B40001F9018951F920F920FB60F9211240BB69B
:100B50000F922F933F934F935F936F937F938F9356
:100B60009F93AF93BF93EF93FF9348E251E064E20A
:100B700071E080E090E00E945104FF91EF91BF91FD
:100B8000AF919F918F917F916F915F914F913F9125
:100B90002F910F900BBE0F900FBE0F901F901895C6
:100BA0002091F8022033A0F4FC012083822F8F5F74
:100BB0008093F802822F90E0FC01EE0FFF1FE80FF8
:100BC000F91FE350FD4F88EB9BE0928381830895EA
:100BD0002FEFFC0120830895DF92EF92FF920F9395
:100BE0001F93CF93DF93EC01D62E7A018901888180
:100BF000803308F094C061E08D2D0E9470088881D8
:100C0000A82FB0E0FD01EE0FFF1FEA0FFB1FE3501E
:100C1000FD4F2D2D2F739081907C922B908360E25D
:100C200072E06E197F0977FF02C06D5F7F4F759587
:100C3000679575956795698340E659E0401B510BB0
:100C400057FF02C04D5F5F4F5595479555954795A6
:100C50004A836CE00E94A8129CE0899FB001112495
:100C600020E030E0A901460F571FFA01EE0FFF1FE9
:100C7000E40FF51FE350FD4F908196FD44C02F5FB8
:100C80003F4F2C30310571F74CC01092800082E04C
:100C9000809381001092850010928400B19A809117
:100CA0006F00826080936F002EC08230910569F4DE
:100CB0001092900082E08093910010929500109223
:100CC000940088BB809371001EC08330910569F445
:100CD0001092A00082E08093A1001092A5001092D3
:100CE000A40089BB809372000EC0892B61F410921E
:100CF000200182E0809321011092250110922401AD
:100D00008ABB80937300888190E0FC01EE0FFF1F87
:100D1000E80FF91FE350FD4F808180648083888154
:100D200006C090E08130910509F0BFCFAECFDF91D2
:100D3000CF911F910F91FF90EF90DF90089520E6E3
:100D400039E040E252E00C94EC05FC0180818033F4
:100D500070F5918128E830E0291B310997FD339522
:100D6000220F331F220F331F621773077CF092810B
:100D700028E532E0291B310997FD3395220F331FF7
:100D8000220F331F621773070CF49B014FB7F894BF
:100D900090E0FC01EE0FFF1FE80FF91FE350FD4F3D
:100DA00022503109220F331F328321834FBF089510
:100DB000AF92BF92CF92DF92EF92FF920F931F9369
:100DC000CF93DF93EC01603282E078070CF041C0F2
:100DD00077FD04C0653B710524F405C060E070E058
:100DE00002C064EB70E0298188E890E0821B9109E1
:100DF00027FD9395880F991F880F991F5C01CC24BC
:100E0000B7FCC094DC2C882777FD8095982F2A8129
:100E100048E552E0421B510927FD5395440F551FE9
:100E2000440F551F8A01222717FD2095322F3F932B
:100E30002F931F930F9314EBE12EF12C00E010E0A1
:100E400020E030E0A9010E94BA0E0F900F900F90A1
:100E50000F90CE01DF91CF911F910F91FF90EF90F6
:100E6000DF90CF90BF90AF900C94A5060895CF93DC
:100E7000DF931F921F92CDB7DEB7FC01862F6083F0
:100E80007183428353832483358361E02A834983BA
:100E90000E94700861E04981842F0E94700861E01F
:100EA0002A81822F0F900F90DF91CF910C947008C0
:100EB0001F920F920FB60F9211242F933F938F938F
:100EC0009F93AF93BF9380918D0390918E03A091D8
:100ED0008F03B091900330919503232F2D5F2D3711
:100EE00020F40196A11DB11D05C0232F2A5702969B
:100EF000A11DB11D2093950380938D0390938E03C4
:100F0000A0938F03B09390038091910390919203EB
:100F1000A0919303B09194030196A11DB11D8093FC
:100F2000910390939203A0939303B0939403BF9182
:100F3000AF919F918F913F912F910F900FBE0F9086
:100F40001F901895789484B5826084BD84B58160C3
:100F500084BD85B5826085BD85B5816085BDEEE6C1
:100F6000F0E0808181608083E1E8F0E010828081A0
:100F700082608083808181608083E0E8F0E080810E
:100F800081608083E1EBF0E0808184608083E0EB2E
:100F9000F0E0808181608083E1E9F0E0808182601F
:100FA0008083808181608083E0E9F0E080818160DE
:100FB0008083E1EAF0E080818260808380818160CB
:100FC0008083E0EAF0E0808181608083E1E2F1E00B
:100FD000808182608083808181608083E0E2F1E0B3
:100FE000808181608083EAE7F0E080818460808393
:100FF000808182608083808181608083808180683D
:1010000080831092C1000895893009F443C088F4A8
:10101000843029F138F4823059F1E8F4813009F054
:101020005EC023C0873061F188F5863009F057C073
:1010300023C08D3009F440C020F48B30A9F1C0F5F5
:101040002DC0803109F442C0813109F443C08F3092
:1010500009F045C037C0809180008F7703C0809130
:1010600080008F7D80938000089584B58F7702C0C3
:1010700084B58F7D84BD08958091B0008F7703C0C3
:101080008091B0008F7D8093B00008958091900092
:101090008F7707C0809190008F7D03C08091900072
:1010A000877F8093900008958091A0008F7707C07C
:1010B0008091A0008F7D03C08091A000877F8093E6
:1010C000A0000895809120018F7707C080912001B2
:1010D0008F7D03C080912001877F80932001089538
:1010E000CF93DF9390E0FC01E65DFE4F4491FC015D
:1010F000E059FE4F8491882341F190E0880F991FB9
:10110000FC01E053FE4F25913491D9018A549E4F42
:10111000FC0185919491C82FD92F9FB7F8948C9199
:10112000611106C0409584238C938881842308C074
:10113000623041F4242F209582238C938881842B64
:10114000888302C0842B8C939FBFDF91CF91089539
:101150000F931F93CF93DF931F92CDB7DEB7282F46
:1011600030E0F901EC51FF4F8491F901E65DFE4F4B
:101170001491F901E059FE4F04910023D1F0882326
:1011800021F069830E9404086981E02FF0E0EE0FEE
:10119000FF1FEA54FE4F85919491DC019FB7F894AC
:1011A0008C91611103C01095812301C0812B8C9318
:1011B0009FBF0F90DF91CF911F910F910895CF9214
:1011C000DF92EF92FF920F931F93CF93DF936C0107
:1011D000EB017A01E60EF71E00E010E00BC069910A
:1011E000D601ED91FC910190F081E02DC601199599
:1011F000080F191FCE15DF0591F7C801DF91CF91B8
:101200001F910F91FF90EF90DF90CF90089561159F
:10121000710581F0DB010D900020E9F7AD0141502F
:101220005109461B570BDC01ED91FC910280F381C3
:10123000E02D199480E090E00895AF92BF92CF9294
:10124000DF92EF92FF920F931F93CF93DF937C0176
:101250006B0100E010E0C0E0D0E011C0D701ED91DB
:10126000FC91A080B180B801C6010E94F60F682FE2
:10127000C701F5011995C80FD91F0F5F1F4FD60180
:1012800014968D919C9115970817190738F3CE0184
:10129000DF91CF911F910F91FF90EF90DF90CF9052
:1012A000BF90AF9008950C940709DC01ED91FC917B
:1012B0000190F081E02D19940F931F93CF93DF934A
:1012C000EC016DE00E9455098C016AE0CE010E949C
:1012D00055099C01200F311FC901DF91CF911F914A
:1012E0000F9108950F931F93CF93DF93EC010E940A
:1012F0001D098C01CE010E945C099C01200F311F49
:10130000C901DF91CF911F910F9108950F931F9302
:10131000CF93DF93EC010E9407098C01CE010E945C
:101320005C099801280F391FC901DF91CF911F91E6
:101330000F9108954F925F926F927F929F92AF921A
:10134000BF92CF92DF92EF92FF920F931F93CF93B2
:10135000DF93CDB7DEB7A1970FB6F894DEBF0FBE0F
:10136000CDBF5C016A017B01922E19A281E0821738
:1013700010F08AE0982E8E010F5D1F4F492C512CE2
:10138000612C712CC701B601A30192010E94B41215
:101390008C2D929E80191124015011098A3014F469
:1013A000805D01C0895CF801808369017A01C11404
:1013B000D104E104F10431F7B801C5010E94070925
:1013C000A1960FB6F894DEBF0FBECDBFDF91CF91CF
:1013D0001F910F91FF90EF90DF90CF90BF90AF9053
:1013E0009F907F906F905F904F900895CF92DF9283
:1013F000EF92FF920F931F93CF93DF93EC016A015B
:101400007B012115310579F4E881F9810190F081A2
:10141000E02D642FDF91CF911F910F91FF90EF90FE
:10142000DF90CF9019942A30310519F477FD0EC062
:101430002AE0B701A601CE01DF91CF911F910F9154
:10144000FF90EF90DF90CF900C949A096DE20E948C
:1014500055098C0144275527BA014C195D096E09BD
:101460007F092AE0CE010E949A09080F191FC801BE
:10147000DF91CF911F910F91FF90EF90DF90CF9070
:1014800008959A01AB01662757FD6095762F0C945D
:10149000F6090F931F93CF93DF93EC019A01AB01F1
:1014A000662757FD6095762F0E94F6098C01CE01C4
:1014B0000E945C099801280F391FC901DF91CF9163
:1014C0001F910F910895FC0184859585FC01E05CD6
:1014D000FF4F20813181FC01EE5BFF4F80819181C4
:1014E000281B390B2F733327C9010895FC0184850C
:1014F0009585FC01E05CFF4F40815181FC01EE5B72
:10150000FF4F208131814217530741F00190F08154
:10151000E02DE80FF91F208130E002C02FEF3FEFF0
:10152000C9010895FC0184859585FC01E05CFF4FAD
:1015300040815181FC01EE5BFF4F208131814217D8
:10154000530781F0A081B181A80FB91F8C91208130
:1015500031812F5F3F4F2F73332731832083282F13
:1015600030E002C02FEF3FEFC9010895FC0181A1D7
:10157000882329F0A489B5898C9186FFFBCF11A21D
:101580000895CF93DF93FC0126853785D901A05CB0
:10159000BF4F8D919C91119701968F739927E90107
:1015A000CE5BDF4F4881598184179507D9F30D90A1
:1015B000BC91A02DA20FB31F6C93A685B785A05C2C
:1015C000BF4F11969C938E93A689B7892C9181E089
:1015D00090E0078C02C0880F991F0A94E2F7282B2D
:1015E0002C9381E081A30488F589E02D80818064BB
:1015F000808381E090E0DF91CF910895FB01E05C72
:10160000FF4F208131812F5F3F4F2F733327DB0145
:10161000AE5BBF4F4D915C912417350739F0A08127
:10162000B181A60FB71F8C933183208308951F9239
:101630000F920FB60F9211240BB60F922F933F9378
:101640004F935F936F937F938F939F93AF93BF93CA
:10165000EF93FF938091C00082FD07C08091C60088
:101660006AEF75E00E94FE0A02C08091C600FF91F9
:10167000EF91BF91AF919F918F917F916F915F910A
:101680004F913F912F910F900BBE0F900FBE0F9077
:101690001F90189508951F920F920FB60F92112464
:1016A0000BB60F922F933F934F935F936F937F935C
:1016B0008F939F93AF93BF93EF93FF938091C80055
:1016C00082FD07C08091CE0062E775E00E94FE0AAD
:1016D00002C08091CE00FF91EF91BF91AF919F9199
:1016E0008F917F916F915F914F913F912F910F90CB
:1016F0000BBE0F900FBE0F901F90189508951F926C
:101700000F920FB60F9211240BB60F922F933F93A7
:101710004F935F936F937F938F939F93AF93BF93F9
:10172000EF93FF938091D00082FD07C08091D60097
:101730006AEE74E00E94FE0A02C08091D600FF911A
:10174000EF91BF91AF919F918F917F916F915F9139
:101750004F913F912F910F900BBE0F900FBE0F90A6
:101760001F90189508951F920F920FB60F92112493
:101770000BB60F922F933F934F935F936F937F938B
:101780008F939F93AF93BF93EF93FF93809130011B
:1017900082FD07C08091360162E674E00E94FE0A75
:1017A00002C080913601FF91EF91BF91AF919F915F
:1017B0008F917F916F915F914F913F912F910F90FA
:1017C0000BBE0F900FBE0F901F9018958CEF93E0FB
:1017D0000E94630A892B11F00E946D018AED93E04B
:1017E0000E94630A892B11F00E944A0B88EB93E058
:1017F0000E94630A892B11F00E947E0B86E993E018
:101800000E94630A892B11F00C94B20B08951F9269
:101810000F920FB60F9211240BB60F922F933F9396
:101820008F939F93EF93FF932091F6053091F705E7
:101830008091F8059091F9052817390731F48091C6
:10184000C1008F7D8093C10014C0E091F805F09134
:10185000F905EA54FA4F20818091F8059091F90535
:1018600001968F7399279093F9058093F80520933B
:10187000C600FF91EF919F918F913F912F910F9013
:101880000BBE0F900FBE0F901F9018951F920F92D6
:101890000FB60F9211240BB60F922F933F938F9395
:1018A0009F93EF93FF9320916E0530916F05809188
:1018B0007005909171052817390731F48091C9009E
:1018C0008F7D8093C90014C0E0917005F09171057F
:1018D000E25DFA4F2081809170059091710501962B
:1018E0008F73992790937105809370052093CE0094
:1018F000FF91EF919F918F913F912F910F900BBE90
:101900000F900FBE0F901F9018951F920F920FB659
:101910000F9211240BB60F922F933F938F939F93A7
:10192000EF93FF932091E6043091E7048091E8045F
:101930009091E9042817390731F48091D1008F7D07
:101940008093D10014C0E091E804F091E904EA55D5
:10195000FB4F20818091E8049091E90401968F73F8
:1019600099279093E9048093E8042093D600FF918F
:10197000EF919F918F913F912F910F900BBE0F9000
:101980000FBE0F901F9018951F920F920FB60F92D7
:1019900011240BB60F922F933F938F939F93EF9346
:1019A000FF9320915E0430915F04809160049091D8
:1019B00061042817390731F4809131018F7D8093BC
:1019C000310114C0E0916004F0916104E25EFB4FCC
:1019D0002081809160049091610401968F73992712
:1019E000909361048093600420933601FF91EF91FE
:1019F0009F918F913F912F910F900BBE0F900FBE33
:101A00000F901F901895CF92DF92EF92FF92CF9395
:101A1000DF93EC016A017B01411581EE58076105F6
:101A20007105F9F0EC89FD8981E090E008A002C021
:101A3000880F991F0A94E2F7808360E079E08DE3D4
:101A400090E0A70196010E94B4122150310941098A
:101A500051095695479537952795211580E1380707
:101A600098F0EC89FD89108260E874E88EE190E0DE
:101A7000A70196010E94B412215031094109510970
:101A80005695479537952795E889F9893083EA89EE
:101A9000FB89208319A2EE89FF89408181E090E0D3
:101AA0009C010C8C02C0220F331F0A94E2F7422BD8
:101AB0004083EE89FF8940819C010D8C02C0220F7A
:101AC000331F0A94E2F7422B4083EE89FF8940815D
:101AD0009C010E8C02C0220F331F0A94E2F7422BA6
:101AE0004083EE89FF8920810F8C02C0880F991FE7
:101AF0000A94E2F7809582238083DF91CF91FF9053
:101B0000EF90DF90CF900895CF931092FF03109243
:101B1000FE0388EE93E0A0E0B0E080930004909391
:101B20000104A0930204B09303042FEA32E030933F
:101B3000FD032093FC034AEF55E0509309044093C2
:101B4000080446EB55E050930B0440930A0445EC1F
:101B500050E050930D0440930C0444EC50E050933B
:101B60000F0440930E0440EC50E050931104409356
:101B7000100441EC50E0509313044093120442ECE3
:101B800050E0509315044093140446EC50E05093F9
:101B9000170440931604C4E0C0931804F3E0F093D4
:101BA0001904E7E0E0931A0475E070931B0461E008
:101BB00060931C041092DD031092DC038093DE031B
:101BC0009093DF03A093E003B093E1033093DB0332
:101BD0002093DA0342E755E05093E7034093E6038E
:101BE0004EE255E05093E9034093E8034DEC50E09A
:101BF0005093EB034093EA034CEC50E05093ED0319
:101C00004093EC0348EC50E05093EF034093EE0315
:101C100049EC50E05093F1034093F0034AEC50E05C
:101C20005093F3034093F2034EEC50E05093F503CE
:101C30004093F403C093F603F093F703E093F803A3
:101C40007093F9036093FA031092BB031092BA03E6
:101C50008093BC039093BD03A093BE03B093BF03D6
:101C60003093B9032093B8034AEE54E05093C50370
:101C70004093C40346EA54E05093C7034093C6031D
:101C800045ED50E05093C9034093C80344ED50E044
:101C90005093CB034093CA0340ED50E05093CD03E3
:101CA0004093CC0341ED50E05093CF034093CE03DB
:101CB00042ED50E05093D1034093D00346ED50E005
:101CC0005093D3034093D203C093D403F093D5032E
:101CD000E093D6037093D7036093D80310929903CF
:101CE0001092980380939A0390939B03A0939C0374
:101CF000B0939D03309397032093960382E694E07C
:101D00009093A3038093A2038EE194E09093A503A4
:101D10008093A40385E391E09093A7038093A603A7
:101D200084E391E09093A9038093A80380E391E07A
:101D30009093AB038093AA0381E391E09093AD036A
:101D40008093AC0382E391E09093AF038093AE0362
:101D500086E391E09093B1038093B003C093B20304
:101D6000F093B303E093B4037093B5036093B603A9
:101D7000CF9108954F925F926F927F92AF92BF92F0
:101D8000CF92DF92EF92FF920F931F93CF93DF9347
:101D9000CDB7DEB729013A01621B730B840B950B9B
:101DA0002A893B894C895D892A193B094C095D09BF
:101DB0002A8B3B8B4C8B5D8B9B01AC016A897B89A9
:101DC0008C899D890E949812E418F5080609170964
:101DD000A80197010E94D6122A0D3B1D4C1D5D1DC6
:101DE000B901CA01DF91CF911F910F91FF90EF9040
:101DF000DF90CF90BF90AF907F906F905F904F90AB
:101E000008950E94A2070E942B01C6EEDBE00E940B
:101E1000A4012097E1F30E94E60BF9CFFC01808139
:101E200091810C941511CF93DF93EC0188819981F6
:101E3000009711F00E941511198218821D821C82D0
:101E40001B821A82DF91CF9108950F931F93CF9336
:101E5000DF93EC018B016F5F7F4F888199810E9436
:101E6000B411009731F0998388831B830A8381E042
:101E700001C080E0DF91CF911F910F910895CF9322
:101E8000DF93EC0188819981892B31F08A819B81D4
:101E90008617970708F00CC0CE010E94250F8823F3
:101EA00049F08C819D81892B19F4E881F981108298
:101EB00081E001C080E0DF91CF910895EF92FF9221
:101EC0000F931F93CF93DF93EC017B018A01BA013B
:101ED0000E943F0F811104C0CE010E94130F07C062
:101EE0001D830C83B701888199810E943D13CE0127
:101EF000DF91CF911F910F91FF90EF900895DC013A
:101F000011961C921E9213961C921E921297159671
:101F10001C921E92149716961C926115710559F029
:101F2000DB010D900020E9F7AD0141505109461B3E
:101F3000570B0C945E0F0895CF93DF93D82FC92FC2
:101F40006115710561F0DB010D900020E9F7AD012D
:101F500041505109461B570B0E945E0F02C00E9460
:101F6000130F8D2F9C2FDF91CF910895EF92FF9249
:101F70000F931F93CF93DF93EC017B010C811D81A5
:101F80006115710511F480E016C04115510591F0FD
:101F9000040F151FB8010E943F0F8823A1F3288169
:101FA00039818C819D81B701820F931F0E943D135F
:101FB0001D830C8381E0DF91CF911F910F91FF90E2
:101FC000EF900895CF93DF931F921F92CDB7DEB7A6
:101FD00069831A8241E050E0BE016F5F7F4F0E942B
:101FE000B60F0F900F90DF91CF910895FC012481DF
:101FF00035816217730748F480819181009729F039
:10200000FC01E60FF71F8081089580E00895CF93CB
:10201000DF93FC01848195814817590780F4C081C2
:10202000D181FB0160817181CE01840F951F0E94D7
:102030004413009721F09C012C1B3D0B02C02FEF95
:102040003FEFC901DF91CF91089540E050E00C943B
:102050000710BF92CF92DF92EF92FF920F931F93E0
:10206000CF93DF936C017B01EA01890124173507C7
:1020700020F48D2FE901042F182F6BE272E0C601C6
:102080000E947F0FD70114968D919C9115978C1704
:102090009D07C8F08017910708F48C01D701ED91D6
:1020A000FC911197E00FF11FB08010826D917C912F
:1020B0006C0F7D1FC6010E949C0FD701ED91FC9112
:1020C000E00FF11FB082C601DF91CF911F910F91F8
:1020D000FF90EF90DF90CF90BF900895FC0180813A
:1020E0009181009711F00C940D1360E070E080E096
:1020F00090E008950F931F93CF93DF938230910563
:1021000010F482E090E0E0914006F091410620E07A
:1021100030E0C0E0D0E023C040815181481759072A
:10212000A8F04817590761F482819381209719F02C
:102130009B838A832EC0909341068093400629C0DA
:102140002115310529F04217530710F0A90102C0EB
:10215000BE01DF0102811381EF019A01F80130977E
:10216000D9F62115310509F1281B390B2430310529
:1021700090F412968D919C9113976115710521F041
:10218000FB019383828304C09093410680934006B1
:10219000FD01329644C0FD01E20FF31F819391933C
:1021A000225031092D933C933AC020913E06309144
:1021B0003F06232B41F42091020230910302309319
:1021C0003F0620933E062091000230910102211526
:1021D000310541F42DB73EB74091040250910502FC
:1021E000241B350BE0913E06F0913F06E217F30702
:1021F000A0F42E1B3F0B2817390778F0AC014E5F77
:102200005F4F2417350748F04E0F5F1F50933F066E
:1022100040933E068193919302C0E0E0F0E0CF014D
:10222000DF91CF911F910F910895EF92FF920F933D
:102230001F93CF93DF93009709F48FC0DC011297AF
:1022400013961C921E921297E0904006F090410661
:10225000E114F10489F42D913C911197280F391F55
:1022600080913E0690913F068217930789F5B093BF
:102270003F06A0933E0671C0E70120E030E001C0B8
:10228000EA01CA17DB0738F44A815B819E014115D8
:102290005105B1F722C0BC0162507109FB01D38323
:1022A000C28300811181AC01400F511F4C175D07A3
:1022B00061F448815981400F511F4E5F5F4F518338
:1022C00040834A815B81538342832115310529F480
:1022D000B0934106A093400640C0F901B383A283A6
:1022E000E90169917991C60FD71FAC17BD0779F441
:1022F000DC015E914E91460F571F4E5F5F4F518339
:10230000408312968D919C91139793838283A0E0D2
:10231000B0E002C0D7017C01F70182819381009770
:10232000C9F7C701029620813181820F931F209146
:102330003E0630913F062817390779F4109729F4A3
:10234000109241061092400604C013961C921E92F1
:102350001297F0923F06E0923E06DF91CF911F91D7
:102360000F91FF90EF9008958F929F92AF92BF923E
:10237000CF92DF92EF92FF920F931F93CF93DF9351
:10238000EC01009779F4CB01DF91CF911F910F9170
:10239000FF90EF90DF90CF90BF90AF909F908F9085
:1023A0000C947A10DC01A60FB71FFC013297AE1710
:1023B000BF0718F4C0E0D0E0ADC00081118106175E
:1023C0001707B0F00530110508F4A4C0C801049740
:1023D0008617970708F49EC002501109061B170BB9
:1023E0000D931D9371836083CD010E94151192C0DE
:1023F0007B01E01AF10A5C01A00EB11EE0914006DB
:10240000F0914106812C912C80E090E04CC0EA15BF
:10241000FB05F1F5408151816A0122E0C20ED11C19
:10242000CE14DF04A8F19A012E193F097901690140
:1024300032E0C30ED11C2EEFA22EBB24BA94AC0EF8
:10244000BD1E25E0C216D10478F042815381139657
:102450005C934E9312971196FC92EE92F501718364
:1024600060833A2F2B2F09C00E5F1F4F040F151FDB
:10247000D5010D931C9332812381009721F0FC013B
:102480003283238347C0309340062093410642C0E5
:10249000808191818816990608F44C01528143810C
:1024A000CF01E52FF42F309709F0B1CF80913E0690
:1024B00090913F068A159B05F1F486169706D8F48D
:1024C0008091000290910102009741F48DB79EB770
:1024D0002091040230910502821B930BA817B907C3
:1024E00008F068CFB0933F06A0933E06FE013297F6
:1024F000718360830FC0CB010E947A107C0100972A
:1025000009F458CFA801BE010E943413CE010E94E5
:102510001511E701CE01DF91CF911F910F91FF902F
:10252000EF90DF90CF90BF90AF909F908F900895E5
:10253000DB018F939F930E94F212BF91AF91A29FF4
:10254000800D911DA39F900DB29F900D11240895B1
:10255000991B79E004C0991F961708F0961B881FF5
:102560007A95C9F780950895A1E21A2EAA1BBB1B84
:10257000FD010DC0AA1FBB1FEE1FFF1FA217B3074F
:10258000E407F50720F0A21BB30BE40BF50B661F65
:10259000771F881F991F1A9469F760957095809529
:1025A00090959B01AC01BD01CF010895052E97FBCD
:1025B00016F4009407D057FD0DD00E94B41207FC0A
:1025C00009D07EF490958095709561957F4F8F4FDF
:1025D0009F4F089550954095309521953F4F4F4F0F
:1025E0005F4F08950E940113A59F900DB49F900D19
:1025F000A49F800D911D112408950790F691E02D60
:102600001994A29FB001B39FC001A39F01D0B29FB4
:10261000700D811D1124911D08951F93FC019927B0
:102620008827BC01E89411911032E9F3193010F0B9
:102630001E30C8F31B3251F01D3249F4689406C0B5
:102640000E945E13610F711D811D911D1191105328
:102650001A30B0F33EF490958095709561957F4F58
:102660008F4F9F4F1F910895FB01DC0102C0019025
:102670000D9241505040D8F70895FB01DC010190C4
:102680000D920020E1F70895FB0151915523A9F027
:10269000BF01DC014D9145174111E1F759F4CD011E
:1026A0000190002049F04D9140154111C9F3FB0103
:1026B0004111EFCF81E090E001970895592F482F05
:1026C000372F262F660F771F881F991F660F771FDA
:1026D000881F991F620F731F841F951F660F771F36
:1026E000881F991F089511E0CEEED1E000E006C0EA
:1026F00022970109FE010BBF0E94FD12C03FD107C6
:0A27000080E00807A9F7F894FFCF66
:10270A0000004206800053657269616C20636F6D38
:10271A006D756E69636174696F6E20657374616249
:10272A006C6973686564003B000A0A00476F3A00E7
:10273A004261636B3A004C6566743A005269676895
:10274A00740047726162206973206E6F7420676F2C
:10275A00696E6720746F207475726E2E0044696604
:10276A00663A005365636F6E646172792041726DD7
:10277A00206973206E6F7420676F696E6720746FAB
:10278A00207475726E2E002C0100580200B00400ED
:10279A00600900C01200802500403800004B00800C
:1027AA00700000960000E10000C20100000000C1B4
:0C27BA000ADF08630A920A760AB60A00D9
:00000001FF
