:100000000C94F8000C9429010C9429010C942901FA
:100010000C9429010C9429010C9429010C942901B8
:100020000C9429010C9429010C9429010C942901A8
:100030000C9429010C9429010C9429010C94290198
:100040000C9429010C94E0040C9429010C942901CE
:100050000C9429010C9429010C9429010C948F060D
:100060000C9429010C94040A0C94F40A0C942901B0
:100070000C9429010C9429010C9429010C94290158
:100080000C940E050C9429010C9429010C9429015F
:100090000C94380A0C94330B0C9429010C9429010C
:1000A0000C9429010C9429010C943C050C94290111
:1000B0000C9429010C9429010C9429010C946A05D3
:1000C0000C9429010C9429010C9429010C946C0ABC
:1000D0000C94720B0C9429010C94A00A0C94B10B93
:1000E0000C9429010000090A02080B0C0D070603F5
:1000F00004010000000000000000000000000000FB
:1001000000000000000000000000000000000000EF
:1001100011100F00000000000000000000000000AF
:100120000000000000000000000001021020200874
:100130000810204010204080020102010804020142
:1001400001020408102040808040201008040201B1
:10015000800402018040201008040201080402010A
:100160000102040810204080010204081020408091
:1001700005050505070508080808020202020A0A23
:100180000808040404040101010101010101030341
:10019000030303030303040707070C0C0C0C0C0CEC
:1001A0000C0C0202020206060606060606060B0BE9
:1001B0000B0B0B0B0B0B00002200250028002B0063
:1001C0002E003100340002010000050108010B017E
:1001D00000002100240027002A002D0030003300F9
:1001E00001010000040107010A014B03710C7103B6
:1001F00011241FBECFEFD1E2DEBFCDBF00E00CBFA8
:1002000012E0A0E0B2E0EEEAF3E200E00BBF02C0D1
:1002100007900D92A83BB107D9F716E0A8EBB2E022
:1002200001C01D92AE33B107E1F711E0CEEED1E08F
:1002300000E006C022970109FE010BBF0E945B117E
:10024000CA3ED10780E00807A9F70E94A70D0C94C9
:10025000C5110C94000040E855E260E070E088EFC2
:1002600093E00E94F00B66E072E088EF93E00E945A
:10027000730864E070E087EE92E00E94670665E034
:1002800070E084EE92E00E94670666E070E081EE26
:1002900092E00E94670667E070E08EED92E00E94B7
:1002A000670627E130E046E150E062E070E088ED6B
:1002B00092E00E946E0629E130E048E150E063E000
:1002C00070E082ED92E00E946E068AEE92E00E945B
:1002D000A5038AEE92E00C94B803AF92BF92CF923E
:1002E000DF92EF92FF920F931F93CF93DF93CDB7DF
:1002F000DEB769970FB6F894DEBF0FBECDBF809111
:10030000B802882309F49BC18E010D5E1F4F67E27E
:1003100072E0C8010E94250EB80189EB92E00E94AC
:10032000BA0E9A838983C8010E94B40DEE24E39427
:10033000F12CEC0EFD1E5E0181E1A80EB11C6801DE
:10034000F701019111917F0167E272E0C6010E94FD
:10035000250EA8014F5F5F4FB60189EB92E00E9426
:100360009C0EF70191838083C6010E94B40DEA14AC
:10037000FB0431F7E980FA80970140E050E069EB37
:1003800072E0C6010E94BE0EC6010E94030F709368
:10039000D1026093D002C6010E94B40D0B811C8172
:1003A000A7014F5F5F4F980169EB72E0C6010E94A1
:1003B000BE0EC6010E94030F7093CF026093CE025F
:1003C000C6010E94B40DED80FE80A8014F5F5F4F13
:1003D000970169EB72E0C6010E94BE0EC6010E9441
:1003E000030F7093CD026093CC02C6010E94B40D3E
:1003F0000F811885A7014F5F5F4F980169EB72E08D
:10040000C6010E94BE0EC6010E94030F7093CB026C
:100410006093CA02C6010E94B40DE984FA84A8015F
:100420004F5F5F4F970169EB72E0C6010E94BE0EFD
:10043000C6010E94030F7093C9026093C802C601EF
:100440000E94B40D0B851C85A7014F5F5F4F98017B
:1004500069EB72E0C6010E94BE0EC6010E94030F46
:100460007093C7026093C602C6010E94B40DED846A
:10047000FE84A8014F5F5F4F970169EB72E0C601F0
:100480000E94BE0EC6010E94030F7093C5026093C6
:10049000C402C6010E94B40D0F851889A7014F5FE1
:1004A0005F4F980169EB72E0C6010E94BE0EC60163
:1004B0000E94030F7093C3026093C202C6010E94A0
:1004C000B40D29893A89A8014F5F5F4F69EB72E04B
:1004D000C6010E94BE0EC6010E94030F7093C102A6
:1004E0006093C002C6010E94B40D8091CE0290912B
:1004F000CF020097D1F48091D0029091D102813047
:10050000910561F58091CA029091CB02892B09F087
:1005100046C08091CC029091CD02892B09F03FC05A
:1005200048EC50E068EC70E03EC00197C1F5809166
:10053000D0029091D102892B91F58091CA029091BD
:10054000CB02892B61F58091CC029091CD02892B51
:1005500031F548E35FEF68E37FEF25C0892BF9F4BD
:100560008091CC029091CD022091CA023091CB02B1
:100570002115310531F48130910519F441E050E045
:1005800007C02130310559F4892B49F44FEF5FEF53
:1005900065ED70E08AEE92E00E94BF0308C040E083
:1005A00050E060E070E08AEE92E00E94EC0369E2C5
:1005B00072E088EF93E00E9454086091D00270913D
:1005C000D1024AE050E088EF93E00E942E096DE2EC
:1005D00072E088EF93E00E9454086091CE0270911F
:1005E000CF024AE050E088EF93E00E942E0963E3D7
:1005F00072E088EF93E00E9454086091CC02709101
:10060000CD024AE050E088EF93E00E942E0969E3B2
:1006100072E088EF93E00E9454086091CA027091E2
:10062000CB024AE050E088EF93E00E94360969E58A
:1006300072E089EB92E00E94420E1092B802699635
:100640000FB6F894DEBF0FBECDBFDF91CF911F91E3
:100650000F91FF90EF90DF90CF90BF90AF900895F3
:10066000CF93DF93D1E00EC088EF93E00E947F0923
:10067000C82F682F89EB92E00E94880ECA3011F4CF
:10068000D093B80288EF93E00E945009892B61F75C
:10069000DF91CF9108954AE050E066ED73E08AEE75
:1006A00092E00E94830387EE92E00E94980584EE18
:1006B00092E00E94980581EE92E00E9498058EEDEE
:1006C00092E00E94980588ED92E00E946D0682ED0E
:1006D00092E00E946D0669E572E089EB92E00C946D
:1006E000250E89EB92E00C94B40DDC01ED91FC91A8
:1006F0000190F081E02D1994DC01ED91FC910190C5
:10070000F081E02D1994DC0115967C936E9314977B
:100710004C30510570F4FA01EE0FFF1FE40FF51F86
:10072000EC57FD4F208131814281642FA90170E097
:1007300004C040E051EE60E070E04D935D936D9336
:100740007C93139716961C920895CF93DF93EC0138
:10075000488159816A817B818C819D810E94F00B47
:1007600060E870E08C819D81DF91CF910C947C03D7
:1007700064E870E0FC01848195810C947C03EF9225
:10078000FF920F931F93CF93DF93EC017B018A01BC
:1007900069E870E08C819D810E947C036F2D70E080
:1007A0008C819D810E947503B70177278C819D8183
:1007B0000E947C03612F70E08C819D810E947503F3
:1007C000B80177278C819D81DF91CF911F910F9187
:1007D000FF90EF900C947C03EF92FF920F931F9386
:1007E000CF93DF93EC018B017A0161E970E08C819A
:1007F0009D810E947C036F2D70E08C819D810E9401
:100800007503B70177278C819D810E947C03612F3E
:1008100070E08C819D810E947503B80177278C81DF
:100820009D81DF91CF911F910F91FF90EF900C94DC
:100830007C03EF92FF920F931F93CF93DF938B0173
:100840007A01EC01DC01AB50BD4F8C9187FF05C0F4
:10085000DB0111961C921E9222C02CE02C9FC0013D
:100860002D9F900D11242C91AC01420F511D27FD9D
:100870005A952091F40230E04217530784F42C91EA
:10088000FC01E20FF11D27FDFA959F01EE0FFF1FFE
:10089000E20FF31FE750FD4F208126FD45C0FE010A
:1008A000EB50FD4F80818F5F80832CE02C9FC00137
:1008B0002D9F900D11242081AC01420F511D27FD69
:1008C0005A952091F40230E0421753070CF03EC0D5
:1008D00020812C300CF442C039C02081820F911D40
:1008E00027FD9A95FC01EE0FFF1FE80FF91FE75057
:1008F000FD4F808161E08F73DF91CF911F910F9148
:10090000FF90EF900C94DF0780E49CE904C0F801AD
:10091000808191810496D70111969C938E93CB5040
:10092000DD4F8FEF888345C02C91820F911D27FDED
:100930009A95FC01EE0FFF1FE80FF91FE750FD4FDE
:10094000808160E08F730E94DF07A9CFF80180816A
:100950009181049680349C49B8F2D9CFD8012D9169
:100960003C914081BC01640F711D47FD7A95AB013C
:10097000DB01AA0FBB1FA40FB51FA750BD4F1196D7
:100980004D915C911297240F351FD70111963C931E
:100990002E932081AC01420F511D27FD5A95DA019B
:1009A000AA0FBB1FA40FB51FA750BD4F2C9126FD4A
:1009B00094CFDF91CF911F910F91FF90EF90089509
:1009C0001F920F920FB60F9211240BB60F922F9316
:1009D0003F934F935F936F937F938F939F93AF93C7
:1009E000BF93EF93FF9348E850E064E870E081E044
:1009F00090E00E941904FF91EF91BF91AF919F91F8
:100A00008F917F916F915F914F913F912F910F90B7
:100A10000BBE0F900FBE0F901F9018951F920F9254
:100A20000FB60F9211240BB60F922F933F934F9353
:100A30005F936F937F938F939F93AF93BF93EF9346
:100A4000FF9348E950E064E970E082E090E00E94A2
:100A50001904FF91EF91BF91AF919F918F917F9179
:100A60006F915F914F913F912F910F900BBE0F901F
:100A70000FBE0F901F9018951F920F920FB60F92F6
:100A800011240BB60F922F933F934F935F936F9365
:100A90007F938F939F93AF93BF93EF93FF9348EA16
:100AA00050E064EA70E083E090E00E941904FF9156
:100AB000EF91BF91AF919F918F917F916F915F91D6
:100AC0004F913F912F910F900BBE0F900FBE0F9043
:100AD0001F9018951F920F920FB60F9211240BB60C
:100AE0000F922F933F934F935F936F937F938F93C7
:100AF0009F93AF93BF93EF93FF9348E251E064E27B
:100B000071E080E090E00E941904FF91EF91BF91A5
:100B1000AF919F918F917F916F915F914F913F9195
:100B20002F910F900BBE0F900FBE0F901F90189536
:100B30002091F4022033A0F4FC012083822F8F5FE8
:100B40008093F402822F90E0FC01EE0FFF1FE80F6C
:100B5000F91FE750FD4F88EB9BE092838183089556
:100B60002FEFFC0120830895DF92EF92FF920F9305
:100B70001F93CF93DF93EC01D62E7A0189018881F0
:100B8000803308F094C061E08D2D0E94A707888112
:100B9000A82FB0E0FD01EE0FFF1FEA0FFB1FE7508B
:100BA000FD4F2D2D2F739081907C922B908360E2CE
:100BB00072E06E197F0977FF02C06D5F7F4F7595F8
:100BC000679575956795698340E659E0401B510B21
:100BD00057FF02C04D5F5F4F559547955595479517
:100BE0004A836CE00E942D119CE0899FB001112482
:100BF00020E030E0A901460F571FFA01EE0FFF1F5A
:100C0000E40FF51FE750FD4F908196FD44C02F5F24
:100C10003F4F2C30310571F74CC01092800082E0BC
:100C2000809381001092850010928400B19A809187
:100C30006F00826080936F002EC08230910569F44E
:100C40001092900082E08093910010929500109293
:100C5000940088BB809371001EC08330910569F4B5
:100C60001092A00082E08093A1001092A500109243
:100C7000A40089BB809372000EC0892B61F410928E
:100C8000200182E08093210110922501109224011D
:100C90008ABB80937300888190E0FC01EE0FFF1FF8
:100CA000E80FF91FE750FD4F8081806480838881C1
:100CB00006C090E08130910509F0BFCFAECFDF9143
:100CC000CF911F910F91FF90EF90DF90089520E654
:100CD00039E040E252E00C94B4050895CF93DF93DD
:100CE0001F921F92CDB7DEB7FC01862F6083718300
:100CF000428353832483358361E02A8349830E949E
:100D0000A70761E04981842F0E94A70761E02A813B
:100D1000822F0F900F90DF91CF910C94A7071F9215
:100D20000F920FB60F9211242F933F938F939F939F
:100D3000AF93BF938091890390918A03A0918B0315
:100D4000B0918C0330919103232F2D5F2D3720F428
:100D50000196A11DB11D05C0232F2A570296A11D82
:100D6000B11D209391038093890390938A03A093EC
:100D70008B03B0938C0380918D0390918E03A0918F
:100D80008F03B09190030196A11DB11D80938D0337
:100D900090938E03A0938F03B0939003BF91AF9174
:100DA0009F918F913F912F910F900FBE0F901F90A9
:100DB0001895789484B5826084BD84B5816084BDC3
:100DC00085B5826085BD85B5816085BDEEE6F0E0C4
:100DD000808181608083E1E8F0E010828081826020
:100DE0008083808181608083E0E8F0E080818160A1
:100DF0008083E1EBF0E0808184608083E0EBF0E0D1
:100E0000808181608083E1E9F0E08081826080837D
:100E1000808181608083E0E9F0E08081816080836F
:100E2000E1EAF0E08081826080838081816080835C
:100E3000E0EAF0E0808181608083E1E2F1E080819E
:100E400082608083808181608083E0E2F1E0808144
:100E500081608083EAE7F0E0808184608083808124
:100E600082608083808181608083808180688083CC
:100E70001092C1000895893009F443C088F4843089
:100E800029F138F4823059F1E8F4813009F05EC07C
:100E900023C0873061F188F5863009F057C023C040
:100EA0008D3009F440C020F48B30A9F1C0F52DC07D
:100EB000803109F442C0813109F443C08F3009F018
:100EC00045C037C0809180008F7703C0809180003B
:100ED0008F7D80938000089584B58F7702C084B59C
:100EE0008F7D84BD08958091B0008F7703C080917D
:100EF000B0008F7D8093B0000895809190008F772F
:100F000007C0809190008F7D03C080919000877F03
:100F10008093900008958091A0008F7707C0809102
:100F2000A0008F7D03C08091A000877F8093A000E8
:100F30000895809120018F7707C0809120018F7DD7
:100F400003C080912001877F809320010895CF9373
:100F5000DF9390E0FC01E65DFE4F4491FC01E05917
:100F6000FE4F8491882341F190E0880F991FFC0186
:100F7000E053FE4F25913491D9018A549E4FFC01D4
:100F800085919491C82FD92F9FB7F8948C916111B6
:100F900006C0409584238C938881842308C06230E6
:100FA00041F4242F209582238C938881842B88837D
:100FB00002C0842B8C939FBFDF91CF9108950F9334
:100FC0001F93CF93DF931F92CDB7DEB7282F30E06A
:100FD000F901EC51FF4F8491F901E65DFE4F149148
:100FE000F901E059FE4F04910023D1F0882321F04C
:100FF00069830E943B076981E02FF0E0EE0FFF1F3D
:10100000EA54FE4F85919491DC019FB7F8948C913E
:10101000611103C01095812301C0812B8C939FBF68
:101020000F90DF91CF911F910F910895CF92DF9292
:10103000EF92FF920F931F93CF93DF936C01EB011D
:101040007A01E60EF71E00E010E00BC06991D601B0
:10105000ED91FC910190F081E02DC6011995080FEA
:10106000191FCE15DF0591F7C801DF91CF911F91B0
:101070000F91FF90EF90DF90CF900895611571056B
:1010800081F0DB010D900020E9F7AD0141505109DD
:10109000461B570BDC01ED91FC910280F381E02DA2
:1010A000199480E090E008950C943E08DC01ED91E5
:1010B000FC910190F081E02D19940F931F93CF9331
:1010C000DF93EC016DE00E9456088C016AE0CE01CE
:1010D0000E9456089C01200F311FC901DF91CF915A
:1010E0001F910F9108950F931F93CF93DF93EC01FE
:1010F0000E943E088C01CE010E945D089801280FD5
:10110000391FC901DF91CF911F910F9108954F921F
:101110005F926F927F929F92AF92BF92CF92DF9237
:10112000EF92FF920F931F93CF93DF93CDB7DEB76C
:10113000A1970FB6F894DEBF0FBECDBF5C016A0168
:101140007B01922E19A281E0821710F08AE0982E7E
:101150008E010F5D1F4F492C512C612C712CC70142
:10116000B601A30192010E9439118C2D929E801923
:101170001124015011098A3014F4805D01C0895C8A
:10118000F801808369017A01C114D104E104F104FA
:1011900031F7B801C5010E943E08A1960FB6F89438
:1011A000DEBF0FBECDBFDF91CF911F910F91FF909A
:1011B000EF90DF90CF90BF90AF909F907F906F9017
:1011C0005F904F900895CF92DF92EF92FF920F932E
:1011D0001F93CF93DF93EC016A017B012115310549
:1011E00079F4E881F9810190F081E02D642FDF919D
:1011F000CF911F910F91FF90EF90DF90CF901994B6
:101200002A30310519F477FD0EC02AE0B701A60196
:10121000CE01DF91CF911F910F91FF90EF90DF9062
:10122000CF900C9487086DE20E9456088C014427E9
:101230005527BA014C195D096E097F092AE0CE01D4
:101240000E948708080F191FC801DF91CF911F91D5
:101250000F91FF90EF90DF90CF9008959A01AB012E
:10126000662757FD6095762F0C94E3080F931F9324
:10127000CF93DF93EC019A01AB01662757FD609590
:10128000762F0E94E3088C01CE010E945D08980130
:10129000280F391FC901DF91CF911F910F91089538
:1012A000FC0184859585FC01E05CFF4F2081318144
:1012B000FC01EE5BFF4F80819181281B390B2F735E
:1012C0003327C9010895FC0184859585FC01E05C04
:1012D000FF4F40815181FC01EE5BFF4F2081318146
:1012E0004217530741F00190F081E02DE80FF91FFC
:1012F000208130E002C02FEF3FEFC9010895FC01CB
:1013000084859585FC01E05CFF4F40815181FC01A3
:10131000EE5BFF4F208131814217530781F0A0819E
:10132000B181A80FB91F8C91208131812F5F3F4F70
:101330002F73332731832083282F30E002C02FEF13
:101340003FEFC9010895FC0181A1882329F0A489F8
:10135000B5898C9186FFFBCF11A20895CF93DF93BF
:10136000FC0126853785D901A05CBF4F8D919C91EA
:10137000119701968F739927E901CE5BDF4F488162
:10138000598184179507D9F30D90BC91A02DA20F18
:10139000B31F6C93A685B785A05CBF4F11969C9335
:1013A0008E93A689B7892C9181E090E0078C02C0CA
:1013B000880F991F0A94E2F7282B2C9381E081A3D0
:1013C0000488F589E02D80818064808381E090E04D
:1013D000DF91CF910895FB01E05CFF4F20813181C7
:1013E0002F5F3F4F2F733327DB01AE5BBF4F4D9114
:1013F0005C912417350739F0A081B181A60FB71F82
:101400008C933183208308951F920F920FB60F9211
:1014100011240BB60F922F933F934F935F936F93CB
:101420007F938F939F93AF93BF93EF93FF9380919D
:10143000C00082FD07C08091C60066EF75E00E9483
:10144000EB0902C08091C600FF91EF91BF91AF916F
:101450009F918F917F916F915F914F913F912F91CC
:101460000F900BBE0F900FBE0F901F901895089510
:101470001F920F920FB60F9211240BB60F922F935B
:101480003F934F935F936F937F938F939F93AF930C
:10149000BF93EF93FF938091C80082FD07C08091B6
:1014A000CE006EE675E00E94EB0902C08091CE008E
:1014B000FF91EF91BF91AF919F918F917F916F912C
:1014C0005F914F913F912F910F900BBE0F900FBEE8
:1014D0000F901F90189508951F920F920FB60F92BC
:1014E00011240BB60F922F933F934F935F936F93FB
:1014F0007F938F939F93AF93BF93EF93FF938091CD
:10150000D00082FD07C08091D60066EE74E00E9494
:10151000EB0902C08091D600FF91EF91BF91AF918E
:101520009F918F917F916F915F914F913F912F91FB
:101530000F900BBE0F900FBE0F901F90189508953F
:101540001F920F920FB60F9211240BB60F922F938A
:101550003F934F935F936F937F938F939F93AF933B
:10156000BF93EF93FF938091300182FD07C080917C
:1015700036016EE574E00E94EB0902C080913601ED
:10158000FF91EF91BF91AF919F918F917F916F915B
:101590005F914F913F912F910F900BBE0F900FBE17
:1015A0000F901F90189588EF93E00E945009892BA7
:1015B00011F00E94300386ED93E00E945009892BC0
:1015C00011F00E94370A84EB93E00E945009892BA6
:1015D00011F00E946B0A82E993E00E945009892B66
:1015E00011F00C949F0A08951F920F920FB60F925C
:1015F00011240BB60F922F933F938F939F93EF93EA
:10160000FF932091F2053091F3058091F4059091BC
:10161000F5052817390731F48091C1008F7D80933B
:10162000C10014C0E091F405F091F505EE54FA4FB5
:1016300020818091F4059091F50501968F7399278B
:101640009093F5058093F4052093C600FF91EF91E8
:101650009F918F913F912F910F900BBE0F900FBED6
:101660000F901F9018951F920F920FB60F92112492
:101670000BB60F922F933F938F939F93EF93FF930C
:1016800020916A0530916B0580916C0590916D05F4
:101690002817390731F48091C9008F7D8093C900E4
:1016A00014C0E0916C05F0916D05E65DFA4F208164
:1016B00080916C0590916D0501968F739927909399
:1016C0006D0580936C052093CE00FF91EF919F9163
:1016D0008F913F912F910F900BBE0F900FBE0F90E7
:1016E0001F9018951F920F920FB60F9211240BB6F0
:1016F0000F922F933F938F939F93EF93FF9320919C
:10170000E2043091E3048091E4049091E504281709
:10171000390731F48091D1008F7D8093D10014C0BE
:10172000E091E404F091E504EE55FB4F20818091B7
:10173000E4049091E50401968F7399279093E50452
:101740008093E4042093D600FF91EF919F918F91B5
:101750003F912F910F900BBE0F900FBE0F901F90D7
:1017600018951F920F920FB60F9211240BB60F927D
:101770002F933F938F939F93EF93FF9320915A045E
:1017800030915B0480915C0490915D0428173907C7
:1017900031F4809131018F7D8093310114C0E0914B
:1017A0005C04F0915D04E65EFB4F208180915C0457
:1017B00090915D0401968F73992790935D048093B7
:1017C0005C0420933601FF91EF919F918F913F919F
:1017D0002F910F900BBE0F900FBE0F901F9018957A
:1017E000CF92DF92EF92FF92CF93DF93EC016A01E9
:1017F0007B01411581EE580761057105F9F0EC890F
:10180000FD8981E090E008A002C0880F991F0A942A
:10181000E2F7808360E079E08DE390E0A701960134
:101820000E943911215031094109510956954795B6
:1018300037952795211580E1380798F0EC89FD89C7
:10184000108260E874E88EE190E0A70196010E94A2
:10185000391121503109410951095695479537955C
:101860002795E889F9893083EA89FB89208319A2C1
:10187000EE89FF89408181E090E09C010C8C02C0E0
:10188000220F331F0A94E2F7422B4083EE89FF892F
:1018900040819C010D8C02C0220F331F0A94E2F795
:1018A000422B4083EE89FF8940819C010E8C02C04F
:1018B000220F331F0A94E2F7422B4083EE89FF89FF
:1018C00020810F8C02C0880F991F0A94E2F780953F
:1018D00082238083DF91CF91FF90EF90DF90CF90B4
:1018E0000895CF931092FB031092FA0388EE93E0D1
:1018F000A0E0B0E08093FC039093FD03A093FE036F
:10190000B093FF032CEA32E03093F9032093F803FD
:1019100046EF55E0509305044093040442EB55E034
:10192000509307044093060445EC50E0509309049B
:101930004093080444EC50E050930B0440930A0495
:1019400040EC50E050930D0440930C0441EC50E007
:1019500050930F0440930E0442EC50E05093110456
:101960004093100446EC50E050931304409312044B
:10197000C4E0C0931404F3E0F0931504E7E0E093AF
:10198000160475E07093170461E0609318041092D8
:10199000D9031092D8038093DA039093DB03A093CA
:1019A000DC03B093DD033093D7032093D6034EE6D8
:1019B00055E05093E3034093E2034AE255E050932D
:1019C000E5034093E4034DEC50E05093E70340936C
:1019D000E6034CEC50E05093E9034093E80348ECF5
:1019E00050E05093EB034093EA0349EC50E05093EE
:1019F000ED034093EC034AEC50E05093EF03409327
:101A0000EE034EEC50E05093F1034093F003C0938B
:101A1000F203F093F303E093F4037093F503609300
:101A2000F6031092B7031092B6038093B803909315
:101A3000B903A093BA03B093BB033093B5032093CB
:101A4000B40346EE54E05093C1034093C00342EA0E
:101A500054E05093C3034093C20345ED50E05093CC
:101A6000C5034093C40344ED50E05093C703409333
:101A7000C60340ED50E05093C9034093C80341EDC5
:101A800050E05093CB034093CA0342ED50E0509393
:101A9000CD034093CC0346ED50E05093CF034093E9
:101AA000CE03C093D003F093D103E093D20370939D
:101AB000D3036093D4031092950310929403809300
:101AC000960390939703A0939803B0939903309350
:101AD0009303209392038EE594E090939F03809369
:101AE0009E038AE194E09093A1038093A00385E391
:101AF00091E09093A3038093A20384E391E09093F9
:101B0000A5038093A40380E391E09093A7038093BF
:101B1000A60381E391E09093A9038093A80382E355
:101B200091E09093AB038093AA0386E391E09093B6
:101B3000AD038093AC03C093AE03F093AF03E09387
:101B4000B0037093B1036093B203CF9108950E94E4
:101B5000D9060E942B01C3EDDAE00E946D012097A7
:101B6000E1F30E94D30AF9CFFC01808191810C94AA
:101B7000AA0FCF93DF93EC0188819981009711F030
:101B80000E94AA0F198218821D821C821B821A824F
:101B9000DF91CF9108950F931F93CF93DF93EC01C3
:101BA0008B016F5F7F4F888199810E944910009758
:101BB00031F0998388831B830A8381E001C080E030
:101BC000DF91CF911F910F910895CF93DF93EC0197
:101BD00088819981892B31F08A819B8186179707AB
:101BE00008F00CC0CE010E94CB0D882349F08C81F7
:101BF0009D81892B19F4E881F981108281E001C06F
:101C000080E0DF91CF910895EF92FF920F931F93A1
:101C1000CF93DF93EC017B018A01BA010E94E50DAD
:101C2000811104C0CE010E94B90D07C01D830C8331
:101C3000B701888199810E948F11CE01DF91CF91E8
:101C40001F910F91FF90EF900895DC0111961C9267
:101C50001E9213961C921E92129715961C921E921B
:101C6000149716961C926115710559F0DB010D90C1
:101C70000020E9F7AD0141505109461B570B0C9468
:101C8000040E0895CF93DF93D82FC92F61157105E6
:101C900061F0DB010D900020E9F7AD0141505109E1
:101CA000461B570B0E94040E02C00E94B90D8D2FD7
:101CB0009C2FDF91CF910895EF92FF920F931F9386
:101CC000CF93DF93EC017B010C811D8161157105C0
:101CD00011F480E016C04115510591F0040F151F55
:101CE000B8010E94E50D8823A1F3288139818C81F8
:101CF0009D81B701820F931F0E948F111D830C835A
:101D000081E0DF91CF911F910F91FF90EF900895A7
:101D1000CF93DF931F921F92CDB7DEB769831A82EC
:101D200041E050E0BE016F5F7F4F0E945C0E0F905C
:101D30000F90DF91CF910895CF93DF93FC018481C1
:101D400095814817590780F4C081D181FB016081DA
:101D50007181CE01840F951F0E949611009721F08A
:101D60009C012C1B3D0B02C02FEF3FEFC901DF91FF
:101D7000CF91089540E050E00C949C0EBF92CF921A
:101D8000DF92EF92FF920F931F93CF93DF936C013B
:101D90007B01EA0189012417350720F48D2FE90121
:101DA000042F182F69E572E0C6010E94250ED701A5
:101DB00014968D919C9115978C179D07C8F08017EC
:101DC000910708F48C01D701ED91FC911197E00F78
:101DD000F11FB08010826D917C916C0F7D1FC60148
:101DE0000E94420ED701ED91FC91E00FF11FB082ED
:101DF000C601DF91CF911F910F91FF90EF90DF907F
:101E0000CF90BF900895FC0180819181009711F0DF
:101E10000C945F1160E070E080E090E008950F9313
:101E20001F93CF93DF938230910510F482E090E00E
:101E3000E0913C06F0913D0620E030E0C0E0D0E0CB
:101E400023C04081518148175907A8F04817590706
:101E500061F482819381209719F09B838A832EC03D
:101E600090933D0680933C0629C02115310529F049
:101E70004217530710F0A90102C0BE01DF01028121
:101E80001381EF019A01F8013097D9F62115310538
:101E900009F1281B390B2430310590F412968D91ED
:101EA0009C9113976115710521F0FB019383828347
:101EB00004C090933D0680933C06FD01329644C0D9
:101EC000FD01E20FF31F81939193225031092D936D
:101ED0003C933AC020913A0630913B06232B41F4C3
:101EE000209102023091030230933B0620933A0680
:101EF00020910002309101022115310541F42DB7E6
:101F00003EB74091040250910502241B350BE0912D
:101F10003A06F0913B06E217F307A0F42E1B3F0BA5
:101F20002817390778F0AC014E5F5F4F241735074B
:101F300048F04E0F5F1F50933B0640933A06819343
:101F4000919302C0E0E0F0E0CF01DF91CF911F91CB
:101F50000F910895EF92FF920F931F93CF93DF930A
:101F6000009709F48FC0DC01129713961C921E9201
:101F70001297E0903C06F0903D06E114F10489F4DC
:101F80002D913C911197280F391F80913A0690911D
:101F90003B068217930789F5B0933B06A0933A0658
:101FA00071C0E70120E030E001C0EA01CA17DB0799
:101FB00038F44A815B819E0141155105B1F722C079
:101FC000BC0162507109FB01D383C283008111817E
:101FD000AC01400F511F4C175D0761F448815981D6
:101FE000400F511F4E5F5F4F518340834A815B8199
:101FF000538342832115310529F4B0933D06A09304
:102000003C0640C0F901B383A283E901699179914B
:10201000C60FD71FAC17BD0779F4DC015E914E9156
:10202000460F571F4E5F5F4F5183408312968D912D
:102030009C91139793838283A0E0B0E002C0D70104
:102040007C01F701828193810097C9F7C70102964D
:1020500020813181820F931F20913A0630913B06F7
:102060002817390779F4109729F410923D06109239
:102070003C0604C013961C921E921297F0923B06E7
:10208000E0923A06DF91CF911F910F91FF90EF9070
:1020900008958F929F92AF92BF92CF92DF92EF926C
:1020A000FF920F931F93CF93DF93EC01009779F486
:1020B000CB01DF91CF911F910F91FF90EF90DF90B7
:1020C000CF90BF90AF909F908F900C940F0FDC013A
:1020D000A60FB71FFC013297AE17BF0718F4C0E078
:1020E000D0E0ADC00081118106171707B0F00530B0
:1020F000110508F4A4C0C80104978617970708F4CF
:102100009EC002501109061B170B0D931D9371837E
:102110006083CD010E94AA0F92C07B01E01AF10AF0
:102120005C01A00EB11EE0913C06F0913D06812CB1
:10213000912C80E090E04CC0EA15FB05F1F5408160
:1021400051816A0122E0C20ED11CCE14DF04A8F135
:102150009A012E193F097901690132E0C30ED11CA1
:102160002EEFA22EBB24BA94AC0EBD1E25E0C216E3
:10217000D10478F04281538113965C934E93129769
:102180001196FC92EE92F501718360833A2F2B2F0A
:1021900009C00E5F1F4F040F151FD5010D931C932F
:1021A00032812381009721F0FC013283238347C0D1
:1021B00030933C0620933D0642C080819181881671
:1021C000990608F44C0152814381CF01E52FF42F89
:1021D000309709F0B1CF80913A0690913B068A156D
:1021E0009B05F1F486169706D8F480910002909131
:1021F0000102009741F48DB79EB7209104023091FF
:102200000502821B930BA817B90708F068CFB0939B
:102210003B06A0933A06FE013297718360830FC09C
:10222000CB010E940F0F7C01009709F458CFA80141
:10223000BE010E948611CE010E94AA0FE701CE01C5
:10224000DF91CF911F910F91FF90EF90DF90CF9092
:10225000BF90AF909F908F900895991B79E004C034
:10226000991F961708F0961B881F7A95C9F78095D5
:102270000895A1E21A2EAA1BBB1BFD010DC0AA1FC7
:10228000BB1FEE1FFF1FA217B307E407F50720F0DF
:10229000A21BB30BE40BF50B661F771F881F991F5A
:1022A0001A9469F760957095809590959B01AC01A3
:1022B000BD01CF0108950790F691E02D19941F9369
:1022C000FC0199278827BC01E89411911032E9F3A9
:1022D000193010F01E30C8F31B3251F01D3249F492
:1022E000689406C00E94B011610F711D811D911D7F
:1022F000119110531A30B0F33EF49095809570957B
:1023000061957F4F8F4F9F4F1F910895FB01DC0117
:1023100002C001900D9241505040D8F70895FB0142
:10232000DC0101900D920020E1F70895FB0151912D
:102330005523A9F0BF01DC014D9145174111E1F78B
:1023400059F4CD010190002049F04D914015411103
:10235000C9F3FB014111EFCF81E090E001970895AF
:10236000592F482F372F262F660F771F881F991F49
:10237000660F771F881F991F620F731F841F951F99
:10238000660F771F881F991F089511E0CEEED1E0E8
:1023900000E006C022970109FE010BBF0E945B11FD
:0E23A000C03FD10780E00807A9F7F894FFCFEF
:1023AE0000003E06800053657269616C20636F6D9C
:1023BE006D756E69636174696F6E206573746162A9
:1023CE006C6973686564003B00476F3A0042616355
:1023DE006B3A004C6566743A005269676874004740
:1023EE00726162206973206E6F7420676F696E6709
:1023FE0020746F207475726E2E00446966663A0002
:10240E005365636F6E646172792041726D206973DA
:10241E00206E6F7420676F696E6720746F207475FD
:10242E00726E2E002C0100580200B00400600900EC
:10243E00C01200802500403800004B008070000064
:10244E00960000E10000C20100000000AE0916086F
:08245E0050097F096309A3097D
:00000001FF
