:100000000C9475000C94A6000C94A6000C94A60009
:100010000C94A6000C94A6000C94A6000C94A600C8
:100020000C94A6000C94A6000C94A6000C94A600B8
:100030000C94A6000C94A6000C94A6000C94A600A8
:100040000C94A6000C94A6000C94A6000C94A60098
:100050000C94A6000C94A6000C94A6000C94DA064E
:100060000C94A6000C9431020C9421030C94A6006D
:100070000C94A6000C94A6000C94A6000C94A60068
:100080000C94A6000C94A6000C94A6000C94A60058
:100090000C9465020C9460030C94A6000C94A600CA
:1000A0000C94A6000C94A6000C94A6000C94A60038
:1000B0000C94A6000C94A6000C94A6000C94A60028
:1000C0000C94A6000C94A6000C94A6000C94990223
:1000D0000C949F030C94A6000C94CD020C94DE03A8
:1000E0000C94A600E4009E04EA0011241FBECFEF8A
:1000F000D1E2DEBFCDBF00E00CBF12E0A0E0B2E075
:10010000E8EDF3E100E00BBF02C007900D92A831CB
:10011000B107D9F714E0A8E1B2E001C01D92A53DF6
:10012000B107E1F710E0C8EED0E000E006C022978A
:100130000109FE010BBF0E94C609C43ED10780E041
:100140000807A9F70E94D4050C94DA090C94000062
:1001500040E855E260E070E086E892E00E941D040D
:1001600068EC70E089E192E00C941206809118022C
:10017000882371F069E172E086E892E00E946901EB
:1001800066E072E089E192E00E946F061092180228
:100190000895CF93DF93D1E00EC086E892E00E94ED
:1001A000AC01C82F682F89E192E00E94B506CA30E1
:1001B00011F4D093180286E892E00E947D01892B09
:1001C00061F7DF91CF91089566E072E089E192E0F6
:1001D0000C94520689E192E00C94E105CF92DF92F3
:1001E000EF92FF920F931F93CF93DF936C01EB017C
:1001F0007A01E60EF71E00E010E00BC06991D6010F
:10020000ED91FC910190F081E02DC6011995080F48
:10021000191FCE15DF0591F7C801DF91CF911F910E
:100220000F91FF90EF90DF90CF900895AF92BF9223
:10023000CF92DF92EF92FF920F931F93CF93DF93B2
:100240007C016B0100E010E0C0E0D0E011C0D701FC
:10025000ED91FC91A080B180B801C6010E94C90651
:10026000682FC701F5011995C80FD91F0F5F1F4FE0
:10027000D60114968D919C9115970817190738F39C
:10028000CE01DF91CF911F910F91FF90EF90DF9002
:10029000CF90BF90AF900895DC01ED91FC9101905B
:1002A000F081E02D19940F931F93CF93DF93EC010E
:1002B0006DE00E944C018C016AE0CE010E944C016D
:1002C0009C01200F311FC901DF91CF911F910F9128
:1002D00008950F931F93CF93DF93EC010E941601B3
:1002E0008C01CE010E9453019C01200F311FC901D6
:1002F000DF91CF911F910F910895FC018485958521
:10030000FC01E05CFF4F20813181FC01EE5BFF4F7F
:1003100080819181281B390B2F733327C9010895E0
:10032000FC0184859585FC01E05CFF4F4081518193
:10033000FC01EE5BFF4F208131814217530741F0F2
:100340000190F081E02DE80FF91F208130E002C01C
:100350002FEF3FEFC9010895FC0184859585FC01CD
:10036000E05CFF4F40815181FC01EE5BFF4F20813B
:1003700031814217530781F0A081B181A80FB91FC5
:100380008C91208131812F5F3F4F2F733327318331
:100390002083282F30E002C02FEF3FEFC9010895DE
:1003A000FC0181A1882329F0A489B5898C9186FF5D
:1003B000FBCF11A20895CF93DF93FC0126853785EB
:1003C000D901A05CBF4F8D919C91119701968F73BD
:1003D0009927E901CE5BDF4F488159818417950742
:1003E000D9F30D90BC91A02DA20FB31F6C93A685DD
:1003F000B785A05CBF4F11969C938E93A689B78951
:100400002C9181E090E0078C02C0880F991F0A941C
:10041000E2F7282B2C9381E081A30488F589E02D55
:1004200080818064808381E090E0DF91CF910895A6
:10043000FB01E05CFF4F208131812F5F3F4F2F7325
:100440003327DB01AE5BBF4F4D915C91241735071D
:1004500039F0A081B181A60FB71F8C93318320831F
:1004600008951F920F920FB60F9211240BB60F92A0
:100470002F933F934F935F936F937F938F939F93AC
:10048000AF93BF93EF93FF938091C00082FD07C0AD
:100490008091C60064E874E00E94180202C0809156
:1004A000C600FF91EF91BF91AF919F918F917F9186
:1004B0006F915F914F913F912F910F900BBE0F90D5
:1004C0000FBE0F901F90189508951F920F920FB6B0
:1004D0000F9211240BB60F922F933F934F935F937C
:1004E0006F937F938F939F93AF93BF93EF93FF93FC
:1004F0008091C80082FD07C08091CE006CEF73E050
:100500000E94180202C08091CE00FF91EF91BF912E
:10051000AF919F918F917F916F915F914F913F919B
:100520002F910F900BBE0F900FBE0F901F9018953C
:1005300008951F920F920FB60F9211240BB60F92CF
:100540002F933F934F935F936F937F938F939F93DB
:10055000AF93BF93EF93FF938091D00082FD07C0CC
:100560008091D60064E773E00E94180202C0809177
:10057000D600FF91EF91BF91AF919F918F917F91A5
:100580006F915F914F913F912F910F900BBE0F9004
:100590000FBE0F901F90189508951F920F920FB6DF
:1005A0000F9211240BB60F922F933F934F935F93AB
:1005B0006F937F938F939F93AF93BF93EF93FF932B
:1005C0008091300182FD07C0809136016CEE72E0AF
:1005D0000E94180202C080913601FF91EF91BF91F5
:1005E000AF919F918F917F916F915F914F913F91CB
:1005F0002F910F900BBE0F900FBE0F901F9018956C
:1006000086E892E00E947D01892B11F00E94C900CA
:1006100084E692E00E947D01892B11F00E94640221
:1006200082E492E00E947D01892B11F00E949802E1
:1006300080E292E00E947D01892B11F00C94CC02A3
:1006400008951F920F920FB60F9211240BB60F92BE
:100650002F933F938F939F93EF93FF932091800469
:100660003091810480918204909183042817390786
:1006700031F48091C1008F7D8093C10014C0E0915E
:100680008204F0918304E05CFB4F2081809182041E
:100690009091830401968F7399279093830480939C
:1006A00082042093C600FF91EF919F918F913F911B
:1006B0002F910F900BBE0F900FBE0F901F901895AB
:1006C0001F920F920FB60F9211240BB60F922F9319
:1006D0003F938F939F93EF93FF932091F803309173
:1006E000F9038091FA039091FB032817390731F43D
:1006F0008091C9008F7D8093C90014C0E091FA03F6
:10070000F091FB03E854FC4F20818091FA03909113
:10071000FB0301968F7399279093FB038093FA0351
:100720002093CE00FF91EF919F918F913F912F9158
:100730000F900BBE0F900FBE0F901F9018951F9239
:100740000F920FB60F9211240BB60F922F933F9377
:100750008F939F93EF93FF932091700330917103D8
:1007600080917203909173032817390731F48091B7
:10077000D1008F7D8093D10014C0E0917203F0917D
:100780007303E05DFC4F20818091720390917303AD
:1007900001968F739927909373038093720320932C
:1007A000D600FF91EF919F918F913F912F910F90E4
:1007B0000BBE0F900FBE0F901F9018951F920F92B7
:1007C0000FB60F9211240BB60F922F933F938F9376
:1007D0009F93EF93FF932091E8023091E90280917B
:1007E000EA029091EB022817390731F48091310128
:1007F0008F7D8093310114C0E091EA02F091EB0209
:10080000E855FD4F20818091EA029091EB0201961C
:100810008F7399279093EB028093EA02209336011D
:10082000FF91EF919F918F913F912F910F900BBE70
:100830000F900FBE0F901F901895CF92DF92EF92FE
:10084000FF92CF93DF93EC016A017B01411581EEAA
:10085000580761057105F9F0EC89FD8981E090E0A8
:1008600008A002C0880F991F0A94E2F7808360E015
:1008700079E08DE390E0A70196010E94A409215040
:100880003109410951095695479537952795211505
:1008900080E1380798F0EC89FD89108260E874E8FF
:1008A0008EE190E0A70196010E94A4092150310930
:1008B000410951095695479537952795E889F98952
:1008C0003083EA89FB89208319A2EE89FF89408160
:1008D00081E090E09C010C8C02C0220F331F0A942F
:1008E000E2F7422B4083EE89FF8940819C010D8C09
:1008F00002C0220F331F0A94E2F7422B4083EE8995
:10090000FF8940819C010E8C02C0220F331F0A9484
:10091000E2F7422B4083EE89FF8920810F8C02C0D1
:10092000880F991F0A94E2F7809582238083DF91D4
:10093000CF91FF90EF90DF90CF900895CF931092DA
:1009400089021092880288EE93E0A0E0B0E08093E4
:100950008A0290938B02A0938C02B0938D022BE0BD
:1009600032E0309387022093860244E854E05093AB
:1009700093024093920240E454E0509395024093D6
:10098000940245EC50E0509397024093960244EC59
:1009900050E0509399024093980240EC50E05093FD
:1009A0009B0240939A0241EC50E050939D02409389
:1009B0009C0242EC50E050939F0240939E0246EC12
:1009C00050E05093A1024093A002C4E0C093A20261
:1009D000F3E0F093A302E7E0E093A40275E07093E4
:1009E000A50261E06093A60210926702109266026F
:1009F0008093680290936902A0936A02B0936B029D
:100A000030936502209364024CEF53E050937102DF
:100A10004093700248EB53E050937302409372028C
:100A20004DEC50E050937502409374024CEC50E052
:100A3000509377024093760248EC50E0509379024D
:100A40004093780249EC50E050937B0240937A0245
:100A50004AEC50E050937D0240937C024EEC50E013
:100A600050937F0240937E02C0938002F0938102F4
:100A7000E093820270938302609384021092450295
:100A8000109244028093460290934702A09348023A
:100A9000B0934902309343022093420244E753E06B
:100AA00050934F0240934E0240E353E05093510263
:100AB0004093500245ED50E0509353024093520250
:100AC00044ED50E0509355024093540240ED50E005
:100AD000509357024093560241ED50E05093590213
:100AE0004093580242ED50E050935B0240935A020B
:100AF00046ED50E050935D0240935C02C0935E026D
:100B0000F0935F02E093600270936102609362026F
:100B100010922302109222028093240290932502C5
:100B2000A0932602B0932702309321022093200243
:100B30008CEE92E090932D0280932C0288EA92E052
:100B400090932F0280932E0285E391E090933102DF
:100B50008093300284E391E09093330280933202D9
:100B600080E391E0909335028093340281E391E039
:100B7000909337028093360282E391E0909339029A
:100B80008093380286E391E090933B0280933A028F
:100B9000C0933C02F0933D02E0933E0270933F020B
:100BA00060934002CF9108950E9424070E94A800FC
:100BB000C0E0D3E00E94B6002097E1F30E9400035A
:100BC000F9CFFC01808191810C942108CF93DF93B0
:100BD000EC0188819981009711F00E942108198207
:100BE00018821D821C821B821A82DF91CF91089588
:100BF0000F931F93CF93DF93EC018B016F5F7F4FB8
:100C0000888199810E94C008009731F09983888378
:100C10001B830A8381E001C080E0DF91CF911F91A7
:100C20000F910895CF93DF93EC0188819981892BEF
:100C300031F08A819B818617970708F00CC0CE019E
:100C40000E94F805882349F08C819D81892B19F435
:100C5000E881F981108281E001C080E0DF91CF91CD
:100C60000895EF92FF920F931F93CF93DF93EC01C0
:100C70007B018A01BA010E941206811104C0CE01D3
:100C80000E94E60507C01D830C83B7018881998106
:100C90000E94D309CE01DF91CF911F910F91FF9058
:100CA000EF900895DC0111961C921E9213961C92EF
:100CB0001E92129715961C921E92149716961C92CD
:100CC0006115710559F0DB010D900020E9F7AD01C8
:100CD00041505109461B570B0C9431060895CF9390
:100CE000DF93D82FC92F6115710561F0DB010D90DD
:100CF0000020E9F7AD0141505109461B570B0E94F6
:100D0000310602C00E94E6058D2F9C2FDF91CF9106
:100D10000895EF92FF920F931F93CF93DF93EC010F
:100D20007B010C811D816115710511F480E016C0F5
:100D30004115510591F0040F151FB8010E941206CC
:100D40008823A1F3288139818C819D81B701820F8D
:100D5000931F0E94D3091D830C8381E0DF91CF9103
:100D60001F910F91FF90EF900895CF93DF931F9203
:100D70001F92CDB7DEB769831A8241E050E0BE0111
:100D80006F5F7F4F0E9489060F900F90DF91CF9188
:100D90000895FC01248135816217730748F480812E
:100DA0009181009729F0FC01E60FF71F80810895DB
:100DB00080E008951F920F920FB60F9211242F9387
:100DC0003F938F939F93AF93BF938091C80490916B
:100DD000C904A091CA04B091CB043091D004232F50
:100DE0002D5F2D3720F40196A11DB11D05C0232FC5
:100DF0002A570296A11DB11D2093D0048093C804E8
:100E00009093C904A093CA04B093CB048091CC04FE
:100E10009091CD04A091CE04B091CF040196A11D74
:100E2000B11D8093CC049093CD04A093CE04B093D5
:100E3000CF04BF91AF919F918F913F912F910F90D0
:100E40000FBE0F901F901895789484B5826084BD72
:100E500084B5816084BD85B5826085BD85B58160BE
:100E600085BDEEE6F0E0808181608083E1E8F0E01E
:100E70001082808182608083808181608083E0E84D
:100E8000F0E0808181608083E1EBF0E0808184602C
:100E90008083E0EBF0E0808181608083E1E9F0E035
:100EA000808182608083808181608083E0E9F0E0DE
:100EB000808181608083E1EAF0E0808182608083CC
:100EC000808181608083E0EAF0E0808181608083BE
:100ED000E1E2F1E0808182608083808181608083B3
:100EE000E0E2F1E0808181608083EAE7F0E08081E8
:100EF0008460808380818260808380818160808340
:100F00008081806880831092C10008950F931F93A1
:100F1000CF93DF938230910510F482E090E0E0916E
:100F2000D304F091D40420E030E0C0E0D0E023C04E
:100F30004081518148175907A8F04817590761F4B3
:100F400082819381209719F09B838A832EC090938E
:100F5000D4048093D30429C02115310529F0421708
:100F6000530710F0A90102C0BE01DF010281138105
:100F7000EF019A01F8013097D9F62115310509F1F1
:100F8000281B390B2430310590F412968D919C91D9
:100F900013976115710521F0FB019383828304C0CF
:100FA0009093D4048093D304FD01329644C0FD0194
:100FB000E20FF31F81939193225031092D933C93BB
:100FC0003AC02091D1043091D204232B41F42091D6
:100FD0000202309103023093D2042093D104209175
:100FE0000002309101022115310541F42DB73EB7C1
:100FF0004091040250910502241B350BE091D1046D
:10100000F091D204E217F307A0F42E1B3F0B281730
:10101000390778F0AC014E5F5F4F2417350748F071
:101020004E0F5F1F5093D2044093D104819391934C
:1010300002C0E0E0F0E0CF01DF91CF911F910F916E
:101040000895EF92FF920F931F93CF93DF93009732
:1010500009F48FC0DC01129713961C921E9212970E
:10106000E090D304F090D404E114F10489F42D91BC
:101070003C911197280F391F8091D1049091D2048F
:101080008217930789F5B093D204A093D10471C05D
:10109000E70120E030E001C0EA01CA17DB0738F4BD
:1010A0004A815B819E0141155105B1F722C0BC0107
:1010B00062507109FB01D383C28300811181AC01AD
:1010C000400F511F4C175D0761F448815981400F53
:1010D000511F4E5F5F4F518340834A815B81538331
:1010E00042832115310529F4B093D404A093D3048D
:1010F00040C0F901B383A283E90169917991C60FD8
:10110000D71FAC17BD0779F4DC015E914E91460FF5
:10111000571F4E5F5F4F5183408312968D919C9174
:10112000139793838283A0E0B0E002C0D7017C01D3
:10113000F701828193810097C9F7C7010296208148
:101140003181820F931F2091D1043091D20428174E
:10115000390779F4109729F41092D4041092D3042B
:1011600004C013961C921E921297F092D204E09241
:10117000D104DF91CF911F910F91FF90EF900895CF
:101180008F929F92AF92BF92CF92DF92EF92FF9297
:101190000F931F93CF93DF93EC01009779F4CB016A
:1011A000DF91CF911F910F91FF90EF90DF90CF9043
:1011B000BF90AF909F908F900C948607DC01A60F94
:1011C000B71FFC013297AE17BF0718F4C0E0D0E09C
:1011D000ADC00081118106171707B0F00530110569
:1011E00008F4A4C0C80104978617970708F49EC0A6
:1011F00002501109061B170B0D931D937183608319
:10120000CD010E94210892C07B01E01AF10A5C0125
:10121000A00EB11EE091D304F091D404812C912C46
:1012200080E090E04CC0EA15FB05F1F5408151816A
:101230006A0122E0C20ED11CCE14DF04A8F19A018B
:101240002E193F097901690132E0C30ED11C2EEF3E
:10125000A22EBB24BA94AC0EBD1E25E0C216D1044A
:1012600078F04281538113965C934E9312971196B6
:10127000FC92EE92F501718360833A2F2B2F09C007
:101280000E5F1F4F040F151FD5010D931C93328164
:101290002381009721F0FC013283238347C03093E0
:1012A000D3042093D40442C080819181881699068A
:1012B00008F44C0152814381CF01E52FF42F309780
:1012C00009F0B1CF8091D1049091D2048A159B0589
:1012D000F1F486169706D8F48091000290910102ED
:1012E000009741F48DB79EB720910402309105021A
:1012F000821B930BA817B90708F068CFB093D204EC
:10130000A093D104FE013297718360830FC0CB019B
:101310000E9486077C01009709F458CFA801BE01FE
:101320000E94CA09CE010E942108E701CE01DF9187
:10133000CF911F910F91FF90EF90DF90CF90BF90D2
:10134000AF909F908F900895A1E21A2EAA1BBB1B0D
:10135000FD010DC0AA1FBB1FEE1FFF1FA217B30781
:10136000E407F50720F0A21BB30BE40BF50B661F97
:10137000771F881F991F1A9469F76095709580955B
:1013800090959B01AC01BD01CF0108950790F691A6
:10139000E02D1994FB01DC0102C001900D92415037
:1013A0005040D8F70895FB01DC0101900D92002018
:1013B000E1F7089510E0C8EED0E000E006C0229703
:1013C0000109FE010BBF0E94C609CA3ED10780E099
:0813D0000807A9F7F894FFCF0C
:1013D8000000D50480000000000000DB01EE007D65
:0813E80001AC019001D00100ED
:00000001FF
