:100000000C9474000C94A5000C94A5000C94A5000D
:100010000C94A5000C94A5000C94A5000C94A500CC
:100020000C94A5000C94A5000C94A5000C94A500BC
:100030000C94A5000C94A5000C94A5000C94A500AC
:100040000C94A5000C94A5000C94A5000C94A5009C
:100050000C94A5000C94A5000C94A5000C945301DD
:100060000C94A5000C9404030C94F4030C94A500C8
:100070000C94A5000C94A5000C94A5000C94A5006C
:100080000C94A5000C94A5000C94A5000C94A5005C
:100090000C9438030C9433040C94A5000C94A50024
:1000A0000C94A5000C94A5000C94A5000C94A5003C
:1000B0000C94A5000C94A5000C94A5000C94A5002C
:1000C0000C94A5000C94A5000C94A5000C946C0352
:1000D0000C9472040C94A5000C94A0030C94B1042D
:1000E0000C94A500D400710511241FBECFEFD1E2FE
:1000F000DEBFCDBF00E00CBF12E0A0E0B2E0E8E060
:10010000FEE000E00BBF02C007900D92A433B107E0
:10011000D9F714E0A4E3B2E001C01D92AF3EB107ED
:10012000E1F710E0C8EED0E000E006C02297010938
:10013000FE010BBF0E94FE06C43ED10780E0080707
:10014000A9F70E94A7060C9402070C94000040E84F
:1001500055E260E070E08DEA92E00E94F00484E3F2
:1001600092E00E940C0184E392E00C941F0148E3AA
:100170005FEF68E37FEF84E392E00E94260168E886
:1001800073E180E090E00E94C70140E050E060E051
:1001900070E084E392E00E94260168EE73E080E064
:1001A00090E00E94C701F9CF4AE050E06BE872E0AE
:1001B00084E392E00C94EA00DC01ED91FC91019063
:1001C000F081E02D1994DC01ED91FC910190F0811A
:1001D000E02D1994DC0115967C936E9314974C30A6
:1001E000510570F4FA01EE0FFF1FE40FF51FE05008
:1001F000FE4F208131814281642FA90170E004C04B
:1002000040E051EE60E070E04D935D936D937C9320
:10021000139716961C920895CF93DF93EC014881B3
:1002200059816A817B818C819D810E94F00460E804
:1002300070E08C819D81DF91CF910C94E30063E8A5
:1002400070E0FC01848195810C94E300EF92FF92B1
:100250000F931F93CF93DF93EC018B017A0161E938
:1002600070E08C819D810E94E3006F2D70E08C8195
:100270009D810E94DC00B70177278C819D810E94BF
:10028000E300612F70E08C819D810E94DC00B80149
:1002900077278C819D81DF91CF911F910F91FF90E6
:1002A000EF900C94E3001F920F920FB60F9211245F
:1002B0002F933F938F939F93AF93BF9380913E0271
:1002C00090913F02A0914002B091410230914602CC
:1002D000232F2D5F2D3720F40196A11DB11D05C0E0
:1002E000232F2A570296A11DB11D20934602809309
:1002F0003E0290933F02A0934002B093410280914E
:10030000420290914302A0914402B09145020196AD
:10031000A11DB11D8093420290934302A093440219
:10032000B0934502BF91AF919F918F913F912F91D3
:100330000F900FBE0F901F9018950F931F939FB7AC
:10034000F8940091420210914302209144023091AE
:10035000450286B5A89B06C08F3F21F00F5F1F4F57
:100360002F4F3F4F9FBF322F212F102F0027080FF5
:10037000111D211D311D42E0000F111F221F331FCF
:100380004A95D1F7B801C9011F910F910895CF92F5
:10039000DF92EF92FF92CF93DF936B017C010E947B
:1003A0009D01EB010EC00E949D016C1B7D0B683E00
:1003B000734038F081E0C81AD108E108F108C8514B
:1003C000DC4FC114D104E104F10469F7DF91CF914E
:1003D000FF90EF90DF90CF900895789484B582607D
:1003E00084BD84B5816084BD85B5826085BD85B5D9
:1003F000816085BDEEE6F0E0808181608083E1E888
:10040000F0E01082808182608083808181608083BF
:10041000E0E8F0E0808181608083E1EBF0E08081C2
:1004200084608083E0EBF0E0808181608083E1E99B
:10043000F0E0808182608083808181608083E0E958
:10044000F0E0808181608083E1EAF0E08081826079
:100450008083808181608083E0EAF0E08081816038
:100460008083E1E2F1E0808182608083808181602D
:100470008083E0E2F1E0808181608083EAE7F0E060
:1004800080818460808380818260808380818160BC
:1004900080838081806880831092C1000895FC0170
:1004A00084859585FC01E05CFF4F20813181FC0152
:1004B000EE5BFF4F80819181281B390B2F7333270F
:1004C000C9010895FC0184859585FC01E05CFF4F1E
:1004D00040815181FC01EE5BFF4F20813181421749
:1004E000530741F00190F081E02DE80FF91F2081C2
:1004F00030E002C02FEF3FEFC9010895FC01848571
:100500009585FC01E05CFF4F40815181FC01EE5B71
:10051000FF4F208131814217530781F0A081B181C3
:10052000A80FB91F8C91208131812F5F3F4F2F730E
:10053000332731832083282F30E002C02FEF3FEF95
:10054000C9010895FC0181A1882329F0A489B589F6
:100550008C9186FFFBCF11A20895CF93DF93FC010E
:1005600026853785D901A05CBF4F8D919C9111974D
:1005700001968F739927E901CE5BDF4F488159813E
:1005800084179507D9F30D90BC91A02DA20FB31F2E
:100590006C93A685B785A05CBF4F11969C938E93F4
:1005A000A689B7892C9181E090E0078C02C0880F62
:1005B000991F0A94E2F7282B2C9381E081A30488E9
:1005C000F589E02D80818064808381E090E0DF9177
:1005D000CF910895FB01E05CFF4F208131812F5FB7
:1005E0003F4F2F733327DB01AE5BBF4F4D915C91C3
:1005F0002417350739F0A081B181A60FB71F8C935E
:1006000031832083089508951F920F920FB60F92A1
:1006100011240BB60F922F933F934F935F936F93D9
:100620007F938F939F93AF93BF93EF93FF938091AB
:10063000C00082FD07C08091C6006BEA74E00E9492
:10064000EA0202C08091C600FF91EF91BF91AF9185
:100650009F918F917F916F915F914F913F912F91DA
:100660000F900BBE0F900FBE0F901F90189508951E
:100670001F920F920FB60F9211240BB60F922F9369
:100680003F934F935F936F937F938F939F93AF931A
:10069000BF93EF93FF938091C80082FD07C08091C4
:1006A000CE0063E274E00E94EA0202C08091CE00B4
:1006B000FF91EF91BF91AF919F918F917F916F913A
:1006C0005F914F913F912F910F900BBE0F900FBEF6
:1006D0000F901F90189508951F920F920FB60F92CA
:1006E00011240BB60F922F933F934F935F936F9309
:1006F0007F938F939F93AF93BF93EF93FF938091DB
:10070000D00082FD07C08091D6006BE973E00E94A3
:10071000EA0202C08091D600FF91EF91BF91AF91A4
:100720009F918F917F916F915F914F913F912F9109
:100730000F900BBE0F900FBE0F901F90189508954D
:100740001F920F920FB60F9211240BB60F922F9398
:100750003F934F935F936F937F938F939F93AF9349
:10076000BF93EF93FF938091300182FD07C080918A
:10077000360163E173E00E94EA0202C08091360113
:10078000FF91EF91BF91AF919F918F917F916F9169
:100790005F914F913F912F910F900BBE0F900FBE25
:1007A0000F901F9018958DEA92E00E944F02892BBE
:1007B00011F00E9403038BE892E00E944F02892B04
:1007C00011F00E94370389E692E00E944F02892BC4
:1007D00011F00E946B0387E492E00E944F02892B84
:1007E00011F00C949F0308951F920F920FB60F9271
:1007F00011240BB60F922F933F938F939F93EF93F8
:10080000FF932091A7043091A8048091A9049091AE
:10081000AA042817390731F48091C1008F7D809395
:10082000C10014C0E091A904F091AA04E959FB4F5A
:1008300020818091A9049091AA0401968F73992731
:100840009093AA048093A9042093C600FF91EF918E
:100850009F918F913F912F910F900BBE0F900FBEE4
:100860000F901F9018951F920F920FB60F921124A0
:100870000BB60F922F933F938F939F93EF93FF931A
:1008800020911F0430912004809121049091220432
:100890002817390731F48091C9008F7D8093C900F2
:1008A00014C0E0912104F0912204E152FC4F208118
:1008B000809121049091220401968F73992790933F
:1008C0002204809321042093CE00FF91EF919F9109
:1008D0008F913F912F910F900BBE0F900FBE0F90F5
:1008E0001F9018951F920F920FB60F9211240BB6FE
:1008F0000F922F933F938F939F93EF93FF932091AA
:100900009703309198038091990390919A03281747
:10091000390731F48091D1008F7D8093D10014C0CC
:10092000E0919903F0919A03E95AFC4F208180915C
:10093000990390919A0301968F73992790939A0344
:10094000809399032093D600FF91EF919F918F910F
:100950003F912F910F900BBE0F900FBE0F901F90E5
:1009600018951F920F920FB60F9211240BB60F928B
:100970002F933F938F939F93EF93FF9320910F03B8
:1009800030911003809111039091120328173907B9
:1009900031F4809131018F7D8093310114C0E09159
:1009A0001103F0911203E153FD4F20818091110357
:1009B0009091120301968F7399279093120380935D
:1009C000110320933601FF91EF919F918F913F91F9
:1009D0002F910F900BBE0F900FBE0F901F90189588
:1009E000CF92DF92EF92FF92CF93DF93EC016A01F7
:1009F0007B01411581EE580761057105F9F0EC891D
:100A0000FD8981E090E008A002C0880F991F0A9438
:100A1000E2F7808360E079E08DE390E0A701960142
:100A20000E94DC062150310941095109569547952C
:100A300037952795211580E1380798F0EC89FD89D5
:100A4000108260E874E88EE190E0A70196010E94B0
:100A5000DC062150310941095109569547953795D2
:100A60002795E889F9893083EA89FB89208319A2CF
:100A7000EE89FF89408181E090E09C010C8C02C0EE
:100A8000220F331F0A94E2F7422B4083EE89FF893D
:100A900040819C010D8C02C0220F331F0A94E2F7A3
:100AA000422B4083EE89FF8940819C010E8C02C05D
:100AB000220F331F0A94E2F7422B4083EE89FF890D
:100AC00020810F8C02C0880F991F0A94E2F780954D
:100AD00082238083DF91CF91FF90EF90DF90CF90C2
:100AE0000895CF931092B0021092AF0288EE93E077
:100AF000A0E0B0E08093B1029093B202A093B30261
:100B0000B093B40228E232E03093AE022093AD02FB
:100B10004BEA54E05093BA024093B90247E654E0DE
:100B20005093BC024093BB0245EC50E05093BE0290
:100B30004093BD0244EC50E05093C0024093BF028A
:100B400040EC50E05093C2024093C10241EC50E0AF
:100B50005093C4024093C30242EC50E05093C6024B
:100B60004093C50246EC50E05093C8024093C70240
:100B7000C4E0C093C902F3E0F093CA02E7E0E09357
:100B8000CB0275E07093CC0261E06093CD021092CD
:100B90008E0210928D0280938F0290939002A09308
:100BA0009102B093920230938C0220938B0243E225
:100BB00054E050939802409397024FED53E05093C6
:100BC0009A02409399024DEC50E050939C0240935E
:100BD0009B024CEC50E050939E0240939D0248ECE7
:100BE00050E05093A00240939F0249EC50E0509394
:100BF000A2024093A1024AEC50E05093A402409319
:100C0000A3024EEC50E05093A6024093A502C0937D
:100C1000A702F093A802E093A9027093AA0260933E
:100C2000AB0210926C0210926B0280936D02909353
:100C30006E02A0936F02B093700230936A02209309
:100C400069024BE953E0509376024093750247E501
:100C500053E0509378024093770245ED50E0509373
:100C60007A024093790244ED50E050937C02409325
:100C70007B0240ED50E050937E0240937D0241EDB7
:100C800050E05093800240937F0242ED50E0509339
:100C900082024093810246ED50E0509384024093DB
:100CA0008302C0938502F0938602E09387027093DB
:100CB00088026093890210924A021092490280933E
:100CC0004B0290934C02A0934D02B0934E0230938E
:100CD00048022093470283E193E09093540280936B
:100CE00053028FEC92E0909356028093550285E375
:100CF00091E0909358028093570284E391E090939F
:100D00005A028093590280E391E090935C028093B1
:100D10005B0281E391E090935E0280935D0282E347
:100D200091E09093600280935F0286E391E090935C
:100D3000620280936102C0936302F0936402E093C5
:100D400065027093660260936702CF9108950E94D6
:100D5000ED010E94A700C3EDD3E00E94B7002097E9
:100D6000E1F30E94D303F9CFCF92DF92EF92FF928B
:100D70000F931F93CF93DF936C01EB017A01E60E83
:100D8000F71E00E010E00BC06991D601ED91FC91D7
:100D90000190F081E02DC6011995080F191FCE159D
:100DA000DF0591F7C801DF91CF911F910F91FF905F
:100DB000EF90DF90CF900895A1E21A2EAA1BBB1BE3
:100DC000FD010DC0AA1FBB1FEE1FFF1FA217B30717
:100DD000E407F50720F0A21BB30BE40BF50B661F2D
:100DE000771F881F991F1A9469F7609570958095F1
:100DF00090959B01AC01BD01CF0108950790F6913C
:080E0000E02D1994F894FFCFD6
:100E08002C0100580200B00400600900C0120080E4
:100E18002500403800004B0080700000960000E17B
:100E28000000C20100000000AD02B4064F027E02BD
:040E38006202A202AE
:00000001FF
